:020000040800F2
:10000000780C00201DBB000855BA000857BA00083C
:1000100000000000000000000000000000000000E0
:100020000000000000000000000000005BBA0008B3
:1000300000000000000000005DBA00085FBA000880
:10004000773E00085F470008674A0008FB5B00082E
:10005000AB6600086BBA0008DF6600083B68000862
:1000600000000000F3830008478A0008AB8C0008FA
:10007000038F000867AD0008139100082B9100085A
:100080000B950008F79500089799000800000000FC
:100090002FA70008FFBA00080BBB00085DBB0008D3
:1000A0005FBB000861BB000863BB000865BB0008BC
:1000B00079BA000867BB00080000000000000000DB
:1000C000E022520080180268914203D34368D2189C
:1000D000914202D380680028F5D170471848016822
:1000E00000290ED180214902816009094160002167
:1000F000C943C160016104214161124A1160124982
:1001000001600120704730B407230C0008341C4202
:1001100001D1002304E008240D000835641B2340AE
:10012000C918D21A8161C260012313434B6028238E
:1001300089184B6002490969C16130BC70470000F1
:10014000D02A0020342200206859883CF0B587B0BE
:10015000040007200D000835054205D008250E00D3
:100160000836AD1B054049190291110008310142C2
:1001700005D0082115000835491B08401218170042
:100180000298C018039005460298381AC01A0190C8
:100190000326334302984360BD4201D301F0ECFAD9
:1001A0003879C00701D401F0E7FA0198102801D28C
:1001B00001F0E2FAA069874208D1E068019940188D
:1001C000E060A5610121014369606AE160698742DD
:1001D00009D1A06801994018A0606561012101431F
:1001E000696028505DE178680640012E00D0B9E0D2
:1001F000072188430590C00820283CD2B9680091A7
:10020000FE680490B74201D101F0B6FA0098874227
:1002100001D101F0B1FA7868072188430499C90037
:10022000884201D001F0A8FA0498C0002018009973
:1002300002002832914207D02269914200D289E01F
:10024000C968B94200D085E000998E4206D1206885
:100250000121049A9140884320607DE02830864245
:1002600005D02069864275D3B068B84272D1CE609D
:100270000098B06070E0B8690090FE68BE420CD093
:10028000B8682169884225D3C168B94222D1B168D2
:10029000B9421FD1C660B0601EE038001430066855
:1002A000002E07D1380010300668002E14D001E06F
:1002B00008000668310014310A68002AF8D13100BC
:1002C00010310A68002AF3D12169884202D3002143
:1002D000016001E001F050FA009800283CD0F86974
:1002E0008000201898214900401801688F4209D1E8
:1002F0000660002E14D160680121FA69914088439C
:10030000606029E000982169884207D30069B842FB
:10031000009801D1066103E0466101E001F02CFA8A
:10032000002E19D02069864214D30099B161396931
:10033000002906D0814202D331618E6101E001F0D3
:100340001BFA7869002807D02169884202D37061BE
:10035000866101E001F010FA05983F1801980599AF
:100360004018019078680121884378600198014322
:100370006960019828500198C008202822D2009076
:10038000C000271828373E000198102801D201F03C
:10039000F3F9206800990200CA40D10705D4012171
:1003A000009A91400143216007E0B86821698842C2
:1003B00001D3060001E001F0DFF9BD60F560AE6039
:1003C000EF606EE00198000A01D1002225E0802153
:1003D0004902884201D31F221FE0FF21C94341186F
:1003E000090C082211408840304A8218120C04235C
:1003F0001A4090402E4BC3181B0C022633400E2689
:10040000711A891AC91A9840C00B08184100019A3C
:10041000C01DC240D007C00F0A18900020189821B4
:1004200049004118EA6100206861286163681E0084
:10043000D640F60705D401209040184360600D6057
:100440001BE009681F2A019B05D019265208B21A21
:10045000934000E011004A680726B243019EB24271
:1004600010D0DA0F92008E1810365B003268002A26
:10047000F0D12069864212D33560A961ED600398FE
:10048000A8600EE08A682369994208D39A4206D38D
:10049000D560039B8B60AA60E960A86101E001F070
:1004A0006BF90298083007B0F0BD000000F0FFFFC4
:1004B00000C0FFFFF2B586B004008F480068002836
:1004C00001D1FFF70BFE8C488168069840182F3049
:1004D000491E88430699814200D3DCE1D8214900B6
:1004E00061188968002909D0D8225200A258101832
:1004F000824200D3CFE1814200D2CCE101F046F943
:10050000002800D1C7E1009007680021C943884254
:1005100000D1C0E1D82040002058C019D82149009E
:10052000605061184968814200D20100D820400023
:1005300020184160A069002839D12069002802D024
:100540000099814201D2009820610098D821490089
:1005500061180861D8204000201847610026D82083
:1005600040002018C6616448006860620020C043F3
:10057000206220002830C06001468160083141615E
:100580000161B61C1030202EF5D3C448844203D13B
:10059000283F3A00009926E0201F00680721884381
:1005A000211808390098C019421A283A1BE0E020A7
:1005B0004000201800E08068002818D000990268E8
:1005C0004368D2189142F6D1017B09070FD4A16983
:1005D000026891420BD3D218914208D2D9194160D6
:1005E000E068C219A1692000FFF78DFD3FE1009886
:1005F0002169884200D22061E02040002018009943
:10060000C91900E08068002810D002688A42F9D138
:10061000017B09070AD4009901604168C91941604A
:10062000069B00992000FFF791FD35E1A06903903A
:10063000054629002000FFF743FD016840680818BF
:10064000059027380026410701D1002003E008214A
:10065000081A4007400F059908182F382900103153
:10066000884201D2019500E0019001981830029073
:1006700004963800283800990831490701D1002133
:1006800005E00821009A0832891A4907490F401AE3
:10069000009A5118A161E060012202434A602822B9
:1006A0000818426014480069E0610198083040076A
:1006B00001D001F061F81B200199486001980830D1
:1006C000E02149006118102201F08AF80098D82131
:1006D000490061180861D820400020184761D820DF
:1006E00040002018C66101980830D82149006118DF
:1006F0008861059805E000BFD02A00200299091DF5
:1007000002910721029A51600499491C04910299AF
:1007100008318142F2D30498022801DA01F02CF862
:100720000198A84200D1A2E0411B426801239A43EC
:10073000426001220A436A600160C808202821D271
:100740000090C000271828373E00102901D201F080
:1007500013F8206800990200CA40D10705D401218E
:10076000009A91400143216007E0B86821698842FE
:1007700001D3060001E000F0FFFFBD60F560AE6050
:10078000EF6074E0080A01D1002228E01A049042C8
:1007900001D31F2223E0FF22D2438218120C082328
:1007A0001A40009290403E4A8218120C04231A40CC
:1007B00090403C4BC3181B0C02273B4001930E2377
:1007C000009FDB1B9A1A019BD21A9840C00B10188D
:1007D0004200C01D0B00C340D807C00F1218900084
:1007E000201898235B00C0180090EA616E612E61AA
:1007F00060680300D340DB0707D401219140014327
:1008000061600098056000981DE0009800681F2A4C
:1008100001D10A0006E0192352089B1A0A009A40E7
:1008200000E0380043680727BB438B4210D0D30F4A
:100830009B00C318103352001F68002FF1D12169AB
:100840008B4212D31D60A861ED600398A8600EE092
:1008500081682269904208D3914206D3CD60039A01
:100860008260A960E860AE6101E000F085FFE068A9
:10087000069981420FD2401AE060A169069A8A184F
:10088000A2610123034353600698032202434A6096
:100890000800083000E0002007B0F0BD78200020FC
:1008A00000F0FFFF00C0FFFFF2B584B0040000209D
:1008B000009004984542000A25D0802149028842D0
:1008C00001D31F201FE0FF21C9434118090C082252
:1008D00011408840B34A8218120C04231A409040F9
:1008E000114BC3181B0C022633400E26711A891AAD
:1008F000C91A9840C00B08184100049AC01DC24094
:10090000D007C00F081881006118982252008B5838
:10091000002B28D01F28049A03D019214608891BD0
:100920008A40002103E000BF00C0FFFF52005E6864
:100930000727BE43049FF61BAE4202D20093350048
:100940000CD05E69D70FBF00DB191B69002E02D0E7
:100950009E4200D03100002BE8D10B00002B3FD18C
:10096000009900293ED101210122824050004342DA
:10097000034362681A4000D178E150421040401EA3
:10098000020B10231A40D040430908263340D840B8
:10099000860804273E400296F040460802273E4063
:1009A0000196F04046083140D218029BD218019BB4
:1009B000D2185218C84010188000201898214900F9
:1009C00043580DE003005868072188430499401AF2
:1009D000A84201D20500009318690028F2D15B6992
:1009E000002BF0D10098002800D13FE1A0680499C5
:1009F000401A854200D339E1009E2069864200D228
:100A000032E16818029000984068072188430299F3
:100A1000884201D000F0B0FE009804994718BE4209
:100A200000D321E1806901900098C66886420DD00C
:100A300080682169884225D3C168009A914221D1FA
:100A4000B16891421ED1C660B0601DE014300668E6
:100A5000002E07D1009810300668002E14D001E057
:100A600008000668310014310A68002AF8D1310004
:100A700010310A68002AF3D12169884202D300218B
:100A8000016001E000F078FE0198002843D0009852
:100A9000C069800020189821490040180099026818
:100AA00091420AD10660002E16D160680121009A99
:100AB000D2699140884360602DE0019821698842A5
:100AC00008D3006900998842019801D1066103E0CA
:100AD000466101E000F050FE002E1CD020698642E5
:100AE00017D30198B06100980069002807D02169E8
:100AF000884202D33061866101E000F03DFE00983B
:100B00004069002807D02169884202D3706186615C
:100B100001E000F031FE03200121102D0AD2029ADB
:100B20001043009A50600098029A8018426811435E
:100B3000416096E0049A1043009A506001202843D7
:100B400078607D51E808202819D2C200A6182836FE
:100B5000350022681300C3400B4003D1814011438C
:100B6000216007E0B0682169884201D3050001E0F7
:100B700000F002FEB760EF60BD60FE6071E0280A21
:100B800001D100222AE00A04904201D31F2225E06D
:100B9000FF22D2438218120C08231A40019290407F
:100BA000004A01E000F0FFFF8218120C04231A40F3
:100BB0009040304BC3181B0C0226334002930E2387
:100BC000019E9B1B9A1A029BD21A9840C00B1018C8
:100BD0004200C01D2B00C3400B40D21890002018CB
:100BE00098235B00C018FA6100237B613B61636856
:100BF0001E00D6400E4004D1914019436160076049
:100C00001CE000681F2A01D1290006E019215208C2
:100C10008A1A2900914000E01000426807239A4395
:100C2000AA420FD0CA0F92008318103349001A68E5
:100C3000002AF1D121698B4211D31F60B861FF6096
:100C4000BF600EE081682269904208D3914206D3CA
:100C5000CF608760B960F8600020B86101E000F003
:100C60008BFD0098083002E000F086FD002005B002
:100C7000F0BD000000C0FFFFF2B586B0040061685F
:100C800048420840401E010B10221140C840420952
:100C900008231A40D040830804252B40D84045083B
:100CA00002263540E8408607F60F8918C918491909
:100CB0008919F040081880002018982149004058F0
:100CC0000700416807229143069A8D1A09E008003F
:100CD000416807229143069A891AA94201D20D0060
:100CE000070001690029F2D140690028F0D120698C
:100CF000874200D2D3E0A818019078680721884382
:100D00000199884201D000F037FD06983818049008
:100D1000874200D3C3E0B8690090FE68BE420CD0A1
:100D2000B8682169884225D3C168B94222D1B16827
:100D3000B9421FD1C660B0601EE0380014300668AA
:100D4000002E07D1380010300668002E14D001E0C4
:100D500008000668310014310A68002AF8D1310011
:100D600010310A68002AF3D12169884202D3002198
:100D7000016001E000F000FD009800283DD0F86916
:100D80008000201898214900401801688F4209D13D
:100D90000660002E14D160680121FA6991408843F1
:100DA00060602AE000982169884207D30069B84250
:100DB000009801D1066103E0466101E000F0DCFC2F
:100DC000002E1AD02069864215D30098B061386988
:100DD000002807D02169884202D33061866101E092
:100DE00000F0CAFC7869002807D02169884202D344
:100DF0007061866101E000F0BFFC0320102D09D274
:100E000001990843786001983818416801220A4323
:100E1000426041E006990843786001202843049924
:100E2000486004984551A0680090C608202E01D360
:100E300000F0A2FC009800282BD060690390019676
:100E4000F00020182830029006460098102801D2A1
:100E500000F092FC206801990200CA40D10705D435
:100E60000121019A91400143216008E002988068C5
:100E70002169884201D3060001E000F07DFC03985F
:100E8000029988600398F06003988660029803993D
:100E9000C860A560049860613800083002E000F086
:100EA0006BFC002007B0F0BDF0B587B0040000BFB8
:100EB00000BFBA4DF52C00D325E10B2C01D2102434
:100EC00002E00B3407208443E00800902868009972
:100ED000C840032738424DD001260122824388189A
:100EE0000090C00028182830029084680098C00044
:100EF00003906068072188430399884201D000F07D
:100F00003BFCA06801900298844201D100F034FCBF
:100F10000198844201D100F02FFC606807218843CA
:100F20000399884201D000F027FC02980199884279
:100F300006D12968009A01209040814329600FE082
:100F400008462969884209D3C068A04206D10198A1
:100F50000299886002980199C86001E000F00CFCD9
:100F60000398074367600398201841680E43466062
:100F7000260007E1A968A14200D3D7E0002800D1EC
:100F8000B7E00126009901228A405100009A904062
:100F90004A420A43024051421140491E080B1022A6
:100FA0001040C1404A0908231A400092D1408A08E3
:100FB00004231A400192D1404A0802231A400292A7
:100FC000D1404A083240009BC018019BC018029BC8
:100FD000C0188018D14040180390C000281828304D
:100FE0000090806804900398C000029004984068C4
:100FF000072188430299884201D000F0BDFB049884
:101000008068019004980099884201D100F0B4FBF7
:1010100004980199884201D100F0AEFB0498406821
:10102000072188430299884201D000F0A5FB00986F
:101030000199884206D12968039A01209040814392
:10104000296010E00846296988420AD3C0680499DB
:10105000884206D101980099886000980199C8607B
:1010600001E000F089FB0298001B039027430498DD
:10107000476004980019059003983043059948602B
:10108000039805990850A8680090C408202C01D343
:1010900000F072FB0098002825D068690290019446
:1010A000E0002F1828373C000098102801D200F0EB
:1010B00063FB286801990200CA40324003D18E4088
:1010C00006432E6007E0B8682969884201D304000E
:1010D00001E000F051FB0298B8600298E0600298CD
:1010E00084600298C7600398A86005986861049EB0
:1010F00048E06868002836D021002800FFF7BCFDD2
:10110000060013D045E03F20C043844202D30024B0
:10111000E4430BE00B34072084436868002805D0C3
:1011200021002800FFF7C0FB060032D1A968A142C8
:1011300019D30A1B686901260327102A08D301194D
:101140006961AA6016434E608A502743476008E0F1
:101150000022AA606A610F43476041184A6816433B
:101160004E6006000EE0E86884420DD2001BE86085
:10117000A9690A19AA61012303435360032020438C
:1011800048600E00083604E021002800FFF792F9BD
:10119000060000BF00BF300007B0F0BD782000207F
:1011A000002800D17047F0B585B00838050000BFB1
:1011B00000BF474C2069854200D2D2E26B68032110
:1011C00003221A40012A00D1CBE2DE08F600AA1958
:1011D000029201273B4241D12A680B4000D1C2E272
:1011E000B6185342ED18854200D2BAE263699D42B7
:1011F00000D102E1D108202900D380E0A868019045
:10120000E868009003910098854201D100F0B4FA9B
:101210000198854201D100F0AFFA68680721884340
:101220000399C900884201D000F0A6FA0398C000D3
:101230002018019902002832914205D0226991427A
:101240005AD3C968A94257D10099019A914243D112
:101250002168039A012090408143216002988542D1
:1012600000D37EE24068384200D17AE2810700D59F
:10127000C5E10299A269914200D0CEE0E0688119EF
:10128000E160A5610F436F606069854202D1002073
:101290006061A060E069884200D364E20D480068A4
:1012A000002801D1FEF71AFFA169002900D15AE2F6
:1012B000E068292802D32000FEF702FFE069E16818
:1012C000884200D34FE20020C043E0614BE200BF00
:1012D00078200020D02A00202830814206D00846FD
:1012E0002169884208D38068A84205D10098D0605F
:1012F000019800998860B1E700F03EFAAEE7A9696D
:101300000091EA68AA420DD0A9680192814228D3CF
:10131000C868A84225D19068A84222D1CA60019825
:10132000816020E0290014310A680192002A09D165
:10133000290010310A680192002A14D002E011003D
:101340000A680192019A14321368002BF7D1019AAE
:1013500010321368002BF2D1814202D300200860C2
:1013600001E000F009FA0098002800D176E7E8696A
:101370008000201898214900401801688D420AD148
:1013800001990160002915D16168EA690120904046
:101390008143616062E700982169884208D300694F
:1013A000A8420198009901D1086103E0486101E079
:1013B00000F0E2F90198002800D14FE72069019977
:1013C000814299D30099019A91612969002908D035
:1013D000814204D3019801610198886101E000F025
:1013E000CBF96869002800D138E72169884283D3A6
:1013F000019948610199816130E702984068014094
:10140000032900D02AE7A66002984068B8430299F1
:10141000486037436F60AE51A5E16269914207D1E0
:10142000A0688019A060656107436F6028509AE149
:10143000072188433618C00820284BD202998968B2
:1014400000910299C968039101900298039988421A
:1014500001D100F091F902980099884201D100F081
:101460008BF902984068072188430199C900884296
:1014700001D000F081F90198C00020180099020005
:101480002832914208D02269914200D2ACE0C9686A
:10149000029A914200D0A7E00399009A914206D1A6
:1014A0002168019A01209040814321609EE028300C
:1014B000814209D008462169884200D294E08068C0
:1014C0000299884200D08FE00398D0600098039979
:1014D00088608BE00298806901900298C068029948
:1014E000884212D0029989680090206981422CD3E9
:1014F000C868029A904228D100988068904224D10E
:101500000098C8600098816021E00298143001685A
:101510000091002909D1029810300168009100293A
:1015200015D002E0080001680091009914310A68A2
:10153000002AF7D1009910310A68002AF2D12169F6
:10154000884202D30021016001E000F015F9019802
:1015500000284BD00298C0698000201898214900CB
:1015600040180299026891420BD10099016000294C
:1015700017D161680298C26901209040814361607F
:1015800034E001982169884209D3006902998842B0
:101590000098019901D1086103E0486101E000F081
:1015A000EBF80098002821D02069009981421BD3D4
:1015B0000199009A916102990969002908D0814234
:1015C00004D3009801610098886101E000F0D4F82C
:1015D00002984069002809D02169884204D3009903
:1015E00048610099816101E000F0C6F801203043B4
:1015F0006860AE516069854208D1A660B3E0B84327
:1016000002994860012030436860AE51F0082028FC
:1016100025D20090C0002018283001900290102E92
:1016200001D200F0A9F8206800990200CA403A40AF
:1016300003D18F400743276008E001988068216943
:10164000884201D3029001E000F096F8019885608D
:101650000298C5600298A8600198E86083E0300AAB
:1016600001D1002227E03904884201D31F2222E061
:10167000FF21C9434118090C0822114000918840FC
:101680003B494118090C0422114001918840394915
:101690004118090C022211400E22009BD21A019B14
:1016A000D21A521A8840C00B10184100C01D3200D7
:1016B000C2403A408A1890002018982149004018EA
:1016C0000090EA6100206861286161680B00D340E6
:1016D0003B4007D197400F43676000980560009832
:1016E000A8611EE0009909681F2A01D1320006E0B6
:1016F000192352089B1A32009A4000E039004B68C7
:101700000727BB43B3420FD0D30F9B00CB18103336
:1017100052001F68002FF1D12069834210D31D6051
:10172000A961ED60AD600DE08A682369994207D335
:101730009A4205D3D5608D60AA60E960A86101E096
:1017400000F01AF8206A401E20620CD1E42040000C
:10175000205800E080680028FCD10020C0432062AF
:1017600001E000F009F800BF00BF05B0F0BD0000C7
:1017700000F0FFFF00C0FFFF80B5012000F04AF835
:1017800001BD0268531C0360117070470749086867
:10179000002801D0002070470548072290430860C8
:1017A00004499143091A0160704700BF8C2B002047
:1017B0007F0C0020781C0020124207D08B0706D037
:1017C0000B78491C0370401C521EF7D870478307E2
:1017D00006D00B78491C0370401C521EF9D170478B
:1017E00070B4103A03D378C9103A78C0FBD25307CB
:1017F00001D318C918C001D508C908C0D20704D33D
:101800000B880380891C801C002A01D50B7803708B
:1018100070BC704780B500BF00BF024A110018209D
:10182000ABBEFBE726000200C84A401E0B2820D8AA
:1018300001A31B5C9F4400BF0C1014181C2024281B
:101840002C30343811627047516270479162704792
:1018500011617047D16270471163704751637047DF
:1018600091637047D163704711647047516470474A
:101870009164704710B594B004000AA80EA1282204
:10188000FFF7AEFF684600BF15A12822FFF7A8FFAB
:10189000222C0DDAA0001E2C03DB694608187838CC
:1018A00004E0142C04DB0AA908185038006800E092
:1018B000009814B010BD00003075000030750000B5
:1018C00030750000881300008813000088130000A2
:1018D000E8030000E8030000F4010000F401000048
:1018E0003075000088130000E8030000F4010000D8
:1018F00000000000000000000000000000000000E8
:1019000000000000000000001FB50400684600BF92
:1019100000A10CE0409C0000409C0000409C0000A6
:10192000409C00001FB50400684600BF0AA11022B9
:10193000FFF756FF122C0BDA6846A1004018383822
:101940000E2C01DB006804E00A2C01DB006900E0DA
:10195000009804B010BD0000204E0000204E000092
:10196000204E0000204E0000F1B584B00D00002094
:101970000090684605727548416C080001D001204E
:101980008847402401F0AAF8241AE4B26F48466C54
:101990006F488779AF4203D30079C01C844206DBCD
:1019A0002800390001F072FCC01C844204DA3000C7
:1019B0004BD00020B04748E0BD4228D2681CC0B2DE
:1019C00000F01EFF04003AD060798021014361716C
:1019D0006806400E8038A0712A000499E01DFFF7C8
:1019E000EBFE022020705A48C0786070BB48406807
:1019F000C106C90E401CB94A50606079E02202401D
:101A0000114361715248C078002868D193E00027E3
:101A10004F4880790326EAB2904207D20099002904
:101A200000D10327C01BC0B2019001E0EDB20195C7
:101A30000198C019C0B200F0E3FE040007D143488A
:101A4000416C080001D00020884704207CE0009809
:101A5000002800D10026019A04993D4B9B795843F8
:101A6000801B0918E019801DFFF7A6FE02202070D8
:101A70003748C078607099484168C806C00E491C54
:101A8000964A51606179E0220A4010436071202635
:101A90000199EDB2A94213DA30436071009900292F
:101AA0000ED18021014361710220A0716846007A45
:101AB000401CE0716846017A049801F032FB207204
:101AC00001982D1A0098401CC0B2009028061AD127
:101AD0000098012817D11E48C07800282BD07F48D5
:101AE00040681B49097901F0D4FB002907D16079CE
:101AF00040210143617115484078401C13E01348B0
:101B00004078401C11E06079064366711048C07847
:101B100000280DD028060BD140203043607100987A
:101B20000A4949784018E07000200849487002E0EE
:101B3000280600D06BE700F0BBFD0448416C0800AC
:101B400001D000208847002005B0F0BD0000002033
:101B50002C2A0020F0B5C5B000216A4651706049BA
:101B6000C87115E004AC6846007A022802DB002048
:101B700000F091FC5A48416C080001D000208847D1
:101B800057480269100003D06846418820009047FA
:101B90005348416C080001D00120884700A9891CE6
:101BA00002A801F00DF9040007D14D48416C08006E
:101BB00001D00020884745B0F0BD6079C1092CD024
:101BC000A279130629D55006400E4649897901F0BD
:101BD0005DFB684641804288E11D04A8FFF7ECFDEB
:101BE00040480079022801DA0B20207068464078CE
:101BF0000028B7D068464088401E6946488068463D
:101C00004188C9B204A8401C01F08BFA6946097CDE
:101C1000884260D001F05AF9C7E7C006C00E0390B1
:101C2000002908D03048039989004058807902285B
:101C300001D1012000E000206946487068464088D4
:101C4000019000240BE00B20387026480079022810
:101C500003DA012D01D10B203870641CE4B2684610
:101C6000057AAC42C2D0002603980019C706002CA2
:101C700023D1022D21DB1B488079801E6946087024
:101C80000226002018497A0E8F5869460A78B91939
:101C9000891D04AB134EB67966439B191818FFF7DC
:101CA0008BFD019869460978401A80B201907879D5
:101CB0008009C007C7D51520C6E70A488179019871
:101CC000884201DA01F0E2FA68460170002CD8D0AF
:101CD0000120C043D6E704A8441C44E7602A002042
:101CE000000000202C2A002024280020F3B583B017
:101CF000BD4C0120A071BD4FB868401CB860387C55
:101D00004100081804990979401880103874049823
:101D10000079A0700498408804990979401A2081BC
:101D2000C7480078032800D185E12000703001F019
:101D300038FB00202071E0680178142901D1217856
:101D400001700025012603990978CA0900D1DFE056
:101D5000039A52786B461A706A461278120600D5BA
:101D6000D6E06A461278092A4DD802A39B5C5B0034
:101D70009F4400BF0594CE4A59CE5C7E948B027876
:101D8000102A40D1C906C90E4079C006C00E814252
:101D900039D12000583001F004FBE570E068C178CB
:101DA000002904D1798A491C798208210170787C44
:101DB00041000818039989794018801078740398B5
:101DC000007AA0490870810602D5C021014301E0D4
:101DD0008106890E0F020398C0790743380406D0A4
:101DE00000F06EFBE0693FB2C01900F085FB2802ED
:101DF0000399891949784518761C052EF7DB2900C7
:101E0000E06801F0C9F849E00078102846D12000C8
:101E1000583001F0C6FAE5700820E1680870788A49
:101E2000401C78823AE001F051F837E00398801CBA
:101E300001F06EFC002831D0082000F0E1FC050024
:101E40002CD00620A87107220398811CE81DFFF7FB
:101E5000B3FC03980078C006C00E6979E0220A40FE
:101E6000104368718021014369711320287015E0C7
:101E7000A06C010012D003998978DE290ED1039954
:101E8000C978AD290AD1804708E004220398811C53
:101E900001A8FFF791FC019800F02EFB0398007851
:101EA0008009C00733D5002000F096FE00282ED10F
:101EB000082000F0A5FC00287AD003218171039945
:101EC0004978C171002101724172817204990979C6
:101ED000C17221896A3901735B4909785B4A1278BA
:101EE00089185B4A12789206920E891841730399F9
:101EF0000978C906C90E4279E0231340194341719C
:101F000080220A43427100214170132101704FE089
:101F10000921039800F032FF00280DD10821039811
:101F2000007800F0E1FC050078D009220399681DD3
:101F3000FFF742FC07202870039800788009C0074B
:101F400036D5002000F048FE002831D1082000F0EE
:101F500057FC05002CD000F0E3FE0021A971010E12
:101F6000E971010C2972010A6972A872049800795A
:101F7000E87220896A382873334800783349097831
:101F80004018334909788906890E401868736879C2
:101F9000E0210140387BC006C00E084368718021F3
:101FA00001436971002068701320287000F080FBE5
:101FB00003980078602101402029E068017817D15A
:101FC000142902D02170142101701D488078FFF778
:101FD0009BFC030001221F492000703001F032FFFA
:101FE0000120207108E000BF00000020602A0020CE
:101FF000142901D121780170E079002801D1FFF77F
:10200000A9FD039800788009C00701D401F010FAF7
:1020100000F0B7FC002802D000F04AFB0DE00848B1
:102020000078012807D16071A94B0122A94920003D
:10203000643001F007FF00F0A3F905B0F0BD000027
:102040002C2A0020AC000020A6000020A5000020C3
:102050004E2A002097240008F1B584B09E480078ED
:10206000042805D100F08CF900F047FF9B4B27E1D5
:102070009B4CC04800789B490978014300D0FAE0A6
:102080000125E0680078102802D0142821D030E023
:10209000E07800281CD190484078FFF7EBFB060061
:1020A0008D488078FFF730FC361801F0E5FE070018
:1020B00089488078FFF736FC0100380001F0E9F824
:1020C00073180122AC492000583001F0BBFEE570C6
:1020D000DAE020790028FBD17F488078FFF714FCF4
:1020E00003000122A5492000703001F0ABFE2571EC
:1020F000CAE000F046FC060000D1B9E07078002884
:1021000032D07548007803282ED071798909294288
:1021100028D0002828D0022800D027D210203070E4
:102120006D484078FFF7A6FB07006B488078FFF703
:10213000EBFB3818029001F09FFE0700664880789C
:10214000FFF7F0FB010002980090380001F0A1F8C1
:1021500000984318012288492000583001F072FE8F
:10216000E57003E0062000E005203070E6602027DF
:1021700070798009284207D100F003FC002803D0C1
:1021800070792021014371717079C0090FD0B07945
:1021900008280CD100F094F9E06901907079802151
:1021A00001437171042201A9F01DFFF705FB60795D
:1021B000002805D0002060712000643001F0F1F8A3
:1021C000300002F0DFF800F07BF9E26992B200BF64
:1021D00045A1824802F018F970794109294202D0DC
:1021E0004D21029100E002978109294201D0412549
:1021F00000E02025C00900D05327784802F020F9DC
:102200007179C906C90E0191029900912B003A001B
:1022100038A1724D281802F0F7F800253AA76F4848
:1022200002F00EF971198A7939006C4B181802F016
:10223000EBF86D1C082DF2D12748407800F0CDFF57
:102240000500664802F0FCF82A0000BF30A1634B8D
:10225000181802F0D9F8614802F0FEF83078052825
:1022600012D1300000F011FC20005030E0600BE093
:1022700000F086F808E00120A16B8847A169884238
:1022800001D3002900D1A061A14C2078032801D1FD
:1022900000F076F810480078022810DA00F071FBA0
:1022A00000280CD1334800780E490978014306D143
:1022B00000F066F82078002801D1964B00E0322328
:1022C00001220021049801F0BDFD05B0F0BD000021
:1022D000B80B0000CD2300082C2A00203075000028
:1022E00000000020922B0020253035753A20444C08
:1022F0002000000020256325632563202D20256410
:10230000202D20504C443A00253032580000000067
:10231000202D202020202D20256442505300000035
:1023200038B500207C49087001257C4CE068407974
:102330008009284206D100F024FB002802D000F0DA
:10234000B7F931BDE0684079800928420CD1744862
:102350000078012808D16571724B01227249200072
:10236000643001F06FFD01E001F062F800F008F860
:1023700031BD0000912B0020E123000897240008C4
:1023800080B563480078664A1278002A06D0022A8F
:1023900010D003D3042A12D00CD315E05F4A53792E
:1023A000002B07D1D2681278032A03D0102A01D05B
:1023B000142A04D1012807D002F001F802BD002838
:1023C00002D002F076F902BD002002BD80B50020E7
:1023D000BB494871FFF7D4FF01BD0000781C002005
:1023E000F8B504004E4FB81C0090B04800780028A3
:1023F0000AD000980078FFF787FA03000122B1495C
:10240000200001F01FFDF1BD444C2000583000F0C9
:10241000C8FF0025E570E068007810283AD1AA4E80
:10242000B08A401CB082012001F0F4F8E16888789D
:10243000401C8870E168009AD278C0B2824225D2EE
:10244000092008704879C00908D08879062805D184
:1024500000F096FB01F0F8FA358219E002202722FD
:10246000BA5C024214D1AA4A1278AA4B1B781343D1
:1024700002D100F085FB02E08D70E168087001F088
:102480000AFB0021002001F0E9F801E003200870B8
:1024900000F00EF9F1BD10B5894C2000703000F04D
:1024A00080FF00202071E0680178142901D1217893
:1024B000017000F066FA002801D000F0F9F810BDB4
:1024C00010B5164CE06B010002D08047E06110BDF2
:1024D000B4480068800AE16C884201D3411A00E0E8
:1024E000091AE2695118E161E06410BD80B5FFF797
:1024F000E7FFB648C06902BD10B50400FFF7E0FF72
:10250000B248C461016C0A0001D02046884710BD62
:10251000932B002010270000922B002000000020A9
:102520002C2A0020204E0000CD230008F0B583B0F7
:10253000FFF7C6FFA64D624C6089002805D101F067
:102540009BFCA98C00F0A2FE61812878A149A24BD6
:10255000042805D1012220007C3001F073FCF7BD76
:10256000022801DBFA239B00012220007C3001F0CD
:1025700069FC6089401C6081290026310191002797
:1025800080B2A98C491C884252DB012060810198ED
:1025900000780100E3D0FF2802D0401E01990870A6
:1025A000012000F019FB0028D9D1082000F028F9FB
:1025B000060079D00120B071F771A1699620400022
:1025C000814201D3802000E00020009008006421B7
:1025D00000F05FFE009840183072A7610020A16BE8
:1025E000884770723848017CB172417CF172218950
:1025F0006A3931732221695C71734268D106C90E50
:10260000521C42607079E0220240114371718020B7
:10261000084370712878002808D0E878002805D091
:102620000120707070794021014371710220307077
:1026300001984078400737D460692978022901DA87
:102640003C3000E0401C606160696449496988422F
:102650002AD36761E878002800D001200A2100F021
:10266000FDFFE878002800D00120082100F0F6FFE7
:10267000E878002800D00120092100F0EFFFE87879
:10268000002800D00120112100F0E8FFE8780028A0
:1026900000D001200D2100F0E1FFE878002800D0F3
:1026A00001200E2100F0DAFFF7BD0000912B002081
:1026B00080B5052301224A494A4801F0C3FB01BD08
:1026C00000000020E1230008602A002070B58EB0D1
:1026D0000400454D3E4E06D00420307000F00DFC45
:1026E00001F0E7FF11E0287800280ED0684601F0DD
:1026F00007FA6846007830700021002000F0AEFF35
:10270000002000F019FCFFF7D3FF2C700EB070BD55
:10271000A1000020A200002070B501F0BCF900204B
:102720000021324A8B00D050491C4029FADB00219D
:102730002F4A8B00D050491C2029FADB01F09CFB6A
:10274000224C264949692B4A8D189621890000F0B0
:102750009DFD681A60611F4D1D4E2720305C4006AC
:1027600004D50120FFF7B2FF1B4B13E0FFF708FE73
:102770002720305C000606D40021002000F06EFF08
:10278000002000F0D9FBFFF793FF0120A16B8847E1
:10279000FA239B000122290020007C3001F052FB2B
:1027A000002070BDB82A002080B5134800780028AA
:1027B00009D112480078002805D100F08FF9401E99
:1027C0008041C00F02BD002002BD000000000020BB
:1027D0002C2A00202D25000860EA00008800002037
:1027E00059200008082B0020700200201C25002022
:1027F00024280020D4FEFFFF912B0020932B0020E3
:1028000038B50400B3480078402100F03FFD0D00CA
:10281000B148EDB204216943405800281DD0AE48AC
:10282000EDB20421694340580078801E012805D983
:10283000001F03D00A3801D0C01E01D1002052E091
:10284000A548EDB2042169434058FEF7A9FC0020D9
:10285000A149EDB204226A438850E4B22000801DF1
:10286000FEF722FB9C49EDB204226A4388509A4845
:10287000EDB2042169434058002801D1002032E024
:1028800001209549EDB204226A43895808709248A4
:10289000EDB2042169434058047100208E49EDB225
:1028A00004226A438958487000208B49EDB2042203
:1028B0006A438958887000208749EDB204226A4330
:1028C0008958C87000208449EDB204226A438958AF
:1028D000487180480078401C7E4908707E48EDB2FF
:1028E00004214D43405932BD70B505000C00EE0681
:1028F000F60EA14800680078801E012801D90E3824
:1029000002D19E489C490860B148F6B20421714347
:102910004058002806D0AE48F6B204217143405812
:10292000FEF73EFCE4B22000801DFEF7BDFAA84988
:10293000F6B2042272438850A548F6B204217143CE
:102940004058002801D100201AE0F6B2A148C66024
:1029500001209F49F6B204227243895808709C48AE
:10296000F6B204217143405804719948F6B204212B
:102970007143405845719648F6B204214E43805940
:1029800070BD10B553480478403C20005149097887
:10299000C0B288421BD0E4B22000402100F076FC97
:1029A0004D48C9B204224A43805800280DD04A48F5
:1029B000C9B204224A4380580078132805D14648FA
:1029C000C9B20422514340585EE0641CDDE741482F
:1029D0000478403C20003F490978C0B288421BD0AF
:1029E000E4B22000402100F051FC3B48C9B204226F
:1029F0004A43805800280DD03748C9B204224A43C0
:102A000080580078032805D13348C9B204225143C5
:102A1000405839E0641CDDE72E480478403C200033
:102A20002C490978C0B288422DD0E4B22000402160
:102A300000F02CFC2848C9B204224A4380580028E0
:102A40001FD02548C9B204224A4380580078022882
:102A500011D0102815D12048C9B204224A43805809
:102A6000454A126890420CD003201B4AC9B2042385
:102A70004B43D25810701848C9B2042251434058F1
:102A800002E0641CCBE7002010BD70B505001148C2
:102A90000478403C20000F490978C0B2884217D022
:102AA000E4B22000402100F0F1FB0E000A48F6B22B
:102AB000042171434058A84208D12800FEF770FB5A
:102AC00000200549F6B2042256438851641CE1E710
:102AD00070BD0000902B00201C25002030B5002484
:102AE0008E480578ADB28D4800784030854237D0A9
:102AF000ADB22800402100F0C9FB9F48C9B20422B2
:102B00004A438058002801D1641C27E09A48C9B282
:102B100004224A4380580078801E012816D9001FDD
:102B200015D00A3802D0C01E10D014E09248C9B2A5
:102B300004224A438058104A126890420DD0032064
:102B40008D4AC9B204234B43D258107005E09A480D
:102B50000079022801DB641C00E001E06D1CC1E784
:102B600096480078002803D0E4B2402C00D1641EBF
:102B70004020001BC0B230BD0C00002050000020DF
:102B800010B566480478403C200064490978C0B21A
:102B900088421CD0E4B22000402100F077FB764848
:102BA000C9B204224A43805800280ED07248C9B2E4
:102BB00004224A4380580078062806D109206E4A2C
:102BC000C9B20423594351580870641CDCE710BD96
:102BD00024280020602A002070B5040000254F48FA
:102BE0000678403E30004D490978C0B2884232D064
:102BF000F6B23000402100F049FB5F48C9B2042220
:102C00004A438058002824D05B48C9B204224A4372
:102C100080584079C0B2C009C0B2002819D05648C7
:102C2000C9B204224A43805880792200D2B290422D
:102C30000FD15148C9B204224A4380580078801EFF
:102C4000012805D9001F03D00A3801D0C01E00D1C9
:102C50006D1C761CC6E72800C0B270BD30B50400FC
:102C60002E480078451E28002C4909784139C0B209
:102C7000C9B2884250D0EDB22800402100F006FBD6
:102C80003D48C9B204224A438058002842D03A48FD
:102C9000C9B204224A4380584079C0B2C009C0B2C8
:102CA000002817D03448C9B204224A43805880799A
:102CB00005280FD03048C9B204224A438058807991
:102CC000022807D02C48C9B204224A438058807990
:102CD00000061FD52848C9B204224A43805800780C
:102CE000401F012804D9C01E012801D9083811D17C
:102CF0002148C9B204224A4380584079C006C00E18
:102D00002200D2B2904205D11B48C9B204225143DD
:102D1000405802E06D1EA6E7002030BD902B002039
:102D200030B5002001219A4AD268521ED206D20E36
:102D3000D2B2D306DB0E964C247BE406E40EA3420B
:102D400019D0944BD2B2D406E40E04256C431B591F
:102D5000002B0DD08F4BD2B2D406E40E04256C4369
:102D60001B591B78072B01D00B2B01D10843FFE720
:102D7000521E4900DCE730BD1C25002030B50200A2
:102D80008448834B1B7BDB06DB0E04246343C05863
:102D9000431D002004000D00E4B2EDB2AC4209D0A6
:102DA000C0B21C5CC0B2155CAC4201D0002002E095
:102DB000401CEFE7012030BD2C2A0020922B002080
:102DC000F0B502007248C068401C04007048C0683A
:102DD0004030A04278D300201070002008800025E9
:102DE0006C481678A619F606F60E04277E4380591D
:102DF0000300002B50D0187807284DD110780028F8
:102E00001FD1012010705879C0B24009C0070ED5FB
:102E1000587900060BD59879052802D098790228B0
:102E200005D1D87905001879801E0880D8E758792F
:102E3000A0260640202E2FD0187908800A2018706E
:102E40002AE008881E79801908801078401C1070CC
:102E50005879C0B240090600F607F60F002E08D0D8
:102E600008882E00F6B2B6B2B04202D210781F28FF
:102E7000B6DB5879C0B240090600F607F60F002EFF
:102E80000AD008882E00F6B2B6B2B04204D3EDB232
:102E90000D800A201870FFE71078002812D03D48F6
:102EA0001678A619761EF606F60E04277E4380597C
:102EB00000780A2806D13748E406E40E0426744355
:102EC000005902E0641C81E70020F0BD00B500203D
:102ED000C0B2202810D02F49C0B2042242438958E2
:102EE0000978072906D015212A4AC0B20423434392
:102EF000D2581170401CEBE700BD10B50024E4B2BD
:102F0000402C15D06E48E4B204216143405800289B
:102F10000CD06B48E4B2042161434058FEF740F9FD
:102F200000206749E4B2042262438850641CE6E74B
:102F300064489149086010BD10B504000820FFF7EF
:102F40005FFC002822D0082181718C490978C17268
:102F50008B4909886A3901738A4909788A4A127843
:102F600089188A4A12789206920E8918417341791B
:102F7000E0220A40E106C90E1143417141798022E5
:102F80000A434271002141701321017010BD0000FD
:102F9000602A002024280020F1B584B00C00684687
:102FA00004994979C906C90E0172E0434400002022
:102FB00001900498C0788006800E401EC0B20028A0
:102FC00006D00199012282400A430192401EF5E792
:102FD0002000019C04400125002600200090049858
:102FE000C0788706BF0EFFB2002F31D06846007A46
:102FF000C006C00EFFF732FE0600002E28D0254284
:1030000017D0AC43B078401CB07061484079B178BB
:10301000884202D20920307012E0032030700098FC
:10302000002800D100968B48808A401C89498882FC
:1030300006E0082030708748408A401C8549488255
:1030400068466946097A491E01726D007F1ECAE70B
:103050000098002829D00098407940210143009829
:1030600041710498C07804994979C906C90E401A7B
:1030700000994979C906C90E40180099C87004988A
:103080004079C006C00E00994979C906C90E884228
:1030900004D20098C07820300099C8700098C07899
:1030A000802101430098C17008E0002C06D132480D
:1030B00000684079C006C00EFFF73EFF05B0F0BDC6
:1030C0001C2500205000002000B501000020CA0788
:1030D00002D502005E2050408A0702D50200BC20C3
:1030E00050404A0702D50200612050400A0702D52D
:1030F0000200C2205040CA0602D502009D20504066
:103100008A0602D50200232050404A0602D502005A
:10311000462050400A0602D502008C205040C0B222
:1031200000BDF8B504000F0000250026300039006E
:10313000C0B2C9B2884208D2F6B2A05D6840C0B23F
:10314000FFF7C2FF0500761CF0E72800C0B2F2BD11
:1031500000B50100C9B20B06180008231A00012AA5
:1031600008DB002803D543003B48584000E04000FE
:10317000521EF4E700BD00000C00002002000020F9
:1031800008000020A6000020A50000204E2A0020F4
:103190002C2A002070B504000D001600F6B2002E97
:1031A0000AD02978200E4840C0B2FFF7D1FF240290
:1031B00044406D1C761EF1E7200070BD38B5040058
:1031C0000D002A00D2B221000020C043FFF7E2FF29
:1031D00001000020C043484032BD00B50100C9B223
:1031E000080000281ED001281ED002281FD0032866
:1031F0001FD0152820D0162814D018281ED0192822
:1032000012D01A281DD01B2811D01C281CD01D2814
:103210000FD01E2810D01F2810D0202811D0212810
:1032200012D014E0C82013E0FA20400010E00B4850
:103230000EE0E12000020BE0322009E0C82040004F
:1032400006E0C820000103E0C820C00100E0002023
:1032500000BD0000602A0020B71DC10488130000D3
:10326000F446002804D4494200F013F84042604775
:103270004042002905D45FD000F00BF8404249429B
:103280006047494200F005F84942604703460B4356
:10329000E6D40022030A8B420BD203098B4219D2D7
:1032A00043088B422ED2411A00D2014652411046A9
:1032B0007047FF2209023FD012068B4205D312123B
:1032C00009028B4201D31212090203098B4219D35E
:1032D00000E0090AC3098B4201D3CB01C01A524155
:1032E00083098B4201D38B01C01A524143098B429F
:1032F00001D34B01C01A524103098B4201D30B0188
:10330000C01A5241C3088B4201D3CB00C01A5241AC
:1033100083088B4201D38B00C01A524143088B4271
:1033200001D34B00C01A5241884200D3401A524187
:10333000CFD201461046704708B501F00FFA08BD1C
:1033400000B501000020214B1A001368002B08D0A3
:103350008B4204D11B681360401C002B01D01A0063
:10336000F3E7C0B200BD10B50400194800688047FB
:1033700000F0E5FC200000F0F7FC00F0A6FC15488A
:103380000068804710BD10B511480068804700F004
:10339000D6FC1148006804000E48006880472000F1
:1033A00010BD38B504000A4800688047200001F0CD
:1033B000D7F905002000FFF7C3FF281805000548CE
:1033C000006880472800C0B232BD0000C02A00203B
:1033D000702B00206C2B0020B82A0020B44AB5497D
:1033E000C3070DD5107C8A78032A06DA51A39A18F0
:1033F000537812789A1ACA710EE01A2815DB12E077
:10340000800712D5507C4A78032A0ADA48A39A1812
:10341000537812789A1A0A72D2B20F32824204DAC0
:1034200001E01A2801DB01207047002070470000EE
:1034300070B5A04C9E4DA04841781D291AD0697CDA
:103440003BA26378D25C8A182A762821D2B2292A34
:1034500000DB29762A7E92082A762A7C35A3A67874
:103460009B5DD2186A76D2B2292A00DB6976697E22
:10347000890869760178002958D02721415CC9075D
:1034800054D4C078002851D08C48006800780328B4
:103490004CD010284AD0142848D00020A179002907
:1034A00003D0297C0F2900DAA0716179002903D0AB
:1034B000297C0B2900DB607180260220FFF78EFF3C
:1034C00000280DD00120FFF789FF002808D0012136
:1034D000032000F031F8002828D100F09BF817E015
:1034E0000220FFF77BFF002807D00121022000F017
:1034F00023F8002801D100F08DF80120FFF76EFFBE
:10350000002807D00121012000F016F800280DD175
:10351000A67170BD687C0A2803DA0021022000F041
:103520000BF8287C0A2801DA4020607170BD000089
:103530000009121B0009121EF8B50D005D4CA178A0
:103540006A46517062786B461A70237BC70712D5A2
:103550005A4F3F683F78032F0DD0102F0BD0142FF8
:1035600009D0012D07D19F09FF0704D5491CC9B215
:10357000042900DB0321A170800708D5012D06D1A5
:10358000D80904D0521CD2B2042A00DB0322627094
:10359000A0782018067D484F787861786118097CFA
:1035A000884202D1B878B0421DD0342239002000C0
:1035B0001830FEF701F968464078207168460078B7
:1035C000E07060782018007C7870B878B04201D143
:1035D000002D1DD0BE700021012000F03FF8002812
:1035E00003D100F031FA0020F2BD31486946497834
:1035F000A278914203D2017CE279891A017469466A
:1036000009786278914203D2417C227A891A417406
:103610000120F2BDF0B52A4A517989061CD4002157
:1036200051560B00224C667C264D012805D1C91C41
:10363000F61C687A4FB2B84204E0C91EF61E287A1A
:103640004DB2854200DA41B2667411700020105606
:10365000984201D00120F0BD0020F0BD70B50500FA
:103660000C000820FFF7CCF8060001D1002070BD47
:103670000620B071F471F01D00F04AF87079E02175
:1036800001400B480079C006C00E084370718021CC
:1036900001437171002D06D00748C07870707079B1
:1036A00040210143717113203070012070BD000072
:1036B000602A0020A00000202C2A00200C000020FE
:1036C0004E2A00208800002010B5002306E0D41AFE
:1036D0000419641E2478CC545B1CDBB29342F6D1EF
:1036E00010BD00001EB5684606A11CC91CC0002004
:1036F000694603E080183038C0B2491C0A781300CC
:10370000F8D11EBD31373A33333A32300000000071
:10371000F0B583B00500AB4C2000213001902000B3
:103720002430009000262878800906D0012800D196
:10373000DEE0032800D1D9E030E0FF220621681C3A
:1037400001F024F8BF4F28788006800E122800D997
:103750000FE102A14000095A8F4400BF26004C002F
:1037600056005C006A0074008800A800BC00D40009
:10377000EC00760124017C018601420198000801D9
:103780006001207868702079A8706078E870A0786F
:1037900028710198407868716079A8712878802133
:1037A000014329700120FEBDE07868702079A8707F
:1037B000F4E7A0796870F1E70422691C2000183052
:1037C000FFF782FFEAE70422691C20001C30F7E7BC
:1037D0000198407868702020205CA87001980078DB
:1037E000E870DBE7A019C079A9194870761C032E90
:1037F000D4D0F7E7A019407BA9194870761C032E96
:10380000CCD0F7E700988078687000980088000AAC
:10381000A87000980088E3E7B3488019007CA919D4
:103820004870761CF6B2042EB8D0062EF4DBB5E74D
:10383000AD488019007DA9194870761CF6B2042E97
:10384000ACD0062EF4DBA9E705206870AE70FFF758
:1038500049FFE8700222291DA448FFF735FFA4485C
:10386000007C9AE70222691CA248FFF72DFF022282
:10387000E91C9E48FFF728FF0222691D9E489FE72A
:103880000222691C3800FFF71FFF0222E91C3800E2
:103890000830FFF719FF387C6871787C7DE7387E47
:1038A0006870787EA8700222E91C38001230FFF799
:1038B0000BFF0222691D3800143081E70322691CC6
:1038C00038001C30FFF700FF0322291D380020308C
:1038D00076E70098C0786DE70422691C2000283044
:1038E0006EE70422691C20002C3069E700F0D3F851
:1038F000342221008148FDF773FF032728788006D2
:10390000800E102800D99AE001A1095C49008F447B
:1039100008323B3E4F5B6B7B96969687968B9296D2
:1039200073006878FF2800D02070A878FF2800D0A6
:103930002071E878FF2801D000F002F92879FF28EB
:1039400003D000F01BF97D4807706879FF2801D08B
:1039500001994870A879FF2800D060712878800903
:10396000032800D01AE700F0DFF800210020FFF75D
:1039700075FE0020FEBD6878FF2800D0E070A878B2
:10398000FF28EBD02071E9E76878A071E6E7042210
:1039900021001831681CFFF797FE6879FF2801D0D5
:1039A00001994870A879FF28D8D020216054D5E724
:1039B000042221001C31681CFFF786FE5F48077057
:1039C000CCE700BF2C2A00206878FF2801D001999D
:1039D0004870A878FF2801D020216054E878FF289B
:1039E000BCD001990870E9E7A8194078A119C871FD
:1039F000761C032EB2D0F7E7A8194078A1194873B6
:103A0000761C032EAAD0F7E7687800998870A8780A
:103A1000000200990880E9784018009908809DE725
:103A200068780099C87099E7042221002831681C41
:103A3000FFF74AFE92E7042221002C31F7E72A48DB
:103A4000067096E7602A002038B5634C634D342237
:103A5000290018312000FDF7AFFEE878687028795A
:103A6000A8702078002800D1E07000210020FFF726
:103A7000F5FD31BD10B558481D49CA7802748A78E1
:103A800042744B7883740978C174002484828272F2
:103A9000C372017310BD10B500F032F8FFF7EAFFF2
:103AA000002400214C484218937AD371491C032901
:103AB000F9D1017C427C4A40817C5140C27C4A4021
:103AC000017D5140407D484000F092FE4448048210
:103AD0000548847044708471424800680178102958
:103AE00001D10921017010BDA00000209400002028
:103AF000880000209200002096000020B8000020DE
:103B000010B539480168344C080006D020008847B9
:103B10006078FF2801D0002805D1344801680800EA
:103B200001D02000884710BD31480168080000D14D
:103B3000704780B52848884701BD0000932B0020BE
:103B400020B5254927228A5CD20701D5487020BDBF
:103B50000022224B9D182D7C854204D0521CD2B2EB
:103B6000042A0AD0F6E7042A07D048705878904211
:103B700003D05A700F201A49487420BD20B5164949
:103B800027228A5CD20701D5887020BD0022134B02
:103B90009D182D7D854204D0521CD2B2042A0AD031
:103BA000F6E7042A07D088709878904203D09A707C
:103BB0000F200B49087420BD10B501000D4C2000EA
:103BC0001822FDF70DFE6068002803D000220021B6
:103BD00000F0F1FE10BD00002C2A0020A000002003
:103BE000602A00200C000020300000202C00002063
:103BF000340000208800002000B5C0B200280BD09F
:103C000002280FD00BD3042812D00ED3062815D0CB
:103C100011D3072815D017E07E4A116014E07E4AC0
:103C2000116011E07D4A11600EE07D4A11600BE0E9
:103C30007C4A116008E07C4A116005E07B4A116013
:103C400002E07B4A1160FFE700BD80B500207449A7
:103C50000968884700F073F800F037F801BD10B527
:103C6000040000206E4909688847002071490860F7
:103C7000E4B2002C05D000206F49888000F05FF886
:103C80000BE000206949096888476B49888000205B
:103C90006949086000206849886000F016F8002033
:103CA0005E490968884710BD80B50020FFF7D7FF3F
:103CB00001BD00B55F490A68002A03D108600023EE
:103CC000036001E01100F6E700BD38B55A4880688E
:103CD000002824D058480068574989688968451ADF
:103CE000002D0AD4544884685348806800685249BB
:103CF00088602000FFF7DDFFE8E7504885420EDBD3
:103D00004D4880882900441A210089B20020454A84
:103D10001268904700204149096888470EE04648EC
:103D2000808880214901441A210089B200203D4A3F
:103D300012689047002039490968884731BD10B59D
:103D400000203A490968884704003B4880883A497E
:103D50008C80241AA4B2002C05D037480068A4B285
:103D600000193549086010BD30B535490A68002A88
:103D700007D084689568641B2300002B01D41100D0
:103D8000F4E70A680260086030BD38B500202749B2
:103D90000968884705000020234909688847281AD0
:103DA0000400A4B280204001844201DA012008E02E
:103DB00000201F4909688847002801D0012000E041
:103DC000002032BD38B50024134800688047FFF753
:103DD000B6FFFFF77AFF17480568002D0DD0286859
:103DE000144908600B4800688047641C2800696813
:103DF0008847094800688047EDE7FFF7C6FF0500E0
:103E0000044800688047EDB2002DDDD12000C0B22B
:103E100032BD00006C2B0020702B0020742B002082
:103E2000782B00207C2B0020802B0020842B00206E
:103E3000882B0020682B0020B82A00200010FFFFEC
:103E4000C02A0020F8B504000D0017001E00200055
:103E5000FFF7A7FAA660FFB2002F04D0FFF793FA8E
:103E6000A1680818A0602800002800D06560200024
:103E7000FFF779FAF1BDFEE7F8B52F4E300000F0FC
:103E8000F1FD0090301D00F0EDFD04003000083021
:103E900000F0E8FD050030000C3000F0E3FD27499C
:103EA000274A009B1B78002B36D1236853435B18AD
:103EB000236053435B18236053435B1823605343D1
:103EC0005B18236053435B18236053435B182360E4
:103ED00053435B18236053435B1823600300082699
:103EE000276857437F1827601F60276857437F184C
:103EF00027605F60276857437F1827609F602768A7
:103F000057437F182760DF601033761EE8D1C36FF8
:103F10002B600123009E337023685343591821609E
:103F20002978C906490E4018016829602168016096
:103F3000286880008008F2BD580100205FF36E3CC5
:103F40000D66190070B582B004000E0000F09DFCF3
:103F5000002819D0AD4D207800902B0022000A32A5
:103F60000921601C00F093FC002822D0A8480923F6
:103F70002A68417A057A2D020D43C079010429434C
:103F8000601C00F061FC10E00921601CFFF716F9CD
:103F90000090002069464242891889782218927A56
:103FA000914206D1401C0328F4DB3100601CFDF770
:103FB0009DFE73BDF0B50C0095490D002835954E5A
:103FC00049781A2906D01C2915D0202902D0212988
:103FD00011D019E02F68904909680818D221FFF71D
:103FE00058F9642041437818C821C9004018002CB2
:103FF00005D08A4902E02868C821C9014018297AF9
:1040000001290FD18019F0BD2D688349096808186E
:10401000E221FFF73EF9642041436818002C01D0EB
:104020007F494018F0BD0000F1B594B002A800BF70
:104030007CA10A68026000270026402103A800F046
:10404000D5FB734C2078032804D114980079401EC6
:1040500014990871002003AD02A9095CF6B2A955B4
:10406000761C401C0428F7D3F6B2A819761C617898
:104070000A000A3A032A0BD8E2790270207AF6B2D3
:10408000A855761C607AF6B2A855761C012709E07F
:10409000A27A0270E07AF6B2A855761C207BF6B2BE
:1040A000A855761C0A2901D115200AE00B2901D157
:1040B000182006E00C2901D11A2002E00D2901D1B7
:1040C0001C20607014984079F6B2A855761CF6B2A0
:1040D000A819019014980279811D0198FDF76CFBD5
:1040E00008210198FFF71DF86946487000F0CDFBE4
:1040F00000280BD008230022617A207A00020843AE
:10410000E17909040143019800F08EFB0836F6B20C
:10411000A819761C2178032902D11499897B01E022
:10412000694649780170684606700D21281DFFF721
:1041300045F83D4E7060010C6A461278A9546946F4
:104140000978491C020AC9B26A54491CC9B26854A8
:104150006846491C0170A069002808D00190A16A36
:10416000324A891881428041C00F307005E03178B1
:1041700068464078FFF71EFF0190684600782918CE
:1041800060781A2803DA002F01D1327800E001228A
:10419000281D00F069FCA069002803D130780121B6
:1041A00041403170684607781037214D207800284B
:1041B00017D13078002814D0019B222022562020CD
:1041C000215C607800F01AFA01236278F9B203A842
:1041D00000F08EFA2868401C28601498FFF724FF2E
:1041E00011E0019B222022562020215C607800F003
:1041F00005FA00236278F9B203A800F079FA28687A
:10420000401C2860002015B0F0BD0000202B0020CD
:104210002C2A00200038FFFF880000202C650000B9
:104220006C6B000097157A6FE82A0020A8610000E7
:10423000602A0020F1B590B0684600BF71A10A68FD
:1042400002606B4C0AAD207C2870607C6870A07C9A
:10425000A870E07CE87060780E2801D11E200AE08A
:104260000F2801D11F2006E0102801D1202002E0F4
:10427000112801D1212060705E4FF86828711098D4
:104280004079687110980279811DA81DFDF794FA94
:1042900000F0FBFA00280BD00923FA68617A207A33
:1042A00000020843E17909040143681D00F0BCFAEB
:1042B0000921681D00F0DBFA0600F86800F05FFBDA
:1042C000F860300CA873300AE8732E7411210AA824
:1042D000FEF774FF7860010C6974010AA974E87430
:1042E000A069002808D00500A16A434A89188142C4
:1042F0008041C00FB87004E0B978287CFFF75AFEFF
:104300000500684601A902680A6001A8021D0AA901
:10431000082000F073FCA069002803D1B8780121BF
:104320004140B970354E2078002817D1B878002860
:1043300014D02B00222022562020215C607800F02F
:104340005DF901236278242101A800F0D1F93068D9
:10435000401C30601098FFF76DFF11E02B00222009
:1043600022562020215C607800F048F90023627812
:10437000242101A800F0BCF93068401C3060002006
:1043800011B0F0BD80B51A4949780A3903290ED910
:10439000091F03290ED9C91F09D0C91E07D0891EBC
:1043A00005D0891E03D0891E032903D905E0FFF734
:1043B0003BFE02BDFFF73EFF02BD002002BD70B50F
:1043C0000B4C25001C352B68002B0AD12E690C489C
:1043D00000688A214900FEF75CFFFF206C304143F2
:1043E000731800226979A07800F008F970BD000008
:1043F0002C2A0020E82A0020A8610000602A002062
:104400008800002097157A6F0CB41CB5040004A82E
:104410000190009401AB0A006946084878441C30BA
:1044200000F050FD0021009A1170002801D400987E
:10443000001B02B0019910BC03B0084747D3FFFF2F
:10444000010000E0491C0A78002AFBD1081A7047D5
:1044500080B501F026FC01BD70B504000025ADB2A9
:10446000605D6D1C0600C0B2002804D03000C0B2F0
:1044700001F0C4FBF3E70A2001F0C0FB0D2001F0BE
:10448000BDFB70BD70B505000C000026300021009A
:1044900080B289B2884205D0B6B2A85D01F0AEFB09
:1044A000761CF3E770BDF0B5EBB01B2001F0A6FB66
:1044B0005B2001F0A3FB332001F0A0FB332001F0CF
:1044C0009DFB462001F09AFB1B2001F097FB5B202F
:1044D00001F094FB4A2001F091FBAA206946488430
:1044E000404F414800780A3805D0401E07D0401E92
:1044F000012808D90AE0202008A9087006E0042055
:1045000008A9087002E0012008A908700AA908A8F3
:10451000007802F00BF8002508A80078854232D018
:1045200001F081FB0028FBD00AA80421694346580A
:104530003800310002F0A6F801D2370009953000AA
:1045400002F0B4F802000B0028492AA8FFF75CFF2C
:1045500000200400300002F0C3F800B26946498C24
:104560004018A0420ADB2AA8FFF76AFFDB2220A13D
:104570002AAB1818FFF748FF641CEBE72AA8FFF7DF
:104580006BFF6D1CC8E701F0CEFF0100380002F0A0
:10459000FCF8060001F0B0FF040001F0C4FF0500C4
:1045A00014480088079009980690380002F07EF8B9
:1045B00004900591300002F079F8029003912000F8
:1045C00002F074F800900191280002F06FF80200E8
:1045D0000B0009492AA8FFF717FF2AA8FFF73CFF9D
:1045E0006BB0F0BD000048C33101002044BB00089F
:1045F000256300001A2500201CBA0008F8B5040045
:104600000F0015001E004D480078002801D0022040
:104610004EE0012049490870E4B220000A3803281E
:1046200026D90B3808D0C01E06D0801E04D0801EAC
:1046300002D0801E032837D8002001F0E7FF404851
:104640000068002802D03E4800688047300002F031
:10465000C7F92800C0B202F0FEFA102002F073FA87
:1046600000203649087002203649087000201FE0FB
:1046700035480068002802D0334800688047012090
:1046800001F0C4FF2000C0B201F0EDFD002002F0F7
:104690005AFA300001F0BCFE0020284908700120C1
:1046A00028490870002003E00020244908700120F8
:1046B000F2BD80B521480078002801D0022016E024
:1046C00022480068002802D0204800688047012066
:1046D0001A490870802002F036FA00201749087045
:1046E00000201B490870002016490870002002BDF8
:1046F000F8B504000D0017001E00104800780028CF
:1047000001D0022018E001200C4908703900C9B21C
:10471000200002F0C0F800200849087001200C4970
:104720000870F6B2012E06D109480078002802D0A0
:10473000FFF748FBF8E70020F2BD0000912B0020B6
:1047400020000020932B00202400002028000020BF
:10475000922B002080B5FDF7E3FD01BD7047FEE719
:1047600000B501000020084B1A001368002B08D088
:104770008B4204D11B681360401C002B01D01A002F
:10478000F3E7C0B200BD0000682B00201206130A38
:104790001A43130C1A4300BF094205D083070BD0FC
:1047A0000270401C491EF9D1704700001206130A1E
:1047B0001A43130C1A4300BF130030B41400150041
:1047C000103902D310393CC0FCD2490700D30CC0C9
:1047D00000D504C0890002D30280801C002900D5C6
:1047E000027030BC704700000022D5E70022E3E7EA
:1047F00010B50400044800F035F9002101700348A9
:1048000000F030F9046010BD580100205C01002068
:1048100010B582B0040002F060FD04222100684659
:10482000FCF7CAFF009816BD16B584B004A901AA0A
:104830000C68146005A9121D0C6814600093030035
:1048400001AA010082480EE016B584B004A901AAAD
:104850000C68146005A9121D0C6814600093030015
:1048600001AA01007B4802F053FC06B010BD80B5E0
:104870000A0001007848FFF7CBFF02BD80B50A00AF
:1048800001007648FFF7C4FF02BD00207047FBB56A
:104890009EB017001868FF25ED43002804D0C0B271
:1048A00026A9097888421BD21FA801781E98FFF715
:1048B000E5FF0090684680783978884210D16846D4
:1048C0004078797888420BD168460078B978884278
:1048D00006D120980068054026A80078281845E0F1
:1048E0005F4E3100F83101A802F083FB00240F2253
:1048F00001A901A802F0F5FD00220FA901A802F00C
:10490000F0FD1FA802781E990FA8FFF781FF009005
:10491000641C68468078397888422BD16846407894
:104920007978884226D168460078B978884221D1C2
:104930003700E03701A91831380002F05AFB0FA800
:10494000010018318C204000301802F052FBFF2289
:10495000A82040003118380002F0C3FD20980068FC
:1049600005402002281826A90978401820990860D7
:10497000012002E0642CBAD3002021B0F0BD38B58C
:10498000451C280615D1364C0F2221003831200055
:10499000383002F0A6FD00222100703120003830AE
:1049A00002F09FFDFF222100A8312000383002F0E4
:1049B00098FD280032BDBCB582B00F00284C010024
:1049C000200002F016FB002221003831200002F006
:1049D00088FD2000E0300090FF220146200002F018
:1049E00080FD002507E00F222100383120003830FB
:1049F00002F077FD6D1C380A8542F4D3002505E0EE
:104A00000F220099084602F06CFD6D1C0298000A06
:104A10008542F5D30022210070312000383002F0A9
:104A200060FD00228C2040002118009802F059FD02
:104A3000FF222100A8312000383002F052FDFF2271
:104A4000A82040002118009802F04BFDBFBD0000D7
:104A5000F8220020A0230020C0220020682300208C
:104A6000502200207047FEE7F3B58DB0140004A873
:104A70002021FFF7BBFE0026042E00DB86E0002786
:104A8000FFB2402F00DB7FE05B488021714340187C
:104A9000FFB2C05D0821FEF7F9FB0D99085C00909C
:104AA0005548802171434018FFB2C05D0821FEF7D0
:104AB000EDFB0098884080210840694688734E4885
:104AC000802171434018FFB2C0194021405C082189
:104AD000FEF7DCFB0D99085C00904748802171438C
:104AE0004018FFB2C0194021405C0821FEF7CEFB00
:104AF000009888408021084069464873FFB2781EBC
:104B00000821FEF7C3FB04A9082272438918085C38
:104B10000090FFB2781E0821FEF7B8FB009888408D
:104B200080210840694608736846807B6946497B56
:104B300041406846007B48400500FFB2380008212C
:104B4000FEF7A4FB010004A8082272438218019119
:104B50000292FFB238000821FEF798FB020004A978
:104B6000082070430818815C0091EDB2FFB2380054
:104B70000821FEF78BFB2800084100990843029AA0
:104B8000019950547F1C7BE7761C75E700200828AC
:104B90002FDAE4B2002C01D0AA2200E05522E4B2C0
:104BA000002C01D0552100E0AA2104AB1B5C1A4067
:104BB00004AB1B181B7A194011430E9A1154E4B22E
:104BC000002C01D0AA2200E05522E4B2002C01D032
:104BD000552100E0AA2104AB1B181B7C1A4004AB32
:104BE0001B181B7E194011430E9A12181172401C9B
:104BF000CDE70FB0F0BD0000E8B60008F7B588B00B
:104C00000025002003A94855002403A8401902905C
:104C10000720001B02F082FC02000B000020802114
:104C2000C90502F0BDFE06000F000298007802F0F0
:104C30007FFC009001910998425D0721081BC2404A
:104C4000D007C00F02F06AFC32003B0003F0C0F84E
:104C5000009A019B03F07EF903F056FA029908705E
:104C6000641C082CD4DB6D1C142DCADB20210A988F
:104C7000FFF7BAFD002100BF42A04A00825E9010FB
:104C8000400F8018C3100A98C4188810400F4018AD
:104C9000C510267803A8475D0720ED004D1B401B7B
:104CA000C740F807C00F0725DB00D21AAA1A9040A8
:104CB00030432070491CA029DDDB00200A99095CE3
:104CC0004B00AA221A404A409300CC21194051407F
:104CD0000A014A400A990A54401C2028EEDB0324AA
:104CE00000E0641C0898844249DA601C02F016FC5B
:104CF00002000B0000208021C90502F051FE0022B5
:104D0000FF239B0503F064F803F0FEF90500089803
:104D100002F004FC02000B0000208021C90502F013
:104D20003FFE06000F00280002F0F8FB02000B0017
:104D30003000390003F011FA0022FF239B0503F035
:104D400047F803F0E1F9009000210EE00A9EB75CFD
:104D5000BC463746D618BE5D67467E400A9FBE54A5
:104D6000521CC618B242F1DB491C00988142B8DAE5
:104D7000080068430200EB0F5B195B10F1E70BB012
:104D8000F0BD00001F002F00370039003A003B0043
:104D90003C003D003E003F004E004F0053005500D8
:104DA0005600570059005A005B005C005D005E0031
:104DB0005F00630065006600670069006A006B00C1
:104DC0006C006D006E006F00700071007200730067
:104DD0007400750076007700780079007A007B0017
:104DE0007C007D007E007F0087008B008D008E00A0
:104DF0008F009300950096009700980099009A0004
:104E00009B009C009D009E009F00A200A300A400A8
:104E1000A500A600A700A800A900AA00AB00AC004E
:104E2000AD00AE00AF00B000B100B200B300B400FE
:104E3000B500B600B700B800B900BA00BB00BC00AE
:104E4000BD00BE00BF00C100C200C300C400C50059
:104E5000C600C700C800C900CA00CB00CC00CD0006
:104E6000CE00CF00D000D100D200D300D400D500B6
:104E7000D600D700D800D900DA00DB00DC00DD0066
:104E8000DE00DF00E000E100E200E300E400E50016
:104E9000E600E700E800E900EA00EB00EC00ED00C6
:104EA000EE00EF00F000F100F200F300F400F50076
:104EB000F600F700F800F900FA00FB00FC00FD0026
:104EC000FE00FF00F1B5A4B014001F0014ADA960EE
:104ED0000020E8620AE0A868249A9047A8600028A9
:104EE00000D1CBE2E86A401CE862641C217808002B
:104EF00001D1E86AC4E22529EDD100206861A861EA
:104F0000E86128626862A86202E0010001200843AB
:104F1000641C21782029F8D023290ED02B2904D015
:104F20002D2907D030290BD00DE0010002200843C5
:104F300080B2EDE701000420F9E701000820F6E760
:104F400001001020F3E72A290FD1396839600A6877
:104F5000091D39606A63002A05D551426963010061
:104F60000420084380B2641C12E0002169630AE057
:104F70006A6B774B9A4205D093009A1852005118E9
:104F800030396963641C21780A00303A0A2AEFD369
:104F900021782E2903D00021C94329631EE0641C17
:104FA00021782A2907D1396839600A68091D3960D2
:104FB0002A63641C12E0002129630AE02A6B644B17
:104FC0009A4205D093009A1852005118303929633B
:104FD000641C21780A00303A0A2AEFD32887267801
:104FE00031005A487844FF30653003F017F9002843
:104FF00001D0641C00E000263A202E54285C68286A
:1050000004D12178682901D1622005E06C2806D1FD
:1050100020786C2803D171203A216854641C05A8BB
:1050200028612678641C3000253824D020380228D6
:1050300000D8D4E0133800D1F6E00B3800D15DE1A0
:10504000401E00D137E1401E022800D8C7E0001FF3
:1050500000D130E1401F00D193E0401E00D1E3E0D9
:10506000401E27D0C01E0BD0801E00D1DCE0C01E29
:1050700000D1D9E04CE1252069460875012051E1B5
:10508000386838600168001D3860E9602E6B002EBA
:1050900003D50846FFF7D4F90AE032000021E8689A
:1050A00003F0C6F8002802D0E968401A00E030009A
:1050B000A86138E1386838600268001D3860002057
:1050C000C0430021104014AA03C205A8E860286963
:1050D00000903C2214A803C802AB03C302A803C873
:1050E000002904D1002802D1286B00281DD0521EAF
:1050F00002A803C80007000F3030C0B23A2800DB16
:1051000027300099885402A803C800090B071843E8
:10511000090902AB03C302A803C801D1002804D0C7
:10512000E868009989188842E1D33C20801AA86178
:1051300000998918E960296B88420DDA081A2862FB
:10514000288F044901402987EDE000BF086A00006C
:10515000FFFFFF7FEFFF0000002900D4E3E03821CC
:10516000695C14220A40102A00D0DCE0696B6A698D
:10517000891A2A6A891A0A1A012A00DAD3E02A62ED
:10518000D1E03A20285C622819D0682806D06A2825
:105190000CD06C281BD0712808D018E03868386013
:1051A0000168001D3860E86A0880BCE03868386033
:1051B0000268001D3860E86AC11703C2B3E03868AE
:1051C00038600168001D3860E86A0870ABE0386834
:1051D00038600168001D3860E86A0860A3E03A683A
:1051E000D21D072082433A6003CA3A6014AA03C260
:1051F000002902D568692D2109E0288F810702D591
:1052000068692B2103E0C00705D56869202105AA3C
:105210001154401C686105A869694018E8603100B4
:1052200014A800F0F9F97EE03A20285C6C280BD035
:10523000712801D06A2807D13A68D21D072082431D
:105240003A6003CA3A6005E0396839600868091DA8
:105250003960002114AA03C23A20285C682803D1CF
:1052600014A803C880B20BE0622803D114A803C8B5
:10527000C0B205E0742801D07A2804D114A803C86C
:10528000002114AA03C23820285C00072DD514A8D9
:1052900003C8002901D1002827D0202030437828D6
:1052A00023D16869302105AA1154401C411C696151
:1052B00005A90E5419E039003A20285C00F0E2F804
:1052C00014AA03C2002902DA68692D2109E0288F97
:1052D000810702D568692B2103E0C00705D56869FD
:1052E000202105AA1154401C686105A8696940186D
:1052F000E860310014A800F0F9F814E001206861BA
:10530000386838600168001D3860684601750AE039
:1053100025206946087501206861300003D005A882
:10532000467002206861686B6969401A296A401AF0
:10533000A969401A696A401AE969401AA96A401ABB
:1053400004903820285C400711D420206946087159
:10535000049801280BDB049E012301AA14A92498B8
:1053600000F031FC002800D088E0761EF4D1686996
:1053700005AE00280FD000903178A868249A904795
:10538000A86000287AD0E86A401CE862761C009881
:10539000401E0090F0D13020694608712E6A012E1F
:1053A00009DB012301AA14A9249800F00CFC0028B1
:1053B00064D1761EF5D1EE68A86900280FD0009060
:1053C0003178A868249A9047A860002856D0E86AE7
:1053D000401CE862761C0098401E0090F0D13020FE
:1053E000694608716E6A012E09DB012301AA14A91E
:1053F000249800F0E8FB002840D1761EF5D1E8683B
:10540000A9694618E86900280FD000903178A8688B
:10541000249A9047A860002830D0E86A401CE862CF
:10542000761C0098401E0090F0D13020694608712B
:10543000AE6A012E09DB012301AA14A9249800F009
:10544000C2FB00281AD1761EF5D13820285C40070F
:1054500000D44BE52020694608710498012800DA41
:1054600044E5049E012301AA14A9249800F0ABFB93
:10547000002803D1761E00D138E5F3E70020C043B1
:1054800025B0F0BD0A00622822D0682819D06A2809
:1054900008D06C2823D0712804D074281FD07A2813
:1054A00008D01CE01368DB1D07208343136003CB87
:1054B00013607047116811600868091D11600021B0
:1054C0007047116811600868091D116000B20BE097
:1054D000116811600868091D116040B204E011688C
:1054E00011600868091D1160C1177047F3B583B0DA
:1054F000006900906846027C6F2A01D1082406E00A
:1055000020211143782901D00A2400E010243C25F1
:10551000039803C806000F00642A01D0692A07D146
:10552000002905DA00200021801BB94106000F0088
:10553000002F10D1002E0ED10398006B00280AD145
:10554000082C3AD103983821405C000735D53B251B
:105550003020009930E06D1E0195300039002200A6
:10556000E31702F071FE3032D2B23A2A03DB68460A
:10557000007C513812180098425530003900220042
:10558000E31702F061FE06000F0001D1002E05D0E6
:105590000398C068009949198842DCD3082C0CD1C3
:1055A00003983821405C000707D50098405D3028FB
:1055B00003D06D1E3020009948553C20401B0399B4
:1055C000886100994919039AD1600399096B88424F
:1055D00009DA081A039908620398008FBA49014052
:1055E0000398018715E0002913D503993822895CB7
:1055F00014220A40102A0CD10399496B039A52696C
:10560000891A039A126A891A0D1A012D01DB03986F
:10561000056205B0F0BD0000F3B591B006AA03C85D
:1056200002AB03C31198006B002801D5062007E0E8
:1056300008D112A8007820210143672902D1012056
:1056400011990863119840684100490D9F4B994298
:1056500023D100030FD11198006800280BD103203B
:105660001199886112A8007861381A2864D300BFA4
:105670009FA000900AE003201199886112A8007889
:1056800061381A2856D300BF9AA0009003220099CF
:105690001198C068FCF790F814E1012947DB8C4AA7
:1056A00002408C481043119A50608B48091A09B285
:1056B0008A4848438A49FDF7E9FD040002A803C867
:1056C0000022002302F0F5FD06D202A803C88022C2
:1056D0001206514002AA03C268468480072001993D
:1056E00009B2421A00207F49012A27DB009202AA50
:1056F00030CA00260F000098C00707D532003B00D3
:105700002000290002F064FB04000D000098401006
:1057100000903000390032003B0002F059FB0600D7
:105720000F0000980028E6D102A830C027E0002032
:105730000023BCE070A0A8E770A09AE754420026BE
:10574000694F10E0E00707D504A803C832003B000A
:1057500002F03EFB06000F00641004A803C804AA70
:105760000CCA02F035FB04AA03C2002CEAD102A83D
:1057700003C832003B0002F0F0FC02AA03C212A8E8
:105780000078202101430491662903D1019800B2D9
:105790000A3000E006201199096B081800901428BF
:1057A00001DB1320009030206946087606A8441CCF
:1057B0000098012839DB02A803C802F0B7FC059065
:1057C00006460834042530000A21FDF762FD0F006B
:1057D00030000A21FDF75DFD06003037601E0770BE
:1057E00030000A21FDF755FD0F0030000A21FDF7BA
:1057F00050FD0600A41E303727706D1EE3D108341B
:105800000098083800900128D2DB059801F090FE3E
:1058100002000B0002A803C802F0FFFB0022334B7A
:1058200002F0D6FA02AA03C2C5E706A8401C201A55
:1058300006A94A1C6B4605E0401E019909B2491EA3
:105840009980521C11783029F6D00499662903D129
:10585000019909B2491C04E0652901D1012100E048
:105860000021119B1B6B5B181BB2984200DA0300EE
:105870001BB219001DD4814204DA505C352801DBCB
:10588000392000E03020541800E05B1E641E491EE1
:1058900025788542F9D0392802D1505C401C5054FB
:1058A000002906D5521E5B1C019800B2401C6946B7
:1058B0008880019800B200901BB212A8017811985C
:1058C00000F01EF813B0F0BDEFFF0000FF0700006E
:1058D000FFFF0F800000E03FFE030000977500000F
:1058E000A0860100000024400000F03F84D79741CB
:1058F000494E46004E414E006E616E00696E660074
:10590000F3B587B015001C0002F005FD0090406A59
:105910000078694608710798076B012C01DA0124A9
:10592000B5A508A80178202008430E9E662801D15D
:10593000761C17E0672800D0B2E00321C9438E42ED
:1059400000DA99E0BE4200DB96E0761C0798382129
:10595000405C000702D4BC4200DA270036B2BF1B0D
:1059600000D50027079880690799C9680918009130
:1059700036B2012E2EDA401C3021009A1170012F10
:1059800004DA07993822895C090705D5694609793F
:10599000079AD2681154401C079988617042874267
:1059A00000DA7E4236B2704207994862BF19A742B8
:1059B00000DA3C0024B20798C4612200290007984D
:1059C000C068079B9B69C018FBF7F6FE381B079958
:1059D0008862DAE0B44220DA220029000098FBF75E
:1059E000EBFE079989690919079A9161301B079A9B
:1059F0005062012F04DA07983822805C000709D52D
:105A000068460079079AD26850540798C069401CCC
:105A10000799C86107988762B7E0320029000098AB
:105A2000FBF7CAFE079880698019A41B012F04DACE
:105A300007993822895C090705D569460979079ACB
:105A4000D2681154401C0799886124B2A74200DA39
:105A50003C0024B22200A9190798C068079B9B69E3
:105A6000C018FBF7A9FE079880690019079988619B
:105A7000381B0799486288E0BC4205DA079938224A
:105A8000895C090700D427007F1E00D5002708A8DD
:105A90000078672801D1652000E0452008A908703A
:105AA00007988069411C079A91612978079AD26802
:105AB0001154681C0090012F04DA07983821405CCB
:105AC000000720D507988169481C079A90616A46AB
:105AD0001279079BDB685A54012F14DB641E24B231
