:020000040800F2
:10000000A00A002039B00108B1AF0108B3AF010860
:1000100000000000000000000000000000000000E0
:10002000000000000000000000000000B5AF010863
:100030000000000000000000B7AF0108B9AF0108E0
:10004000EF5E01089B6101081762010857790108FA
:1000500043890108C5AF0108679101086B91010848
:100060000000000023980108DB9A0108D3AF0108C3
:100070002BB001082192010837B0010855B00108E2
:1000800057B0010859B001085BB00108000000003A
:100090005DB001085FB0010861B0010863B00108FC
:1000A00065B0010867B0010869B001086BB00108CC
:1000B0006DB001086FB001080000000000000000F2
:020000040801F1
:10000000B94A092818D801A31B5C9F4408080C10A2
:1000100014181C202428D163704711647047D162E2
:1000200070475164704791647047D164704711659F
:1000300070475165704791657047F1B584B00D0008
:100040000020009068460572402408F060F9241AE8
:10005000E4B2A6488679AE4203D30079C01C84423C
:1000600049DB2800310008F0C9FFC01C844242DB94
:10007000B54228D2681CC0B208F098F804003AD003
:1000800060798021014361716806400E8038A0715B
:100090002A000499E01D06F0BFF802202070934862
:1000A000C078607090484068C106C90E401C8E4AF6
:1000B00050606079E0220240114361718B48C07842
:1000C000002862D18DE00027884880790326EAB2B3
:1000D000904207D20099002900D10327C01BC0B26B
:1000E000019001E0EDB201950198C019C0B208F08D
:1000F0005DF8040001D1042076E00098002800D1CA
:100100000026019A0499794B9B795843801B091862
:10011000E019801D06F080F8022020707348C07836
:10012000607071484168C806C00E491C6E4A516033
:100130006179E0220A401043607120260199EDB2F6
:10014000A94213DA30436071009900290ED1802151
:10015000014361710220A0716846007A401CE07181
:100160006846017A049808F0F9FA207201982D1A6D
:100170000098401CC0B2009028061AD100980128AF
:1001800017D15A48C07800282BD0574840685749A3
:10019000097908F036FF002903D055480078401C43
:1001A00019E0607940210143617151480078401C99
:1001B0000FE06079064366714C48C07800280DD086
:1001C00028060BD1402030436071009848490978D7
:1001D0004018E07000204649087002E0280600D070
:1001E00071E700F00EFD002005B0F0BDF0B585B060
:1001F00026E06846008806F041FF0190002826D0DE
:100200006079C10925D0A1790A0622D54806400E99
:100210006946088068460288E11D019805F0FCFFE8
:1002200032480079022802DA200008F05EF86846B9
:10023000018801982C4AD26A9047019807F09AF8F1
:10024000694600A8801C08F03FF90400D1D105B030
:10025000F0BD03906846058800240DE00B21017075
:1002600022490979022905DA69468978012901D1EB
:1002700008F03BF8641CE4B2684680788442D6D02B
:100280000027002C22D1022820DB0626022700208E
:100290001849039A1219D206520E89180291F6B221
:1002A00032000968C919891D019B104FBF79674346
:1002B000DB19181805F0B0FFAD1BADB2029800684D
:1002C00041798909C907C9D51521C8E70748817946
:1002D0008D4202DA280008F091FE0E00002CD6D0E4
:1002E0000120C043D4E70000E0000020941D00205E
:1002F000F01E0020801C0020FEB50700A5480078F5
:10030000032805D0386A09F0F1FE002800D1E0E1A9
:10031000A14D01206870A1480078000724D4B88C52
:10032000801EB88408F0E9FA00280DD008F0D7FA4A
:10033000002809D0386AC178CA06D20EB98C0839AB
:10034000C9B2001D09F0B2FFCE4AB98C083989B292
:10035000386A001D08F0D4F9396ABA8C8918091F67
:100360000988814200D0B4E1C74CA068401CA0605D
:10037000607F401CC549874A9278895CC3B2994224
:1003800000D2080060772220205E0821795E814239
:1003900001DA002000E0081A694608716846007911
:1003A00028703889E082207C410008186946097964
:1003B00040188010207477480078032800D186E127
:1003C000386AC01C00902000783005F06BFD0020DA
:1003D000E077A06A0178142901D1217F01700025FE
:1003E000012600990978CA0911D0009A52786B4603
:1003F0005A716A465279120600D5D1E06A4652799E
:10040000002A0BD0032A4ED0042A5BD0052A00D143
:10041000C6E0062A59D0092A79D081E00278102A4C
:10042000FBD1C906C90E4079C006C00E814277D102
:100430002000603005F036FDA577A06AC17800295C
:1004400004D1618A491C618208210170607C4100ED
:100450000818009989794018801060740098007A13
:100460009C490870810602D5C021014301E0810644
:10047000890E0F020098C0790743380406D000F0B7
:10048000EBFAA06B3FB2C01900F0FCFA2802009909
:10049000891949784518761C052EF7DB2900A06AD2
:1004A00008F0B0F83CE00078102839D12000603026
:1004B00005F0F8FCA5770820A16A0870608A401C46
:1004C00060822DE008F065F82AE00098801C07F0B3
:1004D00039FC002824D0082007F068FE05001FD052
:1004E0000620A87107220098811CE81D05F094FEE3
:1004F00000980078C006C00E6979E0220A401043D7
:1005000068718021014369711320287008E004227A
:100510000098811C02A805F07FFE029800F0B2FA54
:10052000009800788009C00733D5002007F034FF19
:1005300000282ED1082007F039FE002829D00321F9
:10054000817100994978C1710021017241728172F3
:1005500069460979C172618C6A3901735E4909780B
:100560005E4A127889185E4A12789206920E8918AD
:10057000417300990978C906C90E4279E0231340F6
:100580001943417180220A434271002141701321B5
:1005900001705AE0941D0020EC1E0020BB1D0020BD
:1005A000B88CC11FC9B2009807F078FF002810D19D
:1005B000B98C0839C9B20098007807F027FE050009
:1005C00077D0B88CC21F0099681D05F025FE072062
:1005D0002870009800788009C00736D5002007F001
:1005E000DBFE002831D1082007F0E0FD05002CD00B
:1005F00007F030FF0021A971010EE971010C297289
:10060000010A6972A87268460079E872608C6A38DB
:100610002873314800783149097840183049097801
:100620008906890E401868736879E0210140207BB3
:10063000C006C00E08436871802101436971002023
:1006400068701320287000F0DCFAFFF7CFFDA06A75
:100650000178009A127860231340202B18D121775B
:10066000142101700948A749897889004018436816
:100670000122A5492000783005F04CFD0120E077EB
:100680000AE000BFFFFF0000E00000200C0D0108A1
:10069000142901D1217F0170009800788009C007DA
:1006A00001D407F09DF907F0D7FD002802D000F033
:1006B000A8FAF7BD93480078012808D1202160549A
:1006C000A94B0122A94920006C3005F023FD09F057
:1006D0009EFDF7BD9C0100209A0100209901002099
:1006E000B61D0020F1B582B0A14EA24CA248007800
:1006F000002800D0ABE00125A06A0078102802D0C5
:1007000014281FD02FE0A07F00281AD10AF0C6FAC3
:100710009A497C4A927892008918984A794B5B787A
:100720009B00D2182C3A12684B68D718496908F018
:1007300068FC7B18012292492000603005F0EAFC39
:10074000A5778CE0E07F0028FBD18C486D49897843
:1007500089004018436801226B492000783005F079
:10076000D9FCE5777BE007F077FD07006CD078785F
:1007700000282ED06348007803282AD07979890987
:10078000294224D0002824D0022800D023D21020CF
:1007900038700AF083FA79495A4A92789200891897
:1007A000764A584B5B789B00D2182C3A12684B68FB
:1007B000D2180092496908F024FC009A53180122CB
:1007C0006F492000603005F0A5FCA57703E0062006
:1007D00000E005203870A7627879010609D5400647
:1007E00007D407F039FD002803D078792021014390
:1007F00079717879C0090FD0B87908280CD100F048
:100800002BF9A06B01907879802101437971042242
:1008100001A9F81D05F000FD2020205C002806D06D
:1008200000202021605420006C3005F03BFB380094
:1008300009F07EFC3878052811D1380007F03DFD1D
:1008400030000830A0620AE009F0E1FC07E0012076
:10085000216D8847616B884200D9080060638F4D25
:100860002878012833D131780A2922DB0220305E32
:1008700008F0C4FB0021718031700422B25E01B225
:10088000914200DD1100B180617F491E6177090648
:100890001DD10421715E9522D243914200D00800FF
:1008A00060840020B080354816498978405C6077C4
:1008B0000DE0402003F063F9718840B208187849D0
:1008C00000228956401A70803078401C30700D48E4
:1008D000007802280EDA07F0BFFC00280AD126486B
:1008E0000078002806D109F092FC2878002801D170
:1008F0006C4B00E0322301220021029805F00AFC33
:10090000F7BD0000941D00202F0A010838B501250D
:10091000184CA06A40798009284206D107F09CFC57
:10092000002802D000F06DF931BDA06A407980093D
:1009300028420DD15C480078012809D12020255497
:100940005A4B0122094920006C3005F0E3FB01E01D
:1009500007F046F809F05BFC31BD80B50020AD49D9
:10096000087009F054FC01BDB80B00005B090108D8
:1009700070010020E0000020DC0100200C0D0108C7
:1009800085090108F8B5484CA71CA3490978002936
:1009900009D0A2493A78920089184B680122A049EF
:1009A00005F0B8FBF1BD9F4D2800603005F07AFAE4
:1009B0000026AE77A86A0078102837D1A88A401C94
:1009C000A882012007F038F9A86A8178491C817053
:1009D000A86AFA78C9B28A4224D209210170417901
:1009E000C90907D08179062904D107F0C0FC07F0B6
:1009F0000BFB19E002212722A25C0A4214D18A4A89
:100A00001278B34B1B78134302D107F0B0FC02E01D
:100A10008670A86A017007F021FB0021002007F012
:100A20003AF901E00321017000F0EBF8F1BD10B5D7
:100A3000A84C2000783005F035FA0020E077A06A55
:100A40000178142901D1217F017007F005FC0028ED
:100A500001D000F0D6F810BD10B5724C606D0100E9
:100A600002D08047A06310BD9B480068800AE16DFA
:100A7000884201D3411A00E0091AA26B5118A16300
:100A8000E06510BD10B50400FFF7E6FF91488463F0
:100A9000816D0A0001D02046884710BDDD0100208D
:100AA0000600002010270000941D0020204E0000AA
:100AB000F8B5FFF7D1FF894E5A4CA08C002805D11C
:100AC0000AF0ECF8B18C08F099FAA1842000843087
:100AD00083493278022A01DA824B01E0FA239B0033
:100AE000012205F017FBA08C401CA08431002631A8
:100AF000009180B2B18C491C88424BDB0127A7844E
:100B00000098007801007BD0FF2802D0401E009999
:100B10000870012007F040FC002871D1082007F080
:100B200045FB05006CD0AF710020E871606B962129
:100B30004900884201D3802102E0642108F061FA73
:100B4000297200206063216D88476872207CA8723A
:100B5000607CE872608C6A3828732220305C68738D
:100B60006168C806C00E491C61606979E0220A40CC
:100B7000104368718021014369713078002807D0E3
:100B8000F078002800D06F70084640210143697159
:100B90000220287000984078400719D4206B3178E3
:100BA000022901DA3C3000E0401C2063206B4E49F2
:100BB000096988420CD300202063082107F06BF8F4
:100BC0000921002007F067F80A21002007F063F8E8
:100BD00000984078C00613D53078022810DAE08CEF
:100BE000411CE1841E2108F009FA002908D13F4880
:100BF0000078002804D100230022332009F062FD90
:100C0000F1BD80B50523012239493A4805F082FA41
:100C100001BD000000010020DC0100200C0D0108D6
:100C200085090108E00000209501002038B532490F
:100C3000092002F0BDFE07F011FA002000212F4A22
:100C40008B00D050491C4029FADB00212C4A8B0034
:100C5000D050491C2029FADB0AF020F81D4C22490B
:100C60000969284A8D189621890008F0C7F9681A81
:100C700020631A48C36A222142562021415C4078F1
:100C800009F020FD09F0C3FA002006F0FBFFFFF792
:100C9000B8FF0120216D8847FA239B0001221049EB
:100CA0002000843005F036FA002032BD80B50F48B0
:100CB0000078002809D114480078002805D107F0F1
:100CC00026FB401E8041C00F02BD002002BD000077
:100CD00096010020E0000020581D0020941D0020F7
:100CE000B10A010860EA000080010020DC01002058
:100CF000E5060108C41E002009A60108801B00208B
:100D0000801C0020D4FEFFFFDD0100201408050533
:100D1000409C0000409C0000409C0000409C000063
:100D2000204E0000204E0000204E0000204E00000B
:100D30003075000030750000307500008813000029
:100D40008813000088130000E8030000E803000097
:080D5000F4010000F4010000B1
:10100000F8B5FF273F1D7E1E741E651E114800782F
:10101000002808D001280DD0022813D0032815D0AD
:10102000152819D0162801D100F0B0FE182800D1DB
:1010300060E2192801D101F007F91A2801D100F066
:1010400049FC1B2801D101F053FB1D2801D101F0FF
:101050008BFDF1BDDE0100200421102002F060FDB7
:101060000321112002F05CFD0621122002F058FD40
:101070000121262002F054FD01216E2002F050FDD6
:101080000121280002F04CFDFC21200002F048FD67
:101090007F21300002F044FD0021380002F040FDC5
:1010A0007F21E01C02F03CFDF321F01C02F038FD32
:1010B0000021F81C02F034FD0021FF20083002F06E
:1010C0002FFD00218420400002F02AFD8021FF2016
:1010D0000A3002F025FD00218520400002F020FDAD
:1010E0000021FF200C3002F01BFD0021FF201630F4
:1010F00002F016FDF421FF20183002F011FDE92165
:101100009020400002F00CFD8421FF20223002F0EC
:1011100007FDF9219220400002F002FD8421FF200A
:10112000263002F0FDFC03219320400002F0F8FC81
:101130004621FF20283002F0F3FC0A2194204000D1
:1011400002F0EEFC1F21FF202A3002F0E9FC1F21F3
:101150009520400002F0E4FC0621FF202C3002F034
:10116000DFFC00219620400002F0DAFC0021FF2085
:101170002E3002F0D5FC0021FF20303002F0D0FCF0
:10118000E9219820400002F0CBFC8421FF2032307E
:1011900002F0C6FC00219920400002F0C1FC0021B1
:1011A000FF20343002F0BCFCF7219A20400002F00E
:1011B000B7FC8321FF20363002F0B2FC03219B20D4
:1011C000400002F0ADFC4621FF20383002F0A8FCC0
:1011D0000A219C20400002F0A3FC1F21FF203A308E
:1011E00002F09EFC1F219D20400002F099FC062188
:1011F000FF203C3002F094FC00219E20400002F0D1
:101200008FFC0021FF203E3002F08AFC16219F2037
:10121000400002F085FC0021FF20403002F080FCFD
:10122000FF21A820400002F07BFC8421FF205230E7
:1012300002F076FC0021A920400002F071FC0021A0
:10124000FF20543002F06CFCF621AA20400002F08E
:1012500067FC8221FF20563002F062FC0321AB20A4
:10126000400002F05DFC4621FF20583002F058FC9F
:101270000A21AC20400002F053FC1F21FF205A300D
:1012800002F04EFC1F21AD20400002F049FC062177
:10129000FF205C3002F044FC0021AE20400002F050
:1012A0003FFC0021FF205E3002F03AFC1621AF2007
:1012B000400002F035FC0021FF20603002F030FCDD
:1012C0000021FF20623002F02BFC0021B120400001
:1012D00002F026FC0021FF20643002F021FC0621F0
:1012E000B220400002F01CFC0021FF20663002F01A
:1012F00017FC0021B320400002F012FC8121FF20E6
:10130000683002F00DFC0F21B520400002F008FC0F
:10131000FF21FF206C3002F003FC9921C020400027
:1013200002F0FEFB0421FF20843002F0F9FB0F21C4
:10133000C420400002F0F4FB7721FF208A3002F045
:10134000EFFB8021880002F0EBFB00214F4802F008
:10135000E7FB8821600002F0E3FBC8214C4802F063
:10136000DFFBFF218420800002F0DAFB00214948E6
:1013700002F0D6FB0021484802F0D2FB002147488A
:1013800002F0CEFB07218520800002F0C9FB072177
:10139000434802F0C5FBFF218620800002F0C0FB1D
:1013A000FF21404802F0BCFB0A218720800002F0A8
:1013B000B7FB0A213C4802F0B3FB3E2188208000A5
:1013C00002F0AEFB3121394802F0AAFB3E21384839
:1013D00002F0A6FB31218920800002F0A1FB002150
:1013E000344802F09DFB7F21334802F099FB032132
:1013F0008A20800002F094FB1221304802F090FB1A
:10140000CB212F4802F08CFB00212E4802F088FBF4
:101410000D218C20800002F083FB20212A4802F05D
:101420007FFB0021294802F07BFB0021CC208000BB
:1014300002F076FB0021264802F072FB03212548CA
:1014400002F06EFB0421F120000102F069FB002193
:10145000214802F065FB0721204802F061FB68216A
:101460001F4802F05DFBFF211E4802F059FB84215A
:101470001D4802F055FB98211C4802F051FB082141
:101480001B4802F04DFB122100F03CFC0102000061
:10149000030200001102000012020000130200000B
:1014A00016020000190200001E02000021020000C6
:1014B0002302000025020000260200002A0200008C
:1014C0002D0200002F020000330200003103000053
:1014D000320300000D0F0000110F00001C0F000070
:1014E000210F0000220F0000230F0000260F000034
:1014F000340F00000421102002F012FB0321112000
:1015000002F00EFB0621122002F00AFB0121262028
:1015100002F006FB01216E2002F002FB00212800F0
:1015200002F0FEFAFC21200002F0FAFA66213000F7
:1015300002F0F6FA0021380002F0F2FA2721E01C4E
:1015400002F0EEFAD421F01C02F0EAFA0021F81CB5
:1015500002F0E6FA0021FF20083002F0E1FA002153
:101560008420400002F0DCFA8021FF200A3002F0E3
:10157000D7FA00218520400002F0D2FA0021FF2096
:101580000C3002F0CDFA0021FF20163002F0C8FA2C
:10159000F421FF20183002F0C3FAD7219020400038
:1015A00002F0BEFA8421FF20223002F0B9FA98211D
:1015B0009220400002F0B4FAA221FF20263002F06F
:1015C000AFFAC3219320400002F0AAFA4621FF207F
:1015D000283002F0A5FA0A219420400002F0A0FA77
:1015E0001F21FF202A3002F09BFA1F219520400086
:1015F00002F096FA0621FF202C3002F091FA002129
:101600009620400002F08CFA0021FF202E3002F0DC
:1016100087FA0021FF20303002F082FAD72198208B
:10162000400002F07DFA8421FF20323002F078FA87
:1016300000219920400002F073FA0021FF2034308D
:1016400002F06EFA96219A20400002F069FAA12178
:10165000FF20363002F064FAC3219B20400002F0E4
:101660005FFA4621FF20383002F05AFA0A219C2006
:10167000400002F055FA1F21FF203A3002F050FAE4
:101680001F219D20400002F04BFA0621FF203C3034
:1016900002F046FA00219E20400002F041FA0021AB
:1016A000FF203E3002F03CFA16219F20400002F05D
:1016B00037FA0021FF20403002F032FAFF21A82043
:1016C000400002F02DFA8421FF20523002F028FA67
:1016D0000021A920400002F023FA0021FF2054300D
:1016E00002F01EFA9521AA20400002F019FAA0216A
:1016F000FF20563002F014FAC321AB20400002F064
:101700000FFA4621FF20583002F00AFA0A21AC20D5
:10171000400002F005FA1F21FF205A3002F000FAC3
:101720001F21AD20400002F0FBF90621FF205C30B4
:1017300002F0F6F90021AE20400002F0F1F900219C
:10174000FF205E3002F0ECF91621AF20400002F0DD
:10175000E7F90021FF20603002F0E2F90021FF20CC
:10176000623002F0DDF90021B120400002F0D8F92A
:101770000021FF20643002F0D3F90621B22040009E
:1017800002F0CEF90021FF20663002F0C9F90421F1
:10179000B320400002F0C4F90821FF20683002F0B5
:1017A000BFF90F21B520400002F0BAF9FF21FF2058
:1017B0006C3002F0B5F99921C020400002F0B0F978
:1017C0000421FF20843002F0ABF90F21C420400037
:1017D00002F0A6F97721FF208A3002F0A1F98021DA
:1017E000880002F09DF900212D4802F099F9882126
:1017F000600002F095F9FE212A4802F091F9FF21DC
:101800008420800002F08CF90021274802F088F93A
:101810000021264802F084F90021254802F080F9D1
:1018200007218520800002F07BF90721214802F082
:1018300077F9FF218620800002F072F9FF211E480F
:1018400002F06EF90A218720800002F069F90A216E
:101850001A4802F065F93E218820800002F060F904
:101860003121174802F05CF93E21164802F058F980
:1018700031218920800002F053F90021124802F042
:101880004FF97F21114802F04BF903218A20800093
:1018900002F046F912210E4802F042F9DD21EEE194
:1018A0000102000003020000110200001202000009
:1018B0001302000016020000190200001E020000C0
:1018C0002102000023020000250200002602000081
:1018D0002A0200000421102002F022F90321112025
:1018E00002F01EF90621122002F01AF90121262029
:1018F00002F016F901216E2002F012F903212800EE
:1019000002F00EF95C21200002F00AF90C213000EF
:1019100002F006F90021380002F002F92A21E01C49
:1019200002F0FEF85121F01C02F0FAF80021F81C38
:1019300002F0F6F80021FF20083002F0F1F8002153
:101940008420400002F0ECF88021FF200A3002F0F1
:10195000E7F800218520400002F0E2F80021FF2096
:101960000C3002F0DDF80021FF20163002F0D8F82C
:10197000F421FF20183002F0D3F8A4219020400079
:1019800002F0CEF88421FF20223002F0C9F8A8210D
:101990009220400002F0C4F8A221FF20263002F07D
:1019A000BFF8C3219320400002F0BAF84621FF207F
:1019B000283002F0B5F80A219420400002F0B0F877
:1019C0001F21FF202A3002F0ABF81F219520400094
:1019D00002F0A6F80621FF202C3002F0A1F8002129
:1019E0009620400002F09CF80021FF202E3002F0EB
:1019F00097F80021FF20303002F092F8A4219820BF
:101A0000400002F08DF88421FF20323002F088F887
:101A100000219920400002F083F80021FF2034309B
:101A200002F07EF8A6219A20400002F079F8A12168
:101A3000FF20363002F074F8C3219B20400002F0F2
:101A40006FF84621FF20383002F06AF80A219C2006
:101A5000400002F065F81F21FF203A3002F060F8E4
:101A60001F219D20400002F05BF80621FF203C3042
:101A700002F056F800219E20400002F051F80021AB
:101A8000FF203E3002F04CF816219F20400002F06B
:101A900047F80021FF20403002F042F8FF21A82043
:101AA000400002F03DF88421FF20523002F038F867
:101AB0000021A920400002F033F80021FF2054301B
:101AC00002F02EF8A521AA20400002F029F8A0215A
:101AD000FF20563002F024F8C321AB20400002F072
:101AE0001FF84621FF20583002F01AF80A21AC20D6
:101AF000400002F015F81F21FF205A3002F010F8C4
:101B00001F21AD20400002F00BF80621FF205C30C1
:101B100002F006F80021AE20400002F001F800219A
:101B2000FF205E3001F0FCFF1621AF20400001F0E5
:101B3000F7FF0021FF20603001F0F2FF0021FF20BD
:101B4000623001F0EDFF0021B120400001F0E8FF1C
:101B50000021FF20643001F0E3FF0521B2204000A6
:101B600001F0DEFF0021FF20663001F0D9FF2021C7
:101B7000B320400001F0D4FF4421FF20683001F081
:101B8000CFFF0F21B520400001F0CAFFFF21FF2049
:101B90006C3001F0C5FF9921C020400001F0C0FF6A
:101BA0000421FF20843001F0BBFF0F21C42040003E
:101BB00001F0B6FF7721FF208A3001F0B1FF8021CC
:101BC000880001F0ADFF0021534801F0A9FF8821F2
:101BD000600001F0A5FFC821504801F0A1FFFF21DE
:101BE0008420800001F09CFF00214D4801F098FF07
:101BF00000214C4801F094FF00214B4801F090FF78
:101C000007218520800001F08BFF0721474801F064
:101C100087FFFF218620800001F082FFFF214448DA
:101C200001F07EFF0A218720800001F079FF0A2160
:101C3000404801F075FF3E218820800001F070FFD0
:101C400031213D4801F06CFF3E213C4801F068FF26
:101C500031218920800001F063FF0021384801F024
:101C60005FFF7F21374801F05BFF03218A2080005E
:101C700001F056FF1221344801F052FFE3213348AE
:101C800001F04EFF0021324801F04AFF0D218C2067
:101C9000800001F045FF20212E4801F041FF002186
:101CA0002D4801F03DFF0021CC20800001F038FFDD
:101CB00000212A4801F034FF0321294801F030FFB8
:101CC0000421F120000101F02BFF0021254801F043
:101CD00027FF0721244801F023FF6821234801F052
:101CE0001FFFFF21224801F01BFF8421214801F042
:101CF00017FF9821204801F013FF08211F4801F029
:101D00000FFF11211E4801F00BFF25211D4801F096
:101D100007FFE1211C485AE2010200000302000013
:101D2000110200001202000013020000160200005F
:101D3000190200001E020000210200002302000020
:101D400025020000260200002A0200002D020000E9
:101D50002F020000330200003103000032030000B4
:101D60000D0F0000110F00001C0F0000210F0000DC
:101D7000220F0000230F0000260F0000340F000088
:101D8000350F0000440F00005F0F000004211020F9
:101D900001F0C6FE0021112001F0C2FE64211220D4
:101DA00001F0BEFE3321182001F0BAFE01212620E9
:101DB00001F0B6FE01216E2001F0B2FE01212800E3
:101DC00001F0AEFEF821200001F0AAFE7F213000D4
:101DD00001F0A6FE0021380001F0A2FE7F21E01CE8
:101DE00001F09EFEF321F01C01F09AFE0021F81C88
:101DF00001F096FE0021FF20083001F091FE002145
:101E00008420400001F08CFE8021FF200A3001F088
:101E100087FE00218520400001F082FE0021FF2086
:101E20000C3001F07DFE0021FF20163001F078FE1D
:101E3000F421FF20183001F073FEE92190204000CA
:101E400001F06EFE8421FF20223001F069FEF921AD
:101E50009220400001F064FE8421FF20263001F032
:101E60005FFE03219320400001F05AFE4621FF202F
:101E7000283001F055FE0A219420400001F050FE68
:101E80001F21FF202A3001F04BFE1F21952040002A
:101E900001F046FE0621FF202C3001F041FE00211A
:101EA0009620400001F03CFE0021FF202E3001F082
:101EB00037FE0021FF20303001F032FEE92198206A
:101EC000400001F02DFE8421FF20323001F028FE79
:101ED00000219920400001F023FE0021FF20343032
:101EE00001F01EFEF7219A20400001F019FE832127
:101EF000FF20363001F014FE03219B20400001F04A
:101F00000FFE4621FF20383001F00AFE0A219C20F6
:101F1000400001F005FE1F21FF203A3001F000FED5
:101F20001F219D20400001F0FBFD0621FF203C30D9
:101F300001F0F6FD00219E20400001F0F1FD00219E
:101F4000FF203E3001F0ECFD16219F20400001F003
:101F5000E7FD0021FF20403001F0E2FDFF21A82035
:101F6000400001F0DDFD8421FF20523001F0D8FD5A
:101F70000021A920400001F0D3FD0021FF205430B2
:101F800001F0CEFDF621AA20400001F0C9FD82211A
:101F9000FF20563001F0C4FD0321AB20400001F0CA
:101FA000BFFD4621FF20583001F0BAFD0A21AC20C8
:101FB000400001F0B5FD1F21FF205A3001F0B0FDB7
:101FC0001F21AD20400001F0ABFD0621FF205C3059
:101FD00001F0A6FD0021AE20400001F0A1FD00218E
:101FE000FF205E3001F09CFD1621AF20400001F083
:101FF00097FD0021FF20603001F092FD0021FF20BD
:10200000623001F08DFD0021B120400001F088FD1B
:102010000021FF20643001F083FD0621B220400042
:1020200001F07EFD0021FF20663001F079FD0021E6
:10203000B320400001F074FD8121FF20683001F0E1
:102040006FFD0221B520400001F06AFD0721FF204D
:102050006C3001F065FD0421FF20843001F060FD4B
:102060000F21C420400001F05BFD7721FF208A3062
:1020700001F056FD8121680001F052FD8021554894
:1020800001F04EFD0021600001F04AFDF0215248B0
:1020900001F046FDAA218420800001F041FDCC2101
:1020A0004E4801F03DFDAA214D4801F039FDCC21FB
:1020B0004C4801F035FD7E218620800001F030FD86
:1020C0007E21494801F02CFD8A218720800001F003
:1020D00027FD0A21454801F023FD3E21882080008C
:1020E00001F01EFD3121424801F01AFD3E21414818
:1020F00001F016FD31218920800001F011FD002141
:102100003D4801F00DFD7F213C4801F009FD032110
:102110008A20800001F004FD1721394801F000FDFC
:10212000DD21384801F0FCFC0021374801F0F8FCC3
:102130000D218C20800001F0F3FC2021334801F0B8
:10214000EFFC0021324801F0EBFC0021CC208000A4
:1021500001F0E6FC00212F4801F0E2FC03212E48AB
:1021600001F0DEFC0421F120000101F0D9FC002186
:102170002A4801F0D5FC0721294801F0D1FC68214B
:10218000284801F0CDFCFF21274801F0C9FC84213B
:10219000264801F0C5FC9821254801F0C1FC122118
:1021A000244801F0BDFC2521234801F0B9FCE121C0
:1021B000224801F0B5FC22480078002800D05BE2FC
:1021C0009721C020400001F0ABFC28211D4801F000
:1021D000A7FCF1BD01020000030200001102000093
:1021E0001202000013020000190200001E0200008B
:1021F0002102000023020000250200002602000048
:102200002A0200002D0200002F020000330200000D
:1022100031030000320300000D0F0000110F000019
:102220001C0F0000210F0000220F0000230F0000F0
:10223000260F0000350F0000440F00005F0F000064
:10224000DF010020340F00000421102001F068FCA1
:102250000021112001F064FC6421122001F060FCD7
:102260003321182001F05CFC0121262001F058FCEC
:1022700001216E2001F054FC0121280001F050FCE6
:10228000F821200001F04CFC7F21300001F048FCD7
:102290000021380001F044FC3321E01C01F040FC37
:1022A0002E21F01C01F03CFC0021F81C01F038FC50
:1022B0000021FF20083001F033FC00218420400081
:1022C00001F02EFC8021FF200A3001F029FC0021C2
:1022D0008520400001F024FC0021FF200C3001F09B
:1022E0001FFC0021FF20163001F01AFCF421FF2012
:1022F000183001F015FCE8219020400001F010FC9E
:102300008421FF20223001F00BFCC82192204000E4
:1023100001F006FCC221FF20263001F001FC8321E0
:102320009320400001F0FCFB4621FF20283001F003
:10233000F7FB0A219420400001F0F2FB1F21FF204F
:102340002A3001F0EDFB1F219520400001F0E8FB51
:102350000621FF202C3001F0E3FB002196204000F5
:1023600001F0DEFB0021FF202E3001F0D9FB00211F
:10237000FF20303001F0D4FBE8219820400001F02C
:10238000CFFB8421FF20323001F0CAFB00219920CD
:10239000400001F0C5FB0021FF20343001F0C0FBFC
:1023A000C6219A20400001F0BBFBC121FF2036303E
:1023B00001F0B6FB83219B20400001F0B1FB4621D8
:1023C000FF20383001F0ACFB0A219C20400001F0D6
:1023D000A7FB1F21FF203A3001F0A2FB1F219D2007
:1023E000400001F09DFB0621FF203C3001F098FBEE
:1023F00000219E20400001F093FB0021FF203E3091
:1024000001F08EFB16219F20400001F089FB002186
:10241000FF20403001F084FBFF21A820400001F0A4
:102420007FFB8421FF20523001F07AFB0021A9209C
:10243000400001F075FB0021FF20543001F070FBDB
:10244000C521AA20400001F06BFBC021FF205630BF
:1024500001F066FB8321AB20400001F061FB4621C7
:10246000FF20583001F05CFB0A21AC20400001F055
:1024700057FB1F21FF205A3001F052FB1F21AD20D6
:10248000400001F04DFB0621FF205C3001F048FBCD
:102490000021AE20400001F043FB0021FF205E3010
:1024A00001F03EFB1621AF20400001F039FB002176
:1024B000FF20603001F034FB0021FF20623001F08A
:1024C0002FFB0021B120400001F02AFB0021FF205A
:1024D000643001F025FB0621B220400001F020FB12
:1024E0000021FF20663001F01BFB0121B3204000DA
:1024F00001F016FB4321FF20683001F011FB02219F
:10250000B520400001F00CFB0721FF206C3001F0EA
:1025100007FB0421FF20843001F002FB0F21C420BF
:10252000400001F0FDFA7721FF208A3001F0F8FA2F
:102530008121680001F0F4FA8021514801F0F0FA9D
:102540000021600001F0ECFAF0214E4801F0E8FAB9
:10255000AA218420800001F0E3FACC214A4801F04E
:10256000DFFAAA21494801F0DBFACC21484801F002
:10257000D7FA7E218620800001F0D2FA7E214548DC
:1025800001F0CEFA8A218720800001F0C9FA0A21E1
:10259000414801F0C5FA3E218820800001F0C0FAD0
:1025A00031213E4801F0BCFA3E213D4801F0B8FA25
:1025B00031218920800001F0B3FA0021394801F06F
:1025C000AFFA7F21384801F0ABFA03218A2080005E
:1025D00001F0A6FA1721354801F0A2FADD213448AE
:1025E00001F09EFA0021334801F09AFA0D218C2067
:1025F000800001F095FA20212F4801F091FA002186
:102600002E4801F08DFA0021CC20800001F088FADC
:1026100000212B4801F084FA03212A4801F080FAB6
:102620000421F120000101F07BFA0021264801F08D
:1026300077FA0721254801F073FA6821244801F050
:102640006FFAFF21234801F06BFA8421224801F040
:1026500067FA9821214801F063FA1221204801F01D
:102660005FFA25211F4801F05BFAE1211E4801F0C5
:1026700057FA1E480078002801D000F090FC9FE532
:10268000010200000302000011020000120200001B
:1026900013020000190200001E02000021020000C7
:1026A0002302000025020000260200002A0200008A
:1026B0002D0200002F020000330200003103000051
:1026C000320300000D0F0000110F00001C0F00006E
:1026D000210F0000220F0000230F0000260F000032
:1026E000350F0000440F00005F0F0000DF010020E5
:1026F0000421102001F014FA0021112001F010FA39
:102700006421122001F00CFA3321182001F008FA9C
:102710000121262001F004FA01216E2001F000FAC7
:102720000021280001F0FCF9FC21200001F0F8F95B
:102730002021300001F0F4F90021380001F0F0F917
:102740002821E01C01F0ECF9A021F01C01F0E8F9CF
:102750000021F81C01F0E4F90021FF20083001F00D
:10276000DFF900218420400001F0DAF98021FF2008
:102770000A3001F0D5F900218520400001F0D0F9A0
:102780000021FF200C3001F0CBF90021FF20163092
:1027900001F0C6F9F421FF20183001F0C1F9C5217C
:1027A0009020400001F0BCF98421FF20223001F08C
:1027B000B7F9A8219220400001F0B2F9A221FF2030
:1027C000263001F0ADF9C3219320400001F0A8F9B3
:1027D0004621FF20283001F0A3F90A21942040006F
:1027E00001F09EF91F21FF202A3001F099F91F21E5
:1027F0009520400001F094F90621FF202C3001F0D3
:102800008FF900219620400001F08AF90021FF2075
:102810002E3001F085F90021FF20303001F080F9E1
:10282000C5219820400001F07BF98421FF2032303F
:1028300001F076F900219920400001F071F90021A2
:10284000FF20343001F06CF9A6219A20400001F0FD
:1028500067F9A121FF20363001F062F9C3219B20E6
:10286000400001F05DF94621FF20383001F058F9B1
:102870000A219C20400001F053F91F21FF203A302B
:1028800001F04EF91F219D20400001F049F9062179
:10289000FF203C3001F044F900219E20400001F06F
:1028A0003FF90021FF203E3001F03AF916219F2028
:1028B000400001F035F90021FF20403001F030F9EF
:1028C000FF21A820400001F02BF98421FF20523085
:1028D00001F026F90021A920400001F021F9002192
:1028E000FF20543001F01CF9A521AA20400001F07E
:1028F00017F9A021FF20563001F012F9C321AB20B7
:10290000400001F00DF94621FF20583001F008F990
:102910000A21AC20400001F003F91F21FF205A30AA
:1029200001F0FEF81F21AD20400001F0F9F806216A
:10293000FF205C3001F0F4F80021AE20400001F0EF
:10294000EFF80021FF205E3001F0EAF81621AF20F9
:10295000400001F0E5F80021FF20603001F0E0F8D0
:102960000021FF20623001F0DBF80021B12040009F
:1029700001F0D6F80021FF20643001F0D1F80621E3
:10298000B220400001F0CCF80021FF20663001F0B9
:10299000C7F80C21B320400001F0C2F89A21FF20B3
:1029A000683001F0BDF80221B520400001F0B8F810
:1029B0000721FF206C3001F0B3F80421FF208430A0
:1029C00001F0AEF80F21C420400001F0A9F87721F2
:1029D000FF208A3001F0A4F88121680001F0A0F8FE
:1029E0008021494801F09CF80021600001F098F82E
:1029F000F021464801F094F8AA218420800001F0DB
:102A00008FF8CC21424801F08BF8AA21414801F00F
:102A100087F8CC21404801F083F87E218620800091
:102A200001F07EF87E213D4801F07AF88A21872066
:102A3000800001F075F80A21394801F071F83E2153
:102A40008820800001F06CF83121364801F068F8E8
:102A50003E21354801F064F831218920800001F0E1
:102A60005FF80021314801F05BF87F21304801F028
:102A700057F803218A20800001F052F817212D48D1
:102A800001F04EF8DD212C4801F04AF800212B48D6
:102A900001F046F80D218C20800001F041F8202142
:102AA000274801F03DF80021264801F039F80021BF
:102AB000CC20800001F034F80021234801F030F8E8
:102AC0000321224801F02CF80421F120000101F03B
:102AD00027F800211E4801F023F807211D4801F0C6
:102AE0001FF868211C4801F01BF8FF211B4801F06A
:102AF00017F884211A4801F013F89821194801F0B9
:102B00000FF81121AAE500BF010200000302000036
:102B1000110200001202000013020000190200005E
:102B20001E02000021020000230200002502000016
:102B3000260200002A0200002D0200002F020000E1
:102B40003302000031030000320300000D0F0000CB
:102B5000110F00001C0F0000210F0000220F0000C9
:102B6000230F0000260F00000421102000F0D8FFE2
:102B70000021112000F0D4FF6421122000F0D0FFCA
:102B80003321182000F0CCFF0121262000F0C8FFDF
:102B900001216E2000F0C4FF0B21280000F0C0FFCF
:102BA000D121200000F0BCFF0221300000F0B8FF6E
:102BB0000021380000F0B4FF3821E01C00F0B0FF25
:102BC0006C21F01C00F0ACFF0021F81C00F0A8FF05
:102BD0000021FF20083000F0A3FF002184204000E6
:102BE00000F09EFF8021FF200A3000F099FF0021B5
:102BF0008520400000F094FF0021FF200C3000F001
:102C00008FFF0021FF20163000F08AFFF421FF2003
:102C1000183000F085FF83219020400000F080FFF5
:102C20008421FF20223000F07BFFE8219220400029
:102C300000F076FFE221FF20263000F071FF8321B3
:102C40009320400000F06CFF4621FF20283000F068
:102C500067FF0A219420400000F062FF1F21FF203F
:102C60002A3000F05DFF1F219520400000F058FF42
:102C70000621FF202C3000F053FF00219620400059
:102C800000F04EFF0021FF202E3000F049FF002110
:102C9000FF20303000F044FF83219820400000F0F6
:102CA0003FFF8421FF20323000F03AFF00219920BD
:102CB000400000F035FF0021FF20343000F030FFED
:102CC000E6219A20400000F02BFFE121FF20363062
:102CD00000F026FF83219B20400000F021FF4621C9
:102CE000FF20383000F01CFF0A219C20400000F03B
:102CF00017FF1F21FF203A3000F012FF1F219D20F7
:102D0000400000F00DFF0621FF203C3000F008FFDE
:102D100000219E20400000F003FF0021FF203E30F4
:102D200000F0FEFE16219F20400000F0F9FE002179
:102D3000FF20403000F0F4FEFF21A820400000F00A
:102D4000EFFE8421FF20523000F0EAFE0021A9208E
:102D5000400000F0E5FE0021FF20543000F0E0FECE
:102D6000E521AA20400000F0DBFEE021FF205630E4
:102D700000F0D6FE8321AB20400000F0D1FE4621BA
:102D8000FF20583000F0CCFE0A21AC20400000F0BB
:102D9000C7FE1F21FF205A3000F0C2FE1F21AD20C8
:102DA000400000F0BDFE0621FF205C3000F0B8FEC0
:102DB0000021AE20400000F0B3FE0021FF205E3075
:102DC00000F0AEFE1621AF20400000F0A9FE002169
:102DD000FF20603000F0A4FE0021FF20623000F0F0
:102DE0009FFE0021B120400000F09AFE0021FF204C
:102DF000643000F095FE0521B220400000F090FE06
:102E00000021FF20663000F08BFE9121B3204000AE
:102E100000F086FE3021FF20683000F081FE0321A3
:102E2000B520400000F07CFE9821FF206C3000F0BF
:102E300077FE0421FF20843000F072FE0F21C420B1
:102E4000400000F06DFE7721FF208A3000F068FE20
:102E50008121680000F064FE8021824800F060FE5D
:102E60000021600000F05CFEF0217F4800F058FE79
:102E7000AA218420800000F053FECC217B4800F082
:102E80004FFEAA217A4800F04BFECC21794800F091
:102E900047FE7E218620800000F042FE7E2176489B
:102EA00000F03EFE8A218720800000F039FE0A21D2
:102EB000974800F035FE3E218820800000F030FE6B
:102EC0003121944800F02CFE3E21934800F028FE6A
:102ED00031218920800000F023FE0021964800F077
:102EE0001FFE7F21954800F01BFE03218A208000F1
:102EF00000F016FE1721924800F012FEE8219148DA
:102F000000F00EFE0021904800F00AFE0D218C20FA
:102F1000800000F005FE00218C4800F001FE002139
:102F20008B4800F0FDFD0021CC20800000F0F8FD72
:102F30000021884800F0F4FD0321874800F0F0FDEF
:102F40000421F120000100F0EBFD00219E4800F07B
:102F5000E7FD07219D4800F0E3FD68219C4800F053
:102F6000DFFDFF219B4800F0DBFD84219A4800F043
:102F7000D7FD9821994800F0D3FD1121984800F021
:102F8000CFFD2521974800F0CBFDE121964800F0C8
:102F9000C7FD96480078002801D1FFF711F9992163
:102FA000C020400000F0BCFD0821FFF70FF980B5FC
:102FB0000021C220400000F0B3FD0F21080200F004
:102FC000AFFD06218A4800F0ABFD8A4800788749AA
:102FD0000978002915D0022826D9C01E0BD0123836
:102FE000012821D9C01E01281ED9801E03D0401EF1
:102FF0001AD0801E34D10921302000F091FD022129
:1030000017E002281AD9C01E1ED012380CD0401E5C
:1030100014D0801E08D0401E10D0401EEBD0401EA1
:103020000CD0801E10D001BD0721302000F078FDAB
:103030001221312000F074FD20210EE00B21302000
:1030400000F06EFD102104E00921302000F068FD41
:103050000221312000F064FD2421322000F060FDC7
:1030600001BD000001020000030200001102000087
:1030700012020000130200001902000010B55C4C9F
:103080005A480078002814D15A48007802281ED9DE
:10309000C01E22D012380CD0401E18D0801E08D07E
:1030A000401E14D0401E04D0401E10D0801E14D0EC
:1030B00023E00721302000F033FD0821312000F00B
:1030C0002FFD2021322000F02BFD062112E00B21E4
:1030D000302000F025FD102104E00921302000F00F
:1030E0001FFD0121312000F01BFD2421322000F0C2
:1030F00017FD0221200000F013FD0021C220400036
:1031000000F00EFD0F21080200F00AFD10BD0000C6
:103110001E020000210200002302000080B50021F1
:10312000354800F0FDFC0021344800F0F9FC002196
:10313000A24800F0F5FC01BD2502000026020000B7
:103140002A0200002D0200002F02000033020000BE
:1031500031030000320300000D0F000080B5FF2195
:10316000FF20183000F0DCFC0021AE20400000F011
:10317000D7FC0021FF205E3000F0D2FCA8204000E8
:103180001C490978002912D0491E16D0491E12D0B8
:10319000491E0ED01239012909D9C91E01290CD99D
:1031A000891E0CD0491E06D0891E02D001BDE9211E
:1031B00006E0A52104E0E72102E0E82100E0C621C5
:1031C00000F0AEFC01BD0000110F00001C0F00005C
:1031D000210F0000220F0000230F0000260F000027
:1031E000350F0000440F00005F0F0000DF010020DA
:1031F000180F0000DE010020270200002902000055
:1032000010B5010024D40816C0B20A02120E0B0435
:103210001B0EC9B2A524614330245C430919E8247C
:1032200054430919090AA5246343C9183023534399
:10323000C918E8234343C918A5235A4330234343FD
:10324000D21812028918A52250430004081810BD94
:10325000484201000816C0B20A02120E0B041B0EEF
:10326000C9B2A424E443614330245C43091BE8242D
:103270005443091B0912A5246343C91A302353433D
:10328000C91AE8234343C91AA5235A4330234343A9
:10329000D2181202891AA52250430004081A10BD40
:1032A000FEB5020013041B0ED1B2912048432F2417
:1032B0005C430019000A91245C43001902900C2021
:1032C00048439A245C430019000A0C245C4300190B
:1032D000490143245C430919090A5C010919DC010D
:1032E000E418240A0194544225042D0E8026F64346
:1032F0006E43361200965F4E36785F4F3F78002F50
:1033000022D0012E0ED0022E36D0032E07D0192E39
:1033100008D01A2E3ED01B2E2ED01D2E48D1002AAA
:103320001ED51FE0002A08D4D0B242214B43C0185A
:10333000000A1104090E4018FEBDE2B250424221BB
:103340006943401A001223E0022E15D0032E05D047
:103350001A2E1FD01B2E0FD01D2E29D1002A01D4CA
:103360000298FEBDE2B29020C04342432F20684342
:10337000101A001291210AE0002A1ED5E2B20B2099
:10338000C04342439A206843101A00120C214D4357
:10339000401BFEBD002A01D40800FEBD2206D00C51
:1033A000414243206843081A00126901401AFEBDD9
:1033B000002A01D40198FEBD0098FEBD3102000034
:1033C000801181104018C9104018891040187047AA
:1033D00010B50C002749097803290DD9153913D0E8
:1033E000491E09D0891E0FD0491E05D0491E0BD099
:1033F000491E01D0891E09D10022D243210000F0CC
:103400007BFC1E49884201D1200010BD002010BD68
:1034100038B504000D0017480078032810D9153876
:103420000CD0401E0CD0801E08D0401E08D0401E7C
:1034300004D0401E04D0801E02D018E0280032BD07
:103440000022D243200000F057FC6419C1B2CA43E5
:1034500022700104090ECA4362700102090ECA43B8
:10346000A270000EC143E1702D1DA8B232BD002034
:1034700032BD0000DE010020DF010020E320BBDEC2
:10348000F8B5B4480078694608700020FF240A2186
:10349000072502260122B04BB04F3F78002F08D0FD
:1034A000012F0AD0022F0DD0032F0ED0152F0FD0D1
:1034B000162F71D0182F0BD0192F00D1DBE01A2F47
:1034C00006D01B2F00D14BE11D2F00D1C8E1F1BD6B
:1034D0001A7058709A70DC4A5A63D9709921197120
:1034E000587141219963402199713A21D971342150
:1034F000C94319729D8458729872D872D884602119
:103500001985588598851C73182159739873D87339
:10351000187458749874DC741875882159759875E6
:10352000D87508211976C9491A0020320D6815602E
:103530001821597698765521D963E4311964DE76DD
:103540001C7758778021D985A021C902596431217F
:103550009964F0210903D964B421C903196596213E
:1035600049045965BA4919860B2199770321D977FE
:103570000021B84A8C0015591C19A565491C03295E
:10358000F8DBB54982008C589A185466401C032811
:10359000F8DBB2481867F1BD1A7058709A7058710C
:1035A00020279F6340279F713A27DF712227FF431F
:1035B0001F729D8458729872D872DA8460251D85B6
:1035C0005A8548259D857E251D7338255D73987322
:1035D000D8731E745A749A74DC74187558759C7577
:1035E000D87520251D76D64D1E0020362F683760F1
:1035F00018255D769876FF253A351D64D8761C77B8
:103600008024DC85CF4C5C6431249C64CE4CDC642B
:10361000B424E4031C65962464045C65CB4C1C86CE
:103620000B249C770324DC770024C94DA600AF59F6
:103630009E19B765641C032CF8DB0024C54DA60059
:10364000AF599E197766641C032CF8DBC24C1C67CB
:103650006C462478002C06D0C0485863D970992055
:103660001871BF48E3E0BF4959630921D970972118
:103670001971BD49E5E01A7058709A705871512758
:103680009F6340279F713A27DF712227FF431F72F4
:103690009D8458729872D872DA8488251D855A855F
:1036A00048259D857E251D7338255D739873D873D5
:1036B0001E745A749A74DC74187558759C75D87594
:1036C00020251D76A94D1E0020362F68376018254D
:1036D0005D769876FF253A351D64D8761C77802470
:1036E000DC85984C5C6431249C64974CDC64B42485
:1036F000E4031C65962464045C65944C1C860B24CE
:103700009C770324DC770024994DA600AF599E19BD
:10371000B765641C032CF8DB0024964DA600AF5956
:103720009E197766641C032CF8DB934C1C676C466F
:103730002478002C06D089485863D97099201871D4
:103740008E4874E0874959630921D970972119710E
:103750008B4976E0DF01002000000020DE01002020
:103760001A7058709A705871864F9F6340279F71E6
:103770003927DF712227FF431F729D845872987288
:10378000D8720325DD84A0251D855A8548259D8591
:103790007E251D7338255D739873D8731E745A7413
:1037A0009A74DC74187558759C75D87520251D762B
:1037B000754D1E0020362F68376018255D76987687
:1037C000FF253A351D64D8761C778024DC855D4C56
:1037D0005C6431249C645C4CDC64B424E4031C65AC
:1037E000962464045C65594C1C860B249C77032446
:1037F000DC770024654DA600AF599E19B765641C9F
:10380000032CF8DB0024624DA600AF599E197766A1
:10381000641C032CF8DB5F4C1C676C462478002C7E
:1038200008D04E485863D970992018718420D86305
:103830005A77F1BD4B4959630921D9709721197104
:103840008021D9635877F1BDA1176A2168AD0108BD
:10385000A31600006CAD010878AD01085D5F0100A2
:103860001A7058709A7058714B4F9F6340279F7120
:103870003927DF711727FF431F729D845872987292
:10388000D8721C25DD8448251D855A859D857E2599
:103890001D7338255D739873D8731E745A749A74A7
:1038A000DC74187558759C75D87520251D763B4DB0
:1038B0001E0020362F68376018255D7698760E2515
:1038C000DD63FF253A351D64D8761C775A77802250
:1038D000DA854A035A6431229A64F0229202DA6449
:1038E000B422D2031A65962252045A652C4A1A86CB
:1038F0000B229A770322DA7700222A4C9500665928
:103900005D19AE65521C032AF8DB274A840015595D
:103910001C196566401C0328F8DB244818676846B4
:103920000078002804D00D485863D970992004E02D
:103930000C4858630920D87097201871F1BD00BF5A
:1039400084AD01087FEA02007DBF0800CF0F0000B0
:1039500088AD010894AD01081F450200B1133B2159
:103960009E0C0000776227112D0C0000A0AD01080D
:10397000A4AD0108B0AD010873E800000E05000019
:10398000E104000027030000BCAD0108C0AD010840
:10399000CCAD01083F1700004C240000D8AD010851
:1039A000590A0000DCAD0108E8AD0108F103000090
:1039B000CD4A09281AD801A31B5C9F44080C101497
:1039C000181C2024282C11607047516070479160AA
:1039D0007047D160704711617047516170479161C4
:1039E0007047D1617047116270475162704780B56E
:1039F0000021022000F094F80121022000F090F84C
:103A000001BD80B523E080B58021022000F088F858
:103A10000021022000F084F8002000F0B0F85128C6
:103A200001D0012002BD5521012000F079F80120CC
:103A300000F0A5F8552808D1AA21012000F070F85F
:103A4000012000F09CF8AA2801D0022002BD00F05D
:103A500004F8002800D0032002BD70B5A24CE06835
:103A600080470121242000F05BF820698047060090
:103A70000021242000F054F820698047050003212C
:103A8000242000F04DF8002E01D0002D07D0022197
:103A9000242000F045F8A0688047012070BDA06890
:103AA0008047002070BD70B584B004000D008E4EBC
:103AB000F06880470020316A8847292069460870ED
:103AC00001216846B269904704E001212000726933
:103AD0009047641C2800451E0006F6D11AE070B518
:103AE00084B004000D00804EF06880470020316AE9
:103AF0008847A9206946087001216846B269904745
:103B000004E001212000B2699047641C2800451E92
:103B10000006F6D10120316A8847B06880477FBD32
:103B2000F0B587B004000F006F48C06880476E484A
:103B3000016A802503AE702C0CD32000E024E40140
:103B4000044300208847200A054335707470B7701D
:103B5000032205E000208847254335707770022254
:103B6000694603A8604BDB69984701205E49096AF2
:103B700088475D4880688047012007B0F0BDF0B5F8
:103B800087B00400584FF8688047396A002503AEB3
:103B9000702C16D32000E024E40104430020884761
:103BA000200A30707470B5700322694603A8FB695F
:103BB00098470120396A8847B86880476846807806
:103BC0000FE000208847347075700222694603A810
:103BD000FB6998470120396A8847B868804768467A
:103BE000407807B0F0BDF0B587B004003E4FF868EC
:103BF0008047396A002503AE702C19D32000E024D9
:103C0000E401044300208847200A307074707580F6
:103C10000422694603A8FB6998470120396A88474E
:103C2000B86880476846807800026946C97813E022
:103C30000020884734707570B5700322694603A868
:103C4000FB6998470120396A8847B8688047684609
:103C50004078000269468978084307B0F0BDF0B5A6
:103C600087B00400204FF8688047396A002503AE0A
:103C7000702C1ED32000E024E40104430020884778
:103C8000200A30707470758035710522694603A86A
:103C9000FB6998470120396A8847B86880476846B9
:103CA000807800046946C9780902014368460079B2
:103CB00017E00020884734707570758004226946CB
:103CC00003A8FB6998470120396A8847B86880478C
:103CD00068464078000469468978090201436846CD
:103CE000C078084307B0F0BD2C1E002080B501004D
:103CF0002620FFF715FF01BD38B505000C001000A8
:103D0000210006D0297800F005F86D1C641E2104FE
:103D1000F8D132BD020A034BC0B2414088001858A6
:103D2000504070479CA8010810B51E4800688047A5
:103D30001D4C02F0AAF860635920216C8847A063EB
:103D40001A480068804710BD10B5B94CA16B401AE5
:103D500002F0C4F8FFF734FB616B401810BD38B5B2
:103D60001348B349C97E405C810601D5062032BDA7
:103D70000407240F80253020FFF701FF284202D0DE
:103D800021003B2001E021003320FFF7C9FE01F0B4
:103D900079FE0100294203D0C0204000FFF7C0FE99
:103DA000002032BD301E0020740000202C1E002098
:103DB000EE1E0020F8B59E4F0F20FFF7E0FE4007F3
:103DC0001DD51C20FFF7DBFE0F2818D1FFF7ACFF35
:103DD00098480078002812D0974802F0A8F80020F0
:103DE00095494872B86BC860084606E04D20396CAA
:103DF000884702F0C1F86061200002F08CF80D20C5
:103E0000FFF7BDFEC00700D410E12920FFF7B7FE81
:103E100006007509072D03D12920FFF7B0FE050024
:103E2000681EC0B2009085480078854CF106C90E26
:103E300001290ED0102900D1BCE0112900D1ADE03C
:103E4000122900D196E0132978D0152900D1C2E0BB
:103E5000E3E0002DD3D02920FFF791FE009D794E9D
:103E6000E9B23000BA6C9047387E212802D0387E03
:103E7000232812D1F3200001FFF781FEB8777248A2
:103E8000FFF77DFEF8777148FFF779FE202178541F
:103E90006F48FFF774FE68490874387E212802D005
:103EA000387E322803D100210220FFF739FE072097
:103EB000FFF765FEFE2101400720FFF731FE2000DD
:103EC00002F035F8002060726662387EF821014009
:103ED000282919D1A662EDB2A5854020FFF74FFE33
:103EE00040B25C4900228956401A2082534800782B
:103EF000002800D17AE75020F96B884700B202F021
:103F000044F8FFF7CDF976E7534800783118A162FD
:103F1000854202DA0020A08571E7281AC0B2A08588
:103F2000200001F0F8FF387E322802D0387E332896
:103F300003D13800283001F0DBFF60E700286CD1A6
:103F4000032D6AD12920FFF71AFE0107090F082265
:103F500008001040C5436D1C0D4368B20012E075A7
:103F6000A5752920FFF70BFE60752920FFF707FED6
:103F7000207544E7002850D0022D4ED12920FFF7AC
:103F8000FEFD60752920FFF7FAFD2075606900B21B
:103F900001F0FBFFFFF784F9606130E7012D3CD1B0
:103FA0002920FFF7ECFD40B22A4900228956401A29
:103FB000208224E7032D30D10020E0732920FFF771
:103FC000DEFDA0732920FFF7DAFD60732920FFF7DB
:103FD000D6FD207313E7002DFCD0FFF7A5FEAA4CF9
:103FE000200001F0A4FF002060722920FFF7C7FD28
:103FF00040B2184A0023D256811A2182A3490022D6
:104000008956884201DB012000E00020A074B86BD3
:10401000E060200001F07FFF009D002DDAD0292014
:10402000FFF7ADFD6D1E2806D4D0F8E7F1BD000006
:10403000740000201A000020CC00002000000020A6
:10404000FC1D00207C1A0020310F0000320F000000
:10405000330F0000060000201000002070B51BE0A8
:10406000042C00DA0AE1072800DA0600F6B2801B09
:10407000A88462212920FFF753FD85480178292073
:10408000FFF74EFD7101C9B22920FFF749FD8148B4
:1040900001782920FFF744FD2D20FFF770FD040073
:1040A0002C20FFF76CFD002800D0FF24BD4DA88C0C
:1040B0000726697E0A2905D003D30C2900D1A8E080
:1040C0000FD370BD0100CBD10B206876287E11285C
:1040D00002D0287E132801D16F4800E06F48008885
:1040E000A884A88C01005BD10F2C5ADB6C480078A7
:1040F000002825D041212920FFF712FD1C2129206D
:10410000FFF70EFD6748047880208000FFF737FD39
:1041100000066348007807D50821091AFF228A4063
:1041200022408021C14006E00821091AFF22CA402E
:104130002240012181401143C9B22920FFF7F0FC40
:104140001220FFF71CFD0E210140062925D15648FB
:104150000078010021D0304201D0042400E0002486
:10416000C01D0606F60E701C400101210143C9B2B4
:104170002920FFF7D5FC4D48007804432100292071
:10418000FFF7CEFC002405E04949095D2920FFF72F
:10419000C7FC641CE4B2B442F6DB0C2068767BE713
:1041A000042C6BDBFF24E200914202DA4405240E6A
:1041B0000DD0E000081AA88462212920FFF7B0FC86
:1041C000334801782920FFF7ABFC21005CE7314937
:1041D0000E78C4B20020A88441212920FFF7A0FC5A
:1041E0001C212920FFF79CFC0820051B8001FFF7FC
:1041F000C6FC000605D5FF20A84030408021E140E4
:1042000004E0FF20E84030400121A1400143C9B251
:104210003FE70B2C32DB0026010000D10126698C20
:10422000081A80B2E41EE4B2844203DBC4B2300058
:1042300002260643002C17D0E1212920FFF770FC4D
:10424000611CC9B22920FFF76BFC31002920FFF760
:1042500067FC2100CF48AA8C80186A6C9047A88C14
:104260000019A884B0079AD50D206876012109208D
:10427000FFF756FC40210720FFF752FC04212820BD
:10428000FFF74EFC70BD0000841E002008000020D7
:104290000D0000200C000020280000202C00002031
:1042A0000E0000200F000020180000201900002040
:1042B00020000020F8B50826B74F0024394D687E4D
:1042C000401E0F2814D802A14000095A8F4400BF95
:1042D000BC024602320020003E0020004C002000BC
:1042E0005800D800D800D800DE00A001D201020298
:1042F00000210620FFF714FC00210720FFF710FC27
:10430000F1BD00210620FFF70BFC042004E0002192
:104310000620FFF705FC06206876F1BD0021092084
:10432000FFF7FEFB6E76F1BD0F20FFF728FC03219F
:104330002820FFF7F5FB00210620FFF7F1FB0821FD
:104340000720FFF7EDFB0A2068761020FFF717FC27
:104350000007000F09280FD1E1212920FFF7E0FB1A
:1043600002212920FFF7DCFB01212920FFF7D8FBE0
:1043700011212920FFF7D4FBFFF770FE0D21022049
:10438000FFF7CEFBFFF7D0FC380001F0D0FD287E10
:104390001238012805D8287FB1490978884279D098
:1043A000082477E074000020FFF758FEF1BD0F20CD
:1043B000FFF7E5FB1C20FFF7E2FB0028F6D1002108
:1043C0000920FFF7ADFBB6480078297E1239012994
:1043D00017D90E390AD0891E04D00E3923D0491EB0
:1043E0000ED021E0BF48407AF02806D1FEF746FE05
:1043F000FFF7B5FC00F0D2F818E000F03BF915E04B
:104400006884FEF73BFEFFF7AAFC00F0C7F828001F
:10441000283001F06DFDB44800682863280028307A
:1044200001F01EFD02E0688400F01CF9287E3028AF
:1044300009D0287E312806D0287E322803D0287E55
:10444000332800D0AC76FFF76FFC280001F06FFD39
:104450006C72287E122805D0287E132802D0287E70
:10446000312801D102206872A86BE860280015E0AD
:1044700000210620FFF754FB00210720FFF750FB27
:104480000D210220FFF74CFB6C76FFF74DFC380046
:1044900001F04DFD7C72A86BF860380001F03BFD27
:1044A000F1BD0C20FFF76BFBC00730D503210920BD
:1044B000FFF736FB00210620FFF732FB40210720E3
:1044C000FFF72EFB0D210220FFF72AFB1020687654
:1044D0001DE00F20FFF753FB0600800701D0FFF718
:1044E00023FCF00708D5280001F021FD6C72A86BB1
:1044F000E860280001F00FFDB00708D5380001F092
:1045000016FD7C72A86BF860380001F004FD0D20E8
:10451000FFF735FBF1BD80240D20FFF730FB204273
:1045200005D00B20FFF72BFB0443210004E00B20F8
:10453000FFF725FB4106490E0B20FFF7F1FA0C208F
:10454000FFF71DFBC00706D50A20FFF718FB012166
:1045500001430A2018E00A20FFF711FBFE21014069
:104560000A20FFF7DDFAA97FF3200001FFF7D8FA50
:10457000E97FAE48FFF7D4FA2020295CAC48FFF76A
:10458000CFFAAC48017CB748FFF7CAFAFFF712FC34
:10459000F1BD000078190020981E0020F8B5002712
:1045A0000124B14D287E332801D1012000E00020F4
:1045B000297E322900D10127AC49097808430743F5
:1045C00003D004210920FFF7ABFAA94801788B201A
:1045D0008000FFF7A5FAFEF7A1FDA64E3000FFF719
:1045E000CEFABF2101403000FFF79AFA03212820BC
:1045F000FFF796FA09210220FFF792FA6C76002F56
:1046000001D0412100E001210720FFF789FA0021B4
:104610000620FFF785FAF1BD80B5FEF7C8FCFFF76D
:104620009EFB00212E20FFF77BFA80212F20FFF731
:1046300077FA09208C49487605210220FFF770FAA5
:1046400007210220FFF76CFA00210720FFF768FA24
:1046500001210620FFF764FA0420FFF790FA01BD5C
:104660001B00002080B500F005F800210220FFF7B4
:1046700057FA01BD80B500210720FFF751FA00214C
:104680000620FFF74DFA05210220FFF749FA002125
:10469000C4208000FFF744FA00207349487601BD2A
:1046A0001D00002070B5744C206880476E4D0320BB
:1046B00068760620FFF763FA012101430620FFF721
:1046C0002FFA6E4E06E0022001F03AFD3068804776
:1046D00001F0E6FC20688047687E0428F3D130684A
:1046E000804770BDFC1D00203C000020F8B5644EE2
:1046F0005D4D297C3000FFF713FA771E697C380086
:10470000FFF70EFAA97CB01EFFF70AFAF41EE97C47
:104710002000FFF705FA297D5A48FFF701FA697D65
:10472000F01CFFF7FDF9A97DB01CFFF7F9F9E97D51
:10473000701CFFF7F5F95448007800284CD0534816
:104740000078002848D0524D1120FFF718FAC10711
:10475000C90F4842C0B200904E480078FF2804D0EC
:10476000C100280001F0EEFC05003000FFF707FA59
:104770002A00424000995140C9B23000FFF7D0F9F9
:10478000280001F0EEFC05003800FFF7F8F92A00D8
:10479000424000995140C9B23800FFF7C1F92800E2
:1047A00001F0DFFC0500601CFFF7E9F92A00424038
:1047B00000995140C9B2601CFFF7B2F9280001F01E
:1047C000D0FC05002000FFF7DAF945400099694068
:1047D000C9B22000FFF7A4F9F1BD10B5FCF710FC39
:1047E0002D4C2000FFF7CBF92C4909784118C9B2AC
:1047F0002000FFF795F903212420FFF791F92848BD
:104800000078002801D0132100E015211948FFF796
:1048100087F9FFF76BFF10BD13490A6D1018086583
:10482000704711490A6D101A08637047310F000074
:10483000320F0000CC00002010B51A480068FFF7C6
:10484000EBFF094C18480021415E2620205E01F054
:1048500095FC002804D02620205E4011FFF7DCFFE5
:1048600010BD0000330F0000740000201A0000206B
:104870000700002032020000301E00202C1E002005
:10488000070200000B0200000100002011000020C0
:10489000FF010000120000200202000017000020AB
:1048A000000000204400002030000020F8B503265E
:1048B00000250A27A64C207E1038012840D9801EEA
:1048C00001286CD90E3801280FD9801E012800D884
:1048D0007FE0801F042808D90838012800D8BEE0EE
:1048E000801E012800D845E1F1BDA07E022827D016
:1048F0002000283001F0FCFACB480088206320001B
:10490000283001F0ADFAFFF70FFAC84E300001F081
:104910000EFB75724020FFF732F940B2D74A0023F0
:10492000D256811A3182D64900228956884200DB4C
:104930000125B574A06BF060300001F0ECFAF1BD18
:10494000207F010001D0401E20772000283001F098
:10495000CFFA4020FFF713F940B2C9490022895627
:10496000884206DB207F0028C6D1C6480078002890
:1049700006D0A576C4480088A084FFF74DFEC2E7A4
:10498000FFF7D2F9A576FFF76DFEC04801F0CFFA28
:10499000BE484672A06BBD49C8600846CDE7A07E00
:1049A0000128CDD0FFF75EFE207F010009D1FFF77F
:1049B000BBF9200001F0BBFA6672A06BE06020003A
:1049C000BBE7401E2077B0480088A084FFF724FE94
:1049D000F1BDA07E0128B3D003212820FFF7A0F865
:1049E0000D210220FFF79CF80320FFF7C8F800070D
:1049F000FAD5FEF7DCFAFFF7B2F90F20FFF7BFF8A0
:104A000000212E20FFF78CF880212F20FFF788F857
:104A100067769D480088A0841020FFF7B0F8000753
:104A2000000F09280FD1E1212920FFF779F8022191
:104A30002920FFF775F801212920FFF771F81121CE
:104A40002920FFF76DF808210720FFF769F8FFF725
:104A50006BF98E4801F06BFA8C4845729AE7A07E9C
:104A600004281FD0052875D005210220FFF758F82B
:104A7000FEF79DFAFFF773F90420A076BD4E3000D3
:104A800001F055FA7572F560300001F044FA20002B
:104A9000283001F02DFA206D20632000283001F02D
:104AA000D7F9F1BD03212820FFF73AF80D210220A4
:104AB000FFF736F80320FFF762F80007FAD50F205A
:104AC000FFF75DF800212E20FFF72AF880212F2024
:104AD000FFF726F867766C480088A0841020FFF75F
:104AE0004EF80007000F09280FD1E1212920FFF718
:104AF00017F802212920FFF713F801212920FFF7D9
:104B00000FF811212920FFF70BF82000283001F0C1
:104B1000EFF9FFF709F908210720FFF701F8964898
:104B20000068FFF779FE0520A076207E312808D0A6
:104B3000A67692480068FFF774FE2000283001F046
:104B400087F9524801F0F3F95048457222E700BF57
:104B500074000020FFF786FDA6762000283001F0C3
:104B6000C7F986480068FFF75CFE2000283001F096
:104B70006FF91CE7A07EC01F052806D801A1095CBB
:104B800049008F442142558596E2FFF76BFD0720CF
:104B9000A0767B480068FFF73FFE2000283001F038
:104BA000A7F9206D20632000283001F051F97548E5
:104BB00001F0BDF92821744801F018FBA06B714980
:104BC000C86008464772B8E6FFF7E8FC0620A07602
:104BD0006E480068FFF720FE2000283001F088F9B9
:104BE000206D20632000283001F032F9FFF79CF897
:104BF000644801F09CF92821634801F0F7FAA06BA2
:104C00006049C86009204872C7E605210220FEF706
:104C100087FF0920A0762000283001F069F9206B79
:104C200056490968401837E724000020841E0020F8
:104C3000FFF7B4FCA776FFF777F8524801F077F951
:104C40002821514801F0D2FAA06B4E49C8600B20D0
:104C50004872084601F05FF92000283001F048F959
:104C6000607F4B490978884200D3481E216B494A2E
:104C70000006800D105808180EE700BF060000203F
:104C8000080000200B0000202A000020981E0020B1
:104C90001C20FEF774FF002856D0C143080708D136
:104CA0000B20A0762000283001F022F9206B3A4931
:104CB000B7E7FFF7D7FC607F002801D101206077BC
:104CC000607F401C6077FFF72FF82E4801F02FF926
:104CD00028212D4801F08AFAA06B2A49C8604E723B
:104CE0002E480078617F884217D3264801F013F9D7
:104CF000FFF7A2FD0820A0762000283001F0F8F888
:104D0000607F23490978884200D3481E2449000661
:104D1000800D0858FFF785FDBFE609201949487244
:104D2000084601F0F8F8FFF739FC0620A0762000CD
:104D3000283001F0DDF81548006820632000283095
:104D400001F08EF8206B2065F1BD0820A0762000D0
:104D5000283001F0CDF812484068FFF762FD2000CE
:104D6000283001F075F837E680B508300D4909683C
:104D7000884701BDA81E00204400002048000020F4
:104D800054000020FC1D0020041E00204C000020C8
:104D90001F00002064000020700000201E00002082
:104DA00058000020501E0020F0B585B0C44D687A30
:104DB000002805D028000830C249096888477DE1ED
:104DC000C14FF826C14CC2480078002815D0207E7B
:104DD0003040282811D0A88D39784018694688813C
:104DE0001120FEF7CCFEC107C90F4842C3B2B94A31
:104DF00068468189686A01F0FBF9B74800780028A5
:104E000013D0207E0640282E0FD0A88D3978411867
:104E100089B2686AFEF7DCFA010000D12BE139782B
:104E2000401AAD490978401AA8850026AE61207E57
:104E3000122805D0207E132802D0207E31281DD1D3
:104E4000FFF710FC2000283001F052F8207E3128B6
:104E500009D10320A076A1480068FFF7E2FC2000FA
:104E6000283000F0F5FF200001F061F8667259204B
:104E7000216C8847E060200001F04DF898480078E8
:104E80000190A54800780290FF2807D0019A686A2F
:104E9000029941182800203001F0BEF99F4800789F
:104EA0000090FF2807D0019A686A009941182800ED
:104EB0001C3001F0B1F9207E222805D0207E232865
:104EC00002D0207E33287CD1267739789448007828
:104ED00008186084AB4F380001F088F9AA480078C0
:104EE000FF2809D0696A095C3954607F884201D083
:104EF000617701E0082068720298FF280BD038180B
:104F00000099FF29019A02D029001C3101E02100FB
:104F1000543101F081F90098FF2805D0019A210051
:104F20001031381801F078F99848007801000DD058
:104F30009749097879180A7882439446638C954A90
:104F400012789A1A1040624610430870624800783E
:104F5000002804D0618C3800FEF75AFA60845C485F
:104F6000007800280BD01120FEF709FEC107C90FF9
:104F70004842C3B2574A618C380001F039F9002128
:104F80000620FEF7CDFD00210720FEF7C9FD052113
:104F90000220FEF7C5FD03212820FEF7C1FD0A20EF
:104FA00060760320FEF7EBFD0007FAD420002830DE
:104FB00000F09EFF7848006820632000283000F051
:104FC0004FFF207E322802D0207E33284ED1207E13
:104FD000332801D0FFF746FBE868A17E083908D0E6
:104FE000891E012905D9FEF7AFFE20656B48E084D4
:104FF00023E0FEF7A9FE216D461A2E8368480021A2
:10500000415E2620205E01F0B9F8002804D130006E
:10501000FFF702FC770104E0E08C8719B010FFF77E
:10502000FBFBE7845E480021415E2620205E01F004
:1050300021F9E0844011688301266677FFF7FCFBC5
:10504000207E332810D00820A0762000283000F0E1
:105050004FFF5448617F89004058FFF7E2FB200072
:10506000283000F0F5FE01E00C20A0762800083082
:10507000144909688847207E21281FD0207E2228D5
:1050800002D0207E23280DD1474800688047647EE7
:10509000F0206872454800688047002C0ED1FFF769
:1050A0007DFA0BE0607E401E012807D80720FEF73E
:1050B00066FD012101430720FEF732FD05B0F0BD7A
:1050C000FC1D0020501E0020100000207400002055
:1050D00001000020FF010000170000204800002010
:1050E0001100002010B5324800F021FF314800F0D7
:1050F0001EFF314800F01BFF304800F018FF304C15
:10510000200000F014FF2F4800F011FF200028308D
:1051100000F0EEFE10BD0000120000201300002081
:105120001D000020F8B5002440258027C026B600C9
:1051300084213000FEF7F4FC3000FEF720FD3842F9
:10514000FAD16D1EF4D1202584213000FEF7E8FC51
:105150003000FEF714FD3842FAD1C2208000FEF77D
:105160000EFD009401023000084004001648FEF7CE
:1051700006FD010020000843009C24186D1EE3D1A9
:1051800020B2F2BD781900201C000020160000207B
:105190001400002015000020400000200080FFFFC8
:1051A0003000002058000020301E00202C1E00205F
:1051B000FC1D0020CC000020841E0020981E002032
:1051C00074000020A81E002009030000F0B587B07D
:1051D0000020CD490876FFF785FFCC48CC494160D7
:1051E0000021017201001C3100220A60203002609F
:1051F000C849C948486001220A72C8494860022467
:105200000C72C749486003220A72BF4948600421F2
:10521000BD4A1172C349486005200872C248D06275
:105220000020D076D064C148006880470020B6498D
:105230004876FEF7E8FB002801D0052002E2FFF7E0
:10524000CCFAFDF7B4FE09213020FEF769FC0821F5
:105250003120FEF765FCB648006880470521022032
:10526000FEF75EFC08211020FEF75AFC0021FF200B
:105270006230FEF755FC0021B1204000FEF750FCE3
:105280000021FF206430FEF74BFCFFF70BFA0020F3
:105290000090CB4FCB4E1DE0022000F051FF38684C
:1052A000804700F0FDFE306880479748407E062822
:1052B000F2D100209449487600210620FEF730FC08
:1052C0003320FEF75CFC2870386880470098401C4B
:1052D000C0B200900098D349097888423CDAD2489D
:1052E000009989004558E9B23720FEF719FC2904D6
:1052F000090E3620FEF714FC2902090E3520FEF7B0
:105300000FFC290E3420FEF70BFC30688047052087
:105310007D49487610210620FEF702FCCA48009914
:1053200045181020C9490978F022114203D1C74914
:10533000009A895C0AE01821009A002A08D0691EA8
:1053400009788A0600D508210907090F08430100DA
:105350003320FEF7E5FBA6E7BD480078002800D122
:1053600038E1FDF724FE08211020FEF7D9FB0021CB
:10537000FF206230FEF7D4FB0021B1204000FEF791
:10538000CFFB0021FF206430FEF7CAFB3020FEF780
:10539000F6FB042101433020FEF7C2FBB34D280089
:1053A000FEF7EDFB80210143C843204200D0491C99
:1053B000C9B22800FEF7B4FB0C210220FEF7B0FBB7
:1053C000C0204000FEF7DBFB6946887168464471E7
:1053D000002010E000240498047068464079401EC4
:1053E0006946487168464079002834D101204871E7
:1053F0000098401CC0B2009000988A490978884201
:1054000000DBE1E09A4800994018049000200499DC
:1054100008708D4800994018059000788106E7D4FF
:105420000107090F3320FEF77BFB7F4800998900B5
:105430004458E1B23720FEF773FB2104090E3620F1
:10544000FEF76EFB2102090E3520FEF769FB210EE7
:105450003420FEF765FB8748007800286FD0854828
:105460000099405C79490978F02211420AD10599E6
:1054700009780907090F40187449009A895C0907DF
:10548000090F401A7C4C47067F0E3D000026B819D4
:105490006946087168460079C021084210D1684603
:1054A000007980210143C0204000FEF739FBFFF75F
:1054B00039FE81B2A2B2914202D204006846057957
:1054C000002E18D0B81B6946087168460079C021C3
:1054D000084210D16846007980210143C020400075
:1054E000FEF71EFBFFF71EFE81B2A2B2914202D26E
:1054F000040068460579761C102EC8D1A4B2112C80
:1055000018DA8020384317E074000020FC1D0020CA
:10551000A94D0108CC000020694D0108841E00201F
:10552000981E0020A81E0020AD480108381E00204B
:10553000341E002080202843049908704DE7002481
:105540004D480390029440256D1EEDB280272F43F5
:105550003900C0204000FEF7E3FA3320FEF70FFBCE
:10556000FFF7E0FD86B23320FEF709FB43496A00EE
:105570008E520298B04200DA02960398864208DA08
:1055800003963320FEF7FBFAC143C020014200D14D
:105590003C00002DD8D1200600D41BE70298FF2143
:1055A0000902884200DB15E70398FF2800DC11E7B9
:1055B00002980399401AC021C9018842F6DB0AE724
:1055C0002C1E0020301E002068468179C02040003B
:1055D000FEF7A6FA00210220FEF7A2FAFFF7FDF877
:1055E000FDF74CFD184800780107090F3320FEF73E
:1055F00097FA0D480468E1B23720FEF791FA2104CA
:10560000090E3620FEF78CFA2102090E3520FEF72E
:1056100087FA210E3420FEF783FA01201849087614
:10562000002004E00200002034000020401C154946
:105630000978884205DA0449095C8906F6D506200E
:1056400000E0002007B0F0BDEE1E002003000020A7
:10565000050000200A48417E002902D0407E022831
:1056600001D101207047002070470000350F000075
:10567000EF1E002004000020FFFF00007C1A002025
:105680007400002002000020F8B50500BB4C217E0C
:10569000884275D000270126207E00280AD0801E6F
:1056A0000DD0401E1AD01538042817D910380528F7
:1056B0002DD931E0FFF78AFD010030D0F2BDFEF7B1
:1056C000A0F9002801D00520F2BDFFF786F8E07EA2
:1056D00000F084F90100F7D167761FE0BD4800684B
:1056E0008047607E00280AD1FEF71EFB200000F0F4
:1056F0001EFC6772A06BE060200000F00CFCFEF75F
:10570000B1FFB54800688047FFF767F806E0FEF78D
:10571000A9FFFFF762F82676FEF7A4FF2676FFF7CB
:10572000E1FC280028D0A776FF20032102266A1E6C
:1057300026D0521E21D0521E00D1D3E00D3A20D0E7
:10574000521E23D0521E1CD0521E1FD0521F042A9C
:1057500040D9083A1FD0521E35D0521E1BD0521EBF
:1057600031D0521F052A7AD9083A012A00D8F3E02D
:10577000921E012A00D803E12AE1FEF738F92676C5
:1057800024E125766077FDF712FC20E0257660772E
:10579000FDF70DFC1BE025766077FDF76FFCFEF74B
:1057A000DEFAFEF7FBFEB548007800280AD020009C
:1057B000283000F09DFBB24800882063200028308C
:1057C00000F04EFB02E160772576FDF757FCFEF70F
:1057D000C6FAFBE02576207E182802D0207E1A2803
:1057E00003D100211120FEF79BF9207E192802D059
:1057F000207E1B2803D104211120FEF791F9207E81
:105800001A2802D0207E1B2807D13002FEF7B7F9F4
:105810004106490E3002FEF783F9FDF7C8FBFEF79B
:105820009EFA00211220FEF77BF9FEF7F5FE0F200D
:1058300060760320FEF7A3F90007FAD5032128209C
:10584000FEF76EF90F20FEF79AF9FEF76DFAA14DFB
:10585000280000F06CFB6F72A06BE860B3E0257667
:10586000FDF70CFCFEF77BFA207E282802D0207E74
:105870002A2803D100211120FEF752F9207E292881
:1058800002D0207E2B2803D104211120FEF748F9F5
:10589000207E2A2802D0207E2B2807D13002FEF756
:1058A0006EF94106490E3002FEF73AF90021122046
:1058B000FEF736F908218C208000FEF731F900212F
:1058C000FF201830FEF72CF9207E2D2809D1FDF796
:1058D00045FC04212320FEF723F904212220FEF7B2
:1058E0001FF95EE72176FDF762FBFEF738FA082123
:1058F0001020FEF715F90021FF206230FEF710F9A5
:105900000021B1204000FEF70BF90021FF20643098
:10591000FEF706F90021FF206630FEF701F90021AD
:10592000B3204000FEF7FCF80121FF206830FEF7AD
:10593000F7F804212320FEF7F3F807210220FEF7F1
:10594000EFF80E20607600210720FEF7E9F801212C
:105950000620FEF7E5F839E02576A176200028300C
:1059600000F0C6FA26632000283000F079FA206B98
:1059700020655E480068FEF74FFF27E074000020B6
:105980002576FDF77BFBFEF7EAF9FEF707FE06201A
:10599000A0762000283000F0ABFA5548006820635C
:1059A0002000283000F05CFA206B2065514D280063
:1059B00000F0BDFA28212800083000F017FCA06B89
:1059C000E86009206872280000F0A5FA0020F2BD06
:1059D0000120F2BD301E00202C1E0020F8B5474AE1
:1059E0001278904201D30420F2BD434AD076444954
:1059F000095C8B0601D50620F2BD424B8000185889
:105A0000D26C8418270A0E07360F80253020FEF747
:105A1000B6F8284213D031003320FEF781F8E1B206
:105A20003720FEF77DF8F9B23620FEF779F821022B
:105A3000090E3520FEF774F8210E342012E03100F3
:105A40003B20FEF76DF8E1B23F20FEF769F8F9B2AE
:105A50003E20FEF765F82102090E3D20FEF760F8B2
:105A6000210E3C20FEF75CF83020FEF788F8454018
:105A700029003020FEF754F80020F2BD0900002074
:105A80002400002038B51C48C17E80221E480078C2
:105A9000002803D01D48405C104219D11C48405CCE
:105AA000104211D01B4B1C78F0252C4210D10F2432
:105AB000134D6D5C25404019595C0C40001B80065D
:105AC000800E0243100032BDC0204000FEF757F8A0
:105AD00032BD0000A81E002080B508220100BE488B
:105AE00000F09AFBFEF702FE01BD00004800002016
:105AF00050000020FC1D0020740000200200002047
:105B0000EE1E00203400002005000020EF1E0020C3
:105B10000400002003000020F5B581B00C001F0038
:105B20009600AE4D287E1038032800D889E008384A
:105B3000042806D9083801285ED91038012877D9F9
:105B400047E12C20E96B8847390001D169460E896D
:105B5000F61CB04200DA88E068460089002838D098
:105B600068460689E1212920FDF7DAFFF6B2310007
:105B7000380000D08900491CC9B22920FDF7D0FFA8
:105B800008212920FDF7CCFF002F1AD0002520780E
:105B90006A0001009140802211406A00521C90402E
:105BA0000011082210400843772101432920FDF706
:105BB000B7FF641C6D1C042DE9DB761E3006E5D1B1
:105BC00007E021782920FDF7ABFF641C761E300624
:105BD000F7D104212820FDF7A3FF81480068804702
:105BE0000720FDF7CCFF082101430720FDF798FFB0
:105BF0007C4800688047EAE0A87E002824D1002184
:105C00000620FDF78DFF00210720FDF789FF052104
:105C10000220FDF785FF03212820FDF781FF0320E7
:105C2000FDF7ADFF0007FAD4FDF7C1F9FEF797F8CD
:105C30006D4800782877687F401C6877380005D069
:105C400006E0A87E0028F3D00220FEBD6846068943
:105C5000664800786946087068460078301868849D
:105C6000688CFF21891D884201D30420FEBD604E4F
:105C700068460178300000F0B9FA002F1DD00021ED
:105C80006846008981421FDA0022635C57001800D1
:105C9000B8408027384057007F1CBB401B110827A5
:105CA0003B400343772018438B009B18F054521C51
:105CB000042AEADB491CC9B2E2E7684602892100EE
