:020000040800F2
:10000000E80B0020857400081174000813740008C0
:1000100000000000000000000000000000000000E0
:10002000000000000000000000000000157400083F
:100030000000000000000000177400081974000898
:100040009F1D0008D32D0008B7310008EF320008CB
:10005000C73E00080D5D00085B4700081F4A000806
:1000600000000000CB4A0008EF4A00080F4B0008D0
:10007000CB4B0008455A0008CF4B000867620008C8
:100080004F64000827660008AB5A00080000000013
:10009000D7690008736F0008637400086F74000864
:1000A000A9740008AB740008AD740008AF740008B0
:1000B00025740008B1740008000000000000000072
:1000C000F8B500200021294A0C01641A1055491C7A
:1000D0008029F9DB0021264A0C01641A1055491CBD
:1000E0002029F9DB0021B44A8B00D052491C102989
:1000F000FADB0021B14AF4244C431419E070491C86
:100100000429F8DB00F0B2FFAD4CAE494969AE4AB4
:100110008D189621890001F025F8681A2061AB4FEF
:10012000AB4DAC4EF07E400604D5012001F0E4F862
:10013000A94B13E000F04EFDF07E000605D4002030
:1001400001F0F8FB002001F0A0FB00F0F2FE01201E
:10015000A2490968496A8847FA239B0001222900BD
:10016000200064303C686468A047F1BDE80B0020C3
:100170003C170020F1B586B00D00002000906846C5
:100180004572002069468880EDB2924F2800B97907
:1001900000F0E8FF1F2803DB062001A988707DE03E
:1001A00001208E490968C9688847802601F0ECF96A
:1001B000361AF6B2B979A94203D33879C01C8642FF
:1001C00064DB280000F0CEFFC01C86425EDB01F03D
:1001D000AFFC0490B9798D4239D2681CC0B201F0ED
:1001E00034F9040052D0049800886070A07980210E
:1001F0000143A1716806400E8038E0712A0006991B
:100200002000083001F03CFD02202070F878A0703A
:1002100073484068C506ED0E401C71494860A079DE
:10022000E02101400D43A571F878002801D038780D
:10023000002800D1AFE06A484068397900F095FFA6
:10024000002900D081E040202843A07185E00020F3
:1002500069460872B8790326EAB290420BD2009937
:10026000002901D1032100E00021401AC0B203900F
:100270006846017201E0EDB2039503986946097A78
:100280004018C0B201F0E1F8040009D1052001A92D
:100290008870002051490968C9688847019888E03A
:1002A0000498008860700098002800D10026039A06
:1002B00006980099BB795943891B41186846007A12
:1002C0002018C01D01F0DCFC02202070F878A0701E
:1002D00043484168C806C00E491C414A5160A17993
:1002E000E0220A401043A07120260399EDB2A942F2
:1002F00013DA3043A071009900290ED18021014307
:10030000A1710220E0716846407A401C2072684664
:10031000417A069801F0E2FC607203982D1A009869
:10032000401CC0B2009028061BD10098012818D1AB
:10033000F87800282FD0387800282CD0284840683A
:10034000397900F012FF002903D08C480078401C56
:100350001BE0A07940210143A17188480078401C2E
:1003600011E0A0790643A671F878002810D03878FB
:1003700000280DD028060BD140203043A0710098F2
:100380007E4909784018207100207C49087002E0FD
:10039000280600D05BE700F0CCFD00200F4909687B
:1003A000C9688847684604990A8802804A8842805A
:1003B000009807B0F0BD0000982000206C130020CA
:1003C0008400002000000020D4FEFFFFA81E0020B3
:1003D0009D0D0008D820002060EA0000A41E002027
:1003E000C4210020F0B5C3B000206946C87011E0F8
:1003F00003AC68468078022802DB002000F077FC1E
:1004000000205F490968C96888476846018820005C
:1004100001F0F0FB01205A490968C968884769461C
:1004200000A8801C01F09AF9040006D1002054496C
:100430000968C968884743B0F0BDA079C10931D0C7
:10044000E27913062ED55006400E4E49897900F008
:1004500089FE6846018002882100083103A801F066
:100460000FFC48480079022801DA0B20207068460A
:10047000C0780028BCD068460088401E69460880C5
:1004800068460188C9B203A8401C01F027FC6946F0
:10049000097B88426ED03C48007BC006C00E01F04C
:1004A000C7F9C3E7C006C00E0290002906D000F0CD
:1004B000C3FFC079022801D1012000E00020694675
:1004C000C870684600880190002413E0380000F0EE
:1004D000B3FF0B2101702B480079022808DA684627
:1004E0008078012804D1380000F0A6FF0B210170AC
:1004F000641CE4B2684680788442B8D00025029932
:100500000919CF06FF0E002C06D1022804DB1D4876
:100510008079861E022507E01A4881790198884271
:1005200001DA00F01FFE0E00380000F085FF010028
:10053000002C02D00120C04300E00020F6B23200BF
:100540004919C91D03AB0F4DAD7965435B191818E7
:1005500001F096FB0198801B80B20190380000F0FA
:100560006BFF80798009C007B0D5380000F064FFC8
:100570001521AFE703A8441C3BE700006C220020D4
:10058000A41E0020D8200020C4210020F2B582B093
:1005900007009F4C012060719E488068401C9D4967
:1005A0008860087C41000818029909794018801079
:1005B00098490874029800796070029840880299FE
:1005C0000979401A2081E078002807D020005030B7
:1005D00091490968896888470020E070E0680178DF
:1005E000142901D121780170002501263978CA0922
:1005F00000D189E07A786B469A706A469278120642
:1006000000D581E06A469278092A55D801A39B5CFF
:100610005B009F4404BD71046B7188A86BB50278C0
:10062000102A49D1C906C90E8079C006C00E814280
:1006300042D1200028307849096889688847A57028
:10064000E0680179002906D17249498A491C714A3A
:100650005182082101706F48407C41000818B97927
:10066000401880106B494874387AAE49087081068A
:1006700002D5C021014301E08106890E0802F97903
:10068000084369460880009800B2002806D000F0B0
:100690006CFE009909B2401800F05CFB78780028E5
:1006A0000BD12802B91949784518761C052EF8DBBC
:1006B0002900E06801F06EF96AE0B878994948804D
:1006C0000002F9784018974948804888964988423E
:1006D000387905D10002797940184E49C86157E050
:1006E0000002797940184B49086251E00020C0436C
:1006F00001F09EF8A5714BE0A079002803D00020FE
:10070000C04301F095F8A6710921380001F00CF8FA
:10071000002800D089E00821387800F0C0FE0500EC
:1007200000D07BE0F7BDB81C01F0F8FC00282FD00A
:10073000082000F08AFE05002AD00620E871072272
:10074000B91C2800083001F09BFA3878C006C00EAA
:10075000A979E0220A401043A87180210143A971C0
:100760001320287014E071480068006B01000FD05E
:10077000B978DE290CD1F978AD2909D1804707E095
:100780000422B91C01A801F07BFA019800F0E2FAFA
:1007900038788009C00739D5032000F045FF0028CC
:1007A00034D1082000F051FE00287CD00321C17113
:1007B0001849C969090A01721649C969417215497E
:1007C000096A090A81721349096AC1720299097991
:1007D000017321896A39417355490978554A12785C
:1007E0008918554A927D9206920E8918817339783C
:1007F000C906C90E8279E023134019438171802212
:100800000A43827100218170132101704BE000BF07
:1008100084000020C4210020A81E002009223900E5
:10082000A81D01F02DFA07202870FFF7DBFD3878AE
:100830008009C00737D5002000F0F6FE002832D12D
:10084000082000F002FE05002DD000F04BFF002133
:10085000E971010E2972010C6972010AA972E8722C
:1008600002980079287320896A38687330480078C4
:100870003049097840183049897D8906890E401829
:10088000A873A879E02101402C48007BC006C00E67
:100890000843A87180210143A9710020A87013208A
:1008A000287000F046FB3878602101402029E0687C
:1008B000017814D1142902D02170142101701E482E
:1008C000807800F07BFB03000122A5492000503016
:1008D000BA4D2D686D68A8470120E07003E0142927
:1008E00001D12178017038788009C00701D401F066
:1008F00081FA00F0F9FD002802D000F01AFBF7BDE4
:100900000D480078012809D12071AD4B0122AD4975
:1009100020003C30A94C24686468A04700F05AF9D4
:10092000F7BD00001800002008100000A41E0020E1
:100930002200002021000020D8200020C421002017
:10094000F1B584B0BA480078042805D100F042F926
:1009500000F08BFF9C4BF9E09C4C9D4800780028F0
:1009600002D101F0C6FE002800D0C6E00126E068F2
:100970000078102802D0142823D034E0A078002872
:100980001ED1AB48407800F0F7FA0500A8488078FF
:1009900000F014FB2D1800F069FB0700A4488078D4
:1009A00000F012FB0100380000F0DFFB6B180122A1
:1009B000A04920002830814D2D686D68A847A67099
:1009C000A6E0E0780028FBD19948807800F0F6FA9C
:1009D00003000122624920005030784D2D686D6877
:1009E000A847E67094E000F07FFD050000D181E0AB
:1009F000A878002832D0A879800930422CD08C48C1
:100A0000007800282AD0022800D029D2102028708F
:100A10008748407800F0B0FA07008548807800F0F9
:100A2000CDFA3818029000F021FB0700804880784A
:100A300000F0CAFA010002980090380000F095FB1F
:100A40000098431801227B49200028305B4F3F6803
:100A50007F68B847A67003E0062000E005202870F4
:100A6000E560A8798009304207D100F03DFD0028FB
:100A700003D0A87920210143A971A879C00919D010
:100A8000E87908280DD100F070FC0190A879802148
:100A90000143A971042201A92800083001F0F0F8EF
:100AA00008E00A2806D19D484168090C697340682E
:100AB000000AA8732079002807D0002020712000A8
:100AC0003C303E490968896888470221687801F00E
:100AD0004BF8280002F04EF82878052818D1032199
:100AE000687801F041F8280000F03AFD2000183045
:100AF000E0600DE000F06EF80AE001209D49096811
:100B0000496A88476169884201D3002900D1606140
:100B1000994C2078032801D100F05CF84448007813
:100B2000022812DA00F0E0FC00280ED128480078F4
:100B300000280AD101F0DDFD002806D100F04AF8B6
:100B40002078002801D18D4B00E0322301220021C2
:100B500004981A4C24686468A04705B0F0BD0000F2
:100B6000EF0C000838B50020854908700125174CA6
:100B7000E06880798009284206D100F0B5FC0028A1
:100B800002D000F0D6F931BDE068807980092842B2
:100B90000ED12748007801280AD12571794B01220E
:100BA000084920003C30784C24686468A04701E084
:100BB00001F020F900F00EF831BD0000A81E002061
:100BC000B80B0000210C00083075000084000020E4
:100BD0007400002080B568480078154A1278002A11
:100BE00017D0012A04D0022A0ED0042A11D015E011
:100BF000664A1379002B07D1D2681278032A03D0F2
:100C0000102A01D0142A04D1012807D001F0CFFF07
:100C100002BD002802D001F039FD02BD002002BD56
:100C200080B5002059490871FFF7D4FF01BD0000CD
:100C3000D8200020390C0008F8B505005248066895
:100C4000534C54480078002809D0A07800F0B6F939
:100C500003000122504928007468A047F1BD4B4DA4
:100C600028002830B16888470027AF70E86800780E
:100C700010283BD1B448818A491C8182012001F0AF
:100C8000F1F900F03CFFE968CA78521CCA70EB68C1
:100C9000D2B2904226D20421587800F065FF00F0CD
:100CA000A8FCE8688179C90905D0C0790A2802D171
:100CB00001F08CFB18E00226E07E304214D101F0F6
:100CC00041FC002804D001F095FB01F0B7FB05E0E2
:100CD000E868C770E868067001F08CFB002000F03F
:100CE00029FE01E00320187000F023F9F1BD10B5D2
:100CF000264C200050302449096889688847002024
:100D0000E070E0680178142901D12178017000F0C9
:100D1000EBFB002801D000F00CF910BD50220020A0
:100D200010B514480068806A884C010002D08047E2
:100D3000606010BD86480068C0688047800AA1686E
:100D4000884201D3411A00E0091A626851186160B3
:100D5000A06010BD10B50400FFF7E2FF7B484460BF
:100D6000012101707B490968C96A0A0001D0204647
:100D7000884710BDA41E0020760000201027000028
:100D800075000020204E0000A81E002084000020D6
:100D9000D820002074000020390C0008F8B5FFF7B7
:100DA000BFFF6D4D6D4C6089002805D100F05EF9E4
:100DB000298B00F0D7F9618165480068466828787A
:100DC0006749684B042804D1012220006430B047F1
:100DD000F1BD022801DBFA239B00012220006430D0
:100DE000B0476089401C6081002780B2298B491C74
:100DF000884262DB01206081A87E0100E8D0FF28E4
:100E000001D0401EA876012000F00EFC0028DFD1A2
:100E1000082000F01AFB0600DAD00120F0713772CA
:100E20006069002805D101204A490968496A884754
:100E30006061616996204000814201D3802000E01A
:100E4000002000900800642100F08FF900984018FD
:100E50007072676100203F490968496A8847B0722B
:100E60003948007CF0723848407C307301F045FC12
:100E700001003D4801F0FEFE01F08CFF7073A87D7B
:100E8000B07331484168C806C00E491C2E4A5160F3
:100E9000B179E0220A401043B07180210143B17161
:100EA0002878002807D0E878002804D00120B07006
:100EB00040200843B07102203070E87E400737D4EC
:100EC00028780228206901DA3C3000E0401C2061CB
:100ED00020692649496988422AD32761E878002891
:100EE00000D001200A2100F0FAFCE878002800D0A8
:100EF0000120082100F0F3FCE878002800D0012050
:100F0000092100F0ECFCE878002800D00120112134
:100F100000F0E5FCE878002800D001200D2100F069
:100F2000DEFCE878002800D001200E2100F0D7FC7C
:100F3000F1BD10B5012301220D490E48044C24686F
:100F40006468A04710BD0000C421002038220020A2
:100F5000A81E0020A41E0020D8200020840000200D
:100F60009D0D000860EA000000001643000000200C
:100F7000410900080022002010B594B004000AA81E
:100F80001EA1282200F090FE684600BF25A128225D
:100F900000F08AFE222C0DDAA0001E2C03DB69462D
:100FA0000818783804E0142C04DB0AA90818503813
:100FB000006800E0009814B010BD00001FB50400E8
:100FC000684600BF21A104E01FB50400684600BFC9
:100FD00022A1102200F068FE122C0BDA6846A10054
:100FE000401838380E2C01DB006804E00A2C01DBC5
:100FF000006900E0009804B010BD000030750000EA
:101000003075000030750000881300008813000060
:1010100088130000E8030000E8030000F40100006A
:10102000F401000070170000E8030000F401000064
:10103000F4010000000000000000000000000000BB
:1010400000000000000000000000000060EA000056
:10105000D8D60000A00F0000A00F000088130000E9
:1010600088130000D0070000D0070000F8B52F4E0D
:10107000300001F0ACFE0090301D01F0A8FE04002D
:101080003000083001F0A3FE050030000C3001F004
:101090009EFE2749274A009B1B78002B36D12368E8
:1010A00053435B18236053435B18236053435B181F
:1010B000236053435B18236053435B1823605343FF
:1010C0005B18236053435B18236053435B18236012
:1010D00003000826276857437F1827601F6027688A
:1010E00057437F1827605F60276857437F18276042
:1010F0009F60276857437F182760DF601033761E94
:10110000E8D1C36F2B600123009E337023685343E3
:10111000591821602978C906490E401801682960CC
:1011200021680160286880008008F2BD500100201D
:101130005FF36E3C0D661900F446002804D4494262
:1011400000F013F8404260474042002905D45FD0C8
:1011500000F00BF8404249426047494200F005F870
:101160004942604703460B43E6D40022030A8B4200
:101170000BD203098B4219D243088B422ED2411A5B
:1011800000D20146524110467047FF2209023FD06B
:1011900012068B4205D3121209028B4201D312129E
:1011A000090203098B4219D300E0090AC3098B42E3
:1011B00001D3CB01C01A524183098B4201D38B0169
:1011C000C01A524143098B4201D34B01C01A52410C
:1011D00003098B4201D30B01C01A5241C3088B4251
:1011E00001D3CB00C01A524183088B4201D38B003C
:1011F000C01A524143088B4201D34B00C01A5241DE
:10120000884200D3401A5241CFD20146104670475F
:1012100008B501F0DDFD08BD80B5794B186459644F
:10122000002801D0002900D1FEE7100000F0A8F846
:1012300001F0E0F8FEF744FF01BD38B50500724C3F
:101240000120216CC9688847280000F0F0FCC0E04C
:1012500070B5C2B06A4C206C4069002809D003E028
:1012600001A8226C5269904701A8FFF7E6FF010030
:10127000F6D1206C016900292AD1624900250A783B
:10128000002A06D0C26A100003D00D705F480068C3
:1012900090475F4E307800280FD0216C086A0028F4
:1012A0000BD00120C96888475A48216C096A8847D1
:1012B00035700020216CC968884742B070BD68460F
:1012C00029880180698841800098216C09698847D4
:1012D0000120216CC9688847032000F06BFC0500E1
:1012E00003D1042000F066FC05000020216CC968D1
:1012F0008847002DE3D1E0E770B590B00600464C7A
:10130000444D06D00420287000F0AFFA01F0BEF979
:1013100010E0207800280DD0684601F0B3F8684648
:1013200000782870002000F005FB002000F0ADFAE6
:10133000FFF7FFFD267010B070BD38B5304C0120AE
:10134000216CC96888473548007800280BD134489B
:101350000078002807D100F017F9002803D101F028
:10136000E3F9050000E0002534E038B5244C012005
:10137000216CC9688847FFF7D3FC2448056829E039
:1013800070B506001E4D0120296CC9688847254CA0
:1013900020003100182200F087FC7068002807D078
:1013A00001F050FC204842680168606801F00EFEC0
:1013B000FFF75CFE61691D4A8C1896218900FFF7D2
:1013C000D1FE601A1A4908600020296CC968884754
:1013D00070BD05000020216CC9688847280032BD17
:1013E0000948006C016A080000D1704700B591B04F
:1013F00000206A4650706846884711B000BD000062
:10140000641E002038220020641E00203C220020A0
:101410001C000020D8200020E001002074000020E3
:10142000760000200000002050220020D4FEFFFFA4
:10143000940000208F4900E07A490201101A081830
:101440000178002900D100207047F8B504008A4FC8
:101450003D786E06760E3000FFF7ECFF0021002885
:101460000AD00278921E012A08D9121F06D00A3A21
:1014700004D0D21E02D00170092C01DB0020F2BD85
:101480007C483201921B80180122027044718170E5
:10149000C1700171817141706D1C3D70F2BD70B5FC
:1014A00005000C00EE06F60E8B4801680978891ECF
:1014B000012901D90E3901D1884901603000FFF7B7
:1014C000BBFF002801D000210170092C01DB0020A6
:1014D00070BD8348C66053483101891B4018012103
:1014E00001704471857170BDD0B5634804782700E0
:1014F000803F3E0009E07F203040FFF79BFF00283F
:1015000002D0017813292AD0761CF0B2A042F2D181
:101510003E0009E07F203040FFF78CFF002802D01A
:10152000017803291BD0761CF0B2A042F2D100E072
:101530007F1CF8B2A04211D07F203840FFF77AFF1D
:101540000028F5D00178022909D01029F0D162498C
:1015500009688842ECD003210170D0BD0020D0BDC5
:1015600070B50400444805782E00803E08E07006FF
:10157000400EFFF75FFFA04201D100202070761CD3
:10158000F0B2A842F3D170BDF8B500243A4805780E
:101590002E00714F01E0641C761CB6B2280080302A
:1015A00086421AD07006400EFFF744FF0028F2D0A2
:1015B0000178891E012910D9091F0BD00A3902D0E0
:1015C000C91E0AD0E7E744490968884205D00321CB
:1015D000017002E038790228DDDA944800780028AA
:1015E00003D0E4B2802C00D1641E8020001BC0B266
:1015F000F2BD70B509243848006804701E480578AB
:101600002E00803E0AE07006400EFFF713FF002810
:1016100003D00178062900D10470761CF0B2A842EC
:10162000F1D170BD3C170020F8B507000024124826
:1016300005782E00803E17E07006400EFFF7FAFE98
:10164000002810D08179C9090DD0C179B9420AD1D9
:101650000078801E012805D9001F03D00A3801D068
:10166000C01E00D1641C761CF0B2A842E4D1E0B2E6
:10167000F2BD0000E80B00206D22002070B50400D0
:10168000AB4805786E1E00E0761E28007F30F1B270
:10169000C0B281421DD07006400EFFF7CBFE00287D
:1016A000F2D08179CA0906D0C279052A03D0022A6C
:1016B00001D01206E8D50278521F012A04D9D21EA1
:1016C000012A01D9083ADFD1C906C90EA142DBD1EE
:1016D00070BD002070BD0000900000209C00002024
:1016E000C4210020F8B5002401251F27A848C068A0
:1016F000401E1F2606400DE01F203040FFF79CFED5
:10170000002805D00078072801D00B2800D12C43F1
:10171000761E6D00F6B21F2030409D49C9683940E1
:101720008842E9D12000F2BD38B505000C00984888
:10173000007BC006C00EFFF77FFE801D002101E088
:10174000491CC9B2A14205D0425C6B5C9A42F7D0F9
:10175000002032BD012032BDD8200020F2B50700A4
:101760008B48C468641C1F2600E0641C8848C0685D
:101770004030A04258D300203870009908800025DE
:1017800004E00D7A4879801E009908803978611844
:101790001F200840FFF750FE010033D008780728CB
:1017A00030D101233878002812D13B708879820625
:1017B00006D5020604D5CA79052AE2D0022AE0D06D
:1017C000A0220240202A20D04879009A108017E0F9
:1017D000009800884A798018009A10803A78521C44
:1017E0003A708879400918420CD000980088A842C5
:1017F00002DAD2B21F2AC9DBA84203DB00980580B7
:101800000A20087038780028AFD039786018411E57
:101810001F200840FFF710FE00780A28A5D12640B7
:101820003000FFF709FEF2BD0020F2BD7500002078
:1018300038B5050000240020C04385420CD02000AC
:10184000FFF7FAFD8079C006C00E854204D1200062
:10185000FFF7F2FD072103E02000FFF7EDFD152162
:101860000170641C202CE6D131BD38B50024002560
:101870002800FFF7DFFD002800D004706D1C802DCC
:10188000F6D1B848C549086031BD10B5040008203C
:10189000FFF7DBFD002821D00821C171C04909787C
:1018A0000173C04909886A394173BF490978BF4A41
:1018B00012788918BE4A927D9206920E8918817319
:1018C0008179E0220A40E106C90E1143817180222C
:1018D0000A438271002181701321017010BD70B51F
:1018E00005000C000820FFF7B0FD060001D1002024
:1018F00070BD0620F07134723000083000F00EFC2C
:10190000B079E021014022480079C006C00E0843AA
:10191000B07180210143B171002D05D0B448C07869
:10192000B07040200843B07113203070012070BDAA
:101930006D22002010B504000820FFF786FD002866
:1019400024D00A21C1719A490A78283202724A7851
:1019500042728A7882728A8C120AC2728A8C0273EC
:101960008279E0231340A14A1279D206D20E1A439B
:101970008271802313438371002C04D0C978817055
:1019800040211943817113210170012010BD000015
:10199000C4210020F1B582B08079C706FF0EC8438C
:1019A000410000250024029800798006800E421E26
:1019B000012604E02300012494401C43521E130618
:1019C000F8D10C4000950BE0082028708748408A29
:1019D000401C864948827F1E760068460079401E7A
:1019E0006946087168460079002823D0F806C00EC1
:1019F000FFF744FE05001DD02642E5D0B44300F0B9
:101A00007EF8E978491CE970C9B2884206D20421FF
:101A1000687800F0A9F8FFF7ECFDDCE703202870F8
:101A20000098002800D100957048808A401C6F49BA
:101A30008882D0E70098002824D08179402008438C
:101A40000099887102990979029A9279D206D20E88
:101A5000891AC006C00E0818009908710299897980
:101A6000C906C90E009A9279D206D20E914202D2CC
:101A70002030009908710098007980210143009876
:101A80000171F7BD454D002C05D128688079C0064D
:101A9000C00EFFF7FAFE03212868407800F064F8D2
:101AA000F7BD0000212828D801A1095C8F4400BFA0
:101AB00022262A2E4A4A4A4A4A4A34383E444A4A48
:101AC0004A4A4A4A4A34224A38263E2A442E343860
:101AD0003E44C8207047FA2007E066487047E1207E
:101AE0000002704732207047C82040007047C8206D
:101AF00000017047C820C00170470020704738B50A
:101B0000C82424013A4DA878FFF7CCFFA0420BDB94
:101B10006878FFF7C7FFA04206DB68790107090F65
:101B200000090818C0B232BD68790007000F32BD45
:101B300010B551490A781007800E0818001D521C74
:101B40000A704A88521C0123140401D0140001E0D9
:101B5000012201244A80048083700021C17010BDDD
:101B6000000000009C000020F0B5434A14782300D8
:101B7000103B00E05B1CDDB2A5420DD0DBB21D07BF
:101B8000AD0E55192D1D2E883700F3D0F6B28642C2
:101B9000F0D10020E870A970F0BD00009000002096
:101BA000850000208C000020220000202100002061
:101BB000D820002070B5304A13781C00103C060075
:101BC00000E0641CE0B298420DD0E4B22007800E21
:101BD0001018001DC578002DF3D18578B542F0D1DD
:101BE0000121C17070BD002070BD0000C421002023
:101BF000D820002030B5214A1478A3079B0FF42584
:101C00006B43D3181B1D641C147054881C805488AB
:101C1000641C548099700122DA70002204E0845C14
:101C20009D182C71521CD2B28A42F8D130BD30B509
:101C300012490A78131F00E05B1CDCB2944217D0F3
:101C4000DBB29C07A40FF4256C430C19241DE57826
:101C5000002DF1D00021002204E0A3181B79835449
:101C6000521CD2B2A3789A42F7D1E170A07830BD6D
:101C7000002030BD8813000094200020681300204D
:101C8000124207D08B0706D00B78491C0370401C0A
:101C9000521EF7D87047830706D00B78491C037093
:101CA000401C521EF9D1704770B4103A03D378C962
:101CB000103A78C0FBD2530701D318C918C001D518
:101CC00008C908C0D20704D30B880380891C801C74
:101CD000002A01D50B78037070BC704770B5020004
:101CE000002000242BE0E4B2155D68400025C60703
:101CF00000D55E25860702D52E00BC257540460717
:101D000002D52E0061257540060702D52E00C2259A
:101D10007540C60602D52E009D257540860602D563
:101D20002E0023257540460602D52E004625754017
:101D3000000602D528008C2545402800641CE5B229
:101D40008D42D0D370BD000608214200002802D584
:101D50000348504000E01000491EF6D170470000D3
:101D6000B71DC10470B504000D00160008E0297805
:101D7000200E4840FFF7E7FF240244406D1C761E0A
:101D80003006F4D1200070BD10B50024E4430A00F1
:101D900001002000FFF7E6FF4440200010BDFEE7F1
:101DA000614AAF49C3070DD5107C8A79032A06DA48
:101DB00050A39A18537812789A1ACA720EE01A2809
:101DC00015DB12E0800712D5507C4A79032A0ADA23
:101DD00047A39A18537812789A1A0A73D2B20F321C
:101DE000824204DA01E01A2801DB0120704700205A
:101DF0007047000070B59A4C4B4DB14841781D2991
:101E00001AD0697C3AA26379D25C8A182A76282192
:101E1000D2B2292A00DB29762A7E92082A762A7CE9
:101E200034A3A6799B5DD2186A76D2B2292A00DB48
:101E30006976697E890869760178002956D0C17E65
:101E4000C90753D4C078002850D09E480068007855
:101E500003284BD0102849D0142847D00020A17A5D
:101E6000002903D0297C0F2900DAA072617A0029A9
:101E700003D0297C0B2900DB607280260220FFF74B
:101E80008FFF00280DD00120FFF78AFF002808D01F
:101E90000121032000F04AF8002827D100F0E2F8E1
:101EA00017E00220FFF77CFF002807D00121022065
:101EB00000F03CF8002801D100F0D4F80120FFF731
:101EC0006FFF002807D00121012000F02FF8002823
:101ED0000CD1A67270BD687C0A2802DA012000F0DD
:101EE000C1F8287C0A2801DA4020607270BD000029
:101EF0000009121B0009121E03B492B268468088C2
:101F0000104069460988114081420AD06E498A42D0
:101F100002D18021490100E00821884201D001203E
:101F200000E0002002B07047C4210020F0B583B06B
:101F30004B4CA2796B465A7163796D462B712578AB
:101F4000C70712D55F4F3F683F78032F0DD0102F82
:101F50000BD0142F09D0012907D1AF09FF0704D5F1
:101F6000521CD2B2042A00DB0322A271800708D5DA
:101F7000012906D1E80904D05B1CDBB2042B00DB8D
:101F80000323637160792018077C4F4E4C4D6878AD
:101F9000B84217D1A878A1796118097D884211D17A
:101FA0006088009032000146686AFFF7A5FF0028AC
:101FB00008D1608800903F220146686AFFF79CFFC5
:101FC00000284CD04022290020001830FFF76CFE7A
:101FD00068464079207268460079E0716F70A07998
:101FE0002018007DA8703F276088009032000146CD
:101FF000686AFFF781FF002805D0A88C3840618807
:1020000031404018A884608800903F220146686AE9
:10201000FFF772FF002805D0A88C064060880740B3
:10202000F019A8840120FFF785FC002803D100F0F7
:10203000CDF90020FEBD254869464979A279914233
:1020400003D2017CE27A891A0174694609796279BE
:10205000914203D2417C227B891A41740120FEBD4A
:1020600018000020F8B5164BD97E890626D4162113
:102070005A5669460A70154C657C0321144F012895
:1020800009D109203856861A032E01DA811AC9B2FD
:102090005018691807E008203856161A032E00DA7F
:1020A000111A501A691A61749875162018566A46E2
:1020B00000215156884201D00120F2BD0020F2BD1E
:1020C000D820002090000020C0FF0000C421002084
:1020D0000000002010B5002306E0D41A0419641E85
:1020E0002478CC545B1CDBB29342F6D110BD0000C7
:1020F0001EB5684606A11CC91CC00020694603E045
:1021000080183038C0B2491C0A781300F8D11EBDBF
:1021100031363A32353A333000000000F8B5050068
:10212000B34C2878800906D0012800D1C6E00328E6
:1021300000D1C1E028E0FF220621681C00F09EFFCC
:102140000020BC4FBC4E29788906890E122900D97F
:10215000F2E002A2525C5200974400BF0A1C212404
:102160002B30373C434F5BA37AA5AA89EE699800D0
:10217000207868702079A8706078E870A07828715D
:10218000A07D68716079A871287880210143297049
:102190000120F2BDE07868702079A870F4E7A0799A
:1021A0006870F1E70422691C20000C30FFF792FFF1
:1021B000EAE70422691C20001030F7E7A07D687070
:1021C000207DA870607DE870DEE70422691C200095
:1021D0000830EBE7A07E6870208B000AA870208B87
:1021E000F1E7B8490918097C2A185170401CC0B29F
:1021F0000428C9D00628F4DBC6E7B2490918097DCE
:102200002A185170401CC0B20428BDD00628F4DB47
:10221000BAE705216970A870FFF76AFFE87002222B
:10222000291D38000C30FFF755FF387CABE7022240
:10223000691C38000A30FFF74DFF0222E91C380004
:102240000C30FFF747FF0222691D38000E30ADE762
:102250000222691C3000FFF73DFF0222E91C30001A
:102260000830FFF737FF307C6871707C8BE7307E79
:102270006870707EA8700222E91C30001230FFF7EF
:1022800029FF0222691D300014308FE70322691CE8
:1022900030001C30FFF71EFF0322291D30002030C4
:1022A00084E7E07E7CE70422691C20001C307DE787
:1022B0000422691C2000F2E700F09CF84022210073
:1022C0009E48FFF7F1FC9E4F032628788006800E7B
:1022D0000E2831D801A1095C8F4400BF10604672FE
:1022E00090A0BAC85C5C5CDA5CE0E8006878FF2823
:1022F00000D02070A878FF2800D02071E878FF284F
:1023000001D000F0E1F82879FF2802D000F0F9F8B8
:102310003E706879FF2800D0A075A879FF2800D00A
:10232000607128788009032800D02DE701206549D5
:1023300008710020FFF7FEFA0020F2BD6878FF2840
:1023400000D0E070A878FF28EBD02071E9E70422E4
:1023500021000C31681CFFF7BDFE6879FF2800D012
:10236000A075A879FF28DCD02075DAE704222100C7
:102370001031681CFFF7AEFE3E70D2E76878FF2888
:1023800000D0A075A878FF2800D02075E878FF2835
:10239000C7D06075F0E7042221000831681CFFF700
:1023A00099FEBEE76878A076A87800022083E978D5
:1023B00040182083B5E76878E076B2E70422210070
:1023C0001C31EBE7042221002031E7E710B53D4C3A
:1023D0004022210018316748FFF766FCE079607100
:1023E000207AA07100206080FFF7A4FA10BD0000E1
:1023F000D820002010B5002000F044F80D480178E6
:1024000042784A4081785140C078484000F068FEE8
:10241000584C607800F058F8A07800F072F800206E
:1024200028498872544800680078102801D1FFF7C5
:10243000E0F810BD00000020C4210020F8B50027FE
:102440004C4C06207843261835002635297808009C
:1024500016D04A480078421C484B1A70FEF782FE9C
:10246000002909D1687800F02FF8A87800F049F821
:10247000708DA0840120F2BD7F1CFFB2042FE0D13B
:102480000020F2BD70B505003A4C00D125003C4E4D
:102490003068C169080006D0280088476878FF289E
:1024A00001D000280CD130688169080001D02800D3
:1024B0008847002D04D1A079092801DB0820A071EC
:1024C00070BD00001800002020B52A49CA7ED2073E
:1024D00001D5487020BD00222A4B9D182D7C8542D5
:1024E00004D0521CD2B2042A0AD0F6E7042A07D03C
:1024F00048705879904203D05A710F20224948748D
:1025000020BD20B51B49CA7ED20701D5887020BDE9
:1025100000221C4B9D182D7D854204D0521CD2B246
:10252000042A0AD0F6E7042A07D0887098799042E6
:1025300003D09A710F201449087420BD3000002088
:102540007600002000B591B06846FFF79BFF094870
:10255000694682788B789A4207D142784B789A42C2
:1025600003D1808C898C884201D0002000E00120BA
:1025700011B000BDD820002090000020E101002013
:10258000A41E002018000020C4210020FEB5050074
:102590000026604C206800280FD1002200215E48F0
:1025A000006800F0CDFD009000206946095C4242C1
:1025B000A218D170401C0428F7DB2079002801D034
:1025C0000220FEBD01272771E079A84206D02068CD
:1025D00000F070FE64202072E660266128000A3850
:1025E000032833D9083831D0C01E08D0C01E06D009
:1025F000801E04D0801E02D0801E032843D80020F5
:1026000001F03CF945480068006880470298E1689D
:10261000884203D0E060029801F038FA694604204D
:10262000085608216156884207D068460079207212
:1026300069460420085601F075FB102001F0F6FAF7
:1026400026710220A071E5710020FEBD33480068AC
:1026500040688047012001F011F9E079A84202D0DA
:10266000280000F0A2FF002001F0E0FA02982169A2
:10267000884203D02061029801F008FA029801F024
:1026800037F8A771E57126710120FEBD10B5214C08
:102690002079002801D0022010BD20480068806801
:1026A000804701202071802001F0C0FA0020A08026
:1026B000A07110BD70B511001E00164C2279002AC1
:1026C00001D0022070BD0125257101F03AF90020EA
:1026D00020716571012E06D111480068006880479D
:1026E00060790028F8D1002070BD80B5FEF73AFA75
:1026F00001BD80B501F0EEF902BD10B5094C01F045
:1027000048F8210001F0CCFB01D2200010BD01F0FF
:1027100040F810BD7000002000000020A41E002022
:10272000A81E0020000016C380B500F0DEFD02BD2B
:10273000B8488068002801D1B7480068704770B574
:1027400082B004000E0000F082FB002815D0B34DCB
:10275000207800902B1D22000A320921601C00F015
:1027600079FB00280DD0FFF7E3FF09236A68010019
:10277000601C00F04BFB00F058FA3100601CFDF7C4
:1027800005FF73BDF0B583B007000C00A14DA24E4C
:102790006878152806D0182804D01A280FD01C28CD
:1027A0001DD021E0ED693068C019E221FEF7DDFCA3
:1027B000642041436818002C48D0994912E0ED6923
:1027C0003068C019D221FEF7D0FC6420414368185C
:1027D000C821C9004018002C38D0924902E0E869AD
:1027E000C821C9014018FEBDA88C0121430B01225C
:1027F0009A40C8235B015A43019203059B0E5A433A
:102800000092000B084202D01046414200916878C5
:10281000FFF748F94000FA21C9004118019A914296
:1028200004D2101AD2494018410800E00021E8699A
:10283000009A85183068C019C0B24843FF21FEF7DE
:1028400094FC002C01D02818FEBD281AFEBD000003
:10285000F1B594B002A800BF73A10A680260002716
:102860000024402103A800F039FC002003AD02A998
:10287000095CE4B22955641C401C0428F7D3E4B277
:1028800028190190601C634C6178634E0A000A3A73
:10289000032A0CD82269019B1A70E268C0B22A543C
:1028A000401CA268C0B22A54401C01270AE0B2783A
:1028B000019B1A707278C0B22A54401C3278C0B2A0
:1028C0002A54401C0A2901D115210AE00B2901D103
:1028D000182106E00C2901D11A2102E00D2901D1AD
:1028E0001C21617014998979C0B229546946401C31
:1028F0000870684600782818019014984279C11D24
:102900000198FFF7BDF908210198FFF7E7F969463B
:10291000487000F09CFA002805D008230022316896
:10292000019800F063FA68460078083069464978F3
:10293000C0B229546946401C08700D21281DFFF7BC
:1029400023FABF4E7060010C6A461278A95469469A
:102950000978491C020AC9B26A54491CC9B26854B0
:102960006846491C0170E068002806D00190E169C2
:1029700081428041C00F307005E031786846407870
:10298000FFF700FF019068460078291860781A2840
:1029900003DA002F01D1327800E00122281D01F076
:1029A00093FAE068002803D130780121414031706A
:1029B000684607781037A84DE07E000716D53078B6
:1029C000002813D0019B16202256217D6078FFF746
:1029D000DDFD01236278F9B203A8FFF76BFE2868DA
:1029E000401C28601498FFF733FF10E0019B16206D
:1029F0002256217D6078FFF7C9FD00236278F9B285
:102A000003A8FFF757FE2868401C2860002015B077
:102A1000F0BD0000D820002000000020502200203F
:102A20006C6B00002C65000097157A6FF1B590B0C3
:102A3000684600BF8EA10A680260884E0AADF07831
:102A40002870B07868707078A8703078E870844C1E
:102A500060780E2801D11E200AE00F2801D11F2026
:102A600006E0102801D1202002E0112801D1212008
:102A700060707C4F38682871109880796871109860
:102A80004279C11DA81DFFF7FBF800F0E0F900280E
:102A900013D009233A683168681D00F0A7F90921AD
:102AA000681D00F0C6F90600386800F05AFA386070
:102AB000300CA873300AE8732E7411210AA8FFF7AE
:102AC00063F95F4E7060010C6974010AA974E874BF
:102AD000E068002806D00500E16981428041C00F0E
:102AE000707004E07178287CFFF74CFE05006846A2
:102AF00001A902680A6001A8021D0AA9082001F0C4
:102B000055FBE068002803D17078012141407170C5
:102B1000514FE07E000716D57078002813D02B00A7
:102B200016202256217D6078FFF730FD0123627860
:102B3000242101A8FFF7BEFD3868401C38601098BA
:102B4000FFF774FF12E02B0016202256217D6078DB
:102B5000FFF71CFD00236278242101A8FFF7AAFDDE
:102B60003868401C386000F060F8002011B0F0BDFB
:102B700030F8FFFF80B53A4949780A3903290ED960
:102B8000091F03290ED9C91F09D0C91E07D0891EE4
:102B900005D0891E03D0891E032903D905E0FFF75C
:102BA00057FE02BDFFF742FF02BD002002BDF8B58F
:102BB0002B4F3B69002B32D1B88C01240106090F41
:102BC0008907890F01268E40C82149024E434507D7
:102BD0006D0F7543C008204201D068420500B878E7
:102BE000FEF760FF4000FA21C9004118B14204D24B
:102BF000301A1D494018460800E00026386A451979
:102C0000FFF796FDC0B27043FF21FEF7AEFA060053
:102C1000FFF78EFD044001D0AB1900E0AB1B002292
:102C2000797DB878FFF7B2FCF2BD10480068816B7F
:102C3000080000D1704780B50A48884701BD0000F0
:102C40005822002009480068416B080000D17047F5
:102C500080B50448884701BDC42100200000002041
:102C6000D82000205022002030F8FFFFA41E0020B2
:102C700097157A6F0122D20703004B402ED4431AD6
:102C800001D2C01AC91830B44B180418240E1B0EF8
:102C900022D0FF2C20D0E31A182B1DDC090211438F
:102CA000C40D641E0002104394461925ED1A0A0053
:102CB000AA40D940451801D36D08A41CE405D209E7
:102CC000280A2D062A436546AA41604103181B0EB7
:102CD000FF2B01D3C00DC00530BC7047514006E04A
:102CE0005140CCE70122D20703004B40F8D4431AED
:102CF00003D2C01AC9185040514030B44B180902D1
:102D000011430418240E1B0E40D0FF2C3AD025008E
:102D10009D410BD31ED8C50D4002401A0BD3ED05C3
:102D20000100400AC90591416841D5E7C50D40023F
:102D30004918401AD0D001214008491C0018FCD580
:102D40008C4204D36D1A000AED054019C4E7E8056A
:102D50001040C1E7182DBFDCAC1C0D00E140E5417F
:102D60004D40012D4941C40D00021043451A01D4C4
:102D70006D199543641EE405280A2D0695416041AE
:102D800030BC7047FF2BA7D1D843A5E72442A3D17D
:102D90000020A1E70122D2070118090E7F3910D4C3
:102DA00049421F310FD4001805D2C0011043C8405A
:102DB00000D5D0437047C0011043C84005D44042FD
:102DC0007047002070470042F3D5100070477047ED
:102DD0007047FEE710B582B0040001F015FC042234
:102DE00021006846FEF74CFF009816BD16B584B06A
:102DF00004A901AA0C68146005A9121D0C681460CE
:102E00000093030001AA010097480EE016B584B0B4
:102E100004A901AA0C68146005A9121D0C681460AD
:102E20000093030001AA0100904801F0B2FB06B034
:102E300010BD80B50A0001008D48FFF7CBFF02BD31
:102E400080B50A0001008B48FFF7C4FF02BD8A4825
:102E500000787047FBB59EB017001868FF25ED435A
:102E6000002804D0C0B226A9097888421BD21FA826
:102E700001781E98FFF7E4FF009068468078397863
:102E8000884210D168464078797888420BD16846EC
:102E90000078B978884206D120980068054026A8B5
:102EA0000078281854E0744E3100FC3101A801F07C
:102EB0000AFB002420980068000A2018401C80218A
:102EC0004901884203D1FF2201A9301D02E00F22EF
:102ED00001A901A801F0D9FB00220FA901A801F066
:102EE000D4FB1FA802781E990FA8FFF773FF00906C
:102EF000641C68468078397888422DD168464078CD
:102F00007978884228D168460078B978884223D1F8
:102F10003700E43701A91831380001F0D4FA0FA8BE
:102F2000010018318E204000301801F0CCFAFF2249
:102F3000AA2040003118380001F0A7FB2098006853
:102F400005402002281826A9097840180003000B24
:102F500020990860012002E0642CABD3002021B04E
:102F6000F0BD70B5451C444C2600AC36280D15D07C
:102F7000FF2221003C31201D01F087FB00222100AF
:102F8000743120003C3001F080FBFF223100200032
:102F90003C3001F07AFB2803000B70BD280613D1EA
:102FA0000F2221003C3120003C3001F06EFB00225A
:102FB0002100743120003C3001F067FBFF2231001A
:102FC00020003C3001F061FB280070BDBCB582B030
:102FD0000F00294C0100201D01F075FA002221008C
:102FE0003C31201D01F051FB2000E4300090FF2215
:102FF0000146201D01F049FB002507E00F222100BA
:103000003C3120003C3001F040FB6D1C380A854209
:10301000F4D3002505E00F220099084601F035FBA6
:103020006D1C0298000A8542F5D3002221007431FC
:1030300020003C3001F029FB00228E2040002118A6
:10304000009801F022FBFF222100AC3120003C302F
:1030500001F01BFBFF22AA2040002118009801F07C
:1030600014FB01202070BFBDC8190020701A002079
:1030700090190020381A00201C1900201206130A8B
:103080001A43130C1A4300BF094205D083070BD023
:103090000270401C491EF9D1704700001206130A45
:1030A0001A43130C1A4300BF130030B41400150068
:1030B000103902D310393CC0FCD2490700D30CC0F0
:1030C00000D504C0890002D30280801C002900D5ED
:1030D000027030BC704700000022D5E70022E3E711
:1030E00010B504000448FFF772FE00210170034888
:1030F000FFF76DFE046010BD500100205401002058
:1031000041400020002903E0CA07D20F8018490877
:10311000FAD14000203800D540424010704706499F
:10312000002806D10868054A50431030C201C00D7E
:103130001043086070470000642200203412000031
:10314000F7B500210091FFF7EAFF0020FFF7E7FF46
:103150000700002400253E0031003800FFF7D0FFB3
:103160007600844202D2002D00D004006D1C202D78
:10317000F2D300253E0031003800FFF7C1FF76088A
:10318000844202D2002D00D004006D1C202DF2D309
:103190000098401C0090062C01D36428D5D30198D8
:1031A000002802D00098019908600298002800D0F9
:1031B00004603800FEBDFEE771B581B00C0016005A
:1031C0003A4D68684068804700206968C969884747
:1031D0006846808880210902014368468180012178
:1031E00001A8401C6A6892699047012101A86A6899
:1031F00092699047310020006A689269904721E007
:1032000071B581B00C001600284D68684068804791
:1032100000206968C9698847684680884004400C76
:1032200069468880012101A8401C6A68926990471C
:10323000012101A86A6892699047310020006A68FC
:103240005269904701206968C969884768680068C1
:10325000804773BD02B501226946FFF7ADFF01BD8E
:1032600080B501226946FFF7CBFF6846007802BDB2
:10327000F8B504000F0015000D4E2000FFF7F0FF19
:103280002840B84203D0761EF7D10020F2BD0120BD
:10329000F2BD38B50C00054D6A60AB60002A01D064
:1032A000002B00D1FEE7287010E00000442200202F
:1032B000A086010038B5040000F0B2FC004D01E02A
:1032C0004422002001206968896A884700F048FC90
:1032D000200000F00DF8287800F000FB31BD80B52B
:1032E00000F0D7F800F017FB01BD01207047FEE7A2
:1032F00001B582B0684600BF14A10A6802600121CE
:103300002020FFF7A7FFC820800000F0A6F90521C4
:10331000802000F097F9684600F0A9F9984800F07D
:10332000BAF9242000F0AAF90298002802D002A8D5
:1033300000F0AAF997212C20FFF78CFF0021202014
:10334000FFF788FF002000F046FA07BDB71DC10453
:1033500080B501212020FFF77DFF00212020FFF70D
:1033600079FF01BD8648407A0A280FD00B280BD080
:103370000C2807D00D2803D0122809D1062008E018
:10338000702006E0382004E0122002E0002000E077
:103390000120A5490988D031081A00B27047F0B55C
:1033A00083B0A248006840688047A14801907448F3
:1033B000007A01990870802464009E4D2200290043
:1033C0009D48FEF771FC9D4F402239009C48FEF756
:1033D0006BFC00266A490E7221002800FFF77EFE72
:1033E00040213800FFF77AFE904800680068804767
:1033F000002000F0F0F98D480068006A002847D0EE
:1034000042E08D48710140180090C57D133001F0F5
:1034100099F9002400210019694101F09FF9012167
:1034200001F0B4F90100B14801F086FABB49FFF799
:1034300021FC0400FFF796FF01F0D6FA01002000FE
:10344000FFF750FC04007C48F10045188120400043
:103450002F182000FFF79EFC38802000484909699A
:10346000FFF740FC002100F01BFD00D20020FFF719
:1034700091FCB87080204000291800986B4A1268AF
:10348000126A9047761CF6B2019800788642B8D14D
:10349000F7BDF0B58BB0012201A92020FFF7B0FEE7
:1034A00068460079000668D5624D02AE202202A966
:1034B0000020FFF7A5FE00210020FFF7CBFE304CD7
:1034C000277A7801281802A92022FEF7D9FB072FB6
:1034D00053D0607A0D2801D10A2300E01423012281
:1034E000AE4920001C30AE4F3F687F68B84732239A
:1034F0000122AC4920003030A94F3F687F68B847AF
:103500000020217A4A01AA18009200E0401C4201E2
:10351000AF18884204DA7A78009B5B789A42F5D13A
:10352000464AC300D218337F002B03D093795B1C2B
:10353000937102E053795B1C5371884202D1491C9C
:10354000217214E0F87DF17D88420BD30FD1380051
:10355000133001F0F7F804003000133001F0F2F8F6
:10356000844204D2380000992022FEF789FB2F48BC
:10357000006800698047002898D10BB0F0BD0000BA
:10358000000100200B2807D00C2807D00D2807D0F9
:10359000122807D0932006E08A2004E0812002E070
:1035A000752000E09020C0437047F8B505000A2858
:1035B00008D00B2808D00C2808D00D280CD01228D1
:1035C00010D016E000210EE001210CE002212120A4
:1035D000FFF740FE1E200AE003212120FFF73AFEFC
:1035E000302004E004212120FFF734FE182000F0F1
:1035F00039FBAC4C667A3000FFF7C4FF07002800A7
:10360000FFF7C0FF381A40B201F0EEF9010020695F
:10361000FFF768FB2061AE4202D0002000F0DBF82B
:103620006572FFF795FEF1BD621D00204822002063
:10363000601D0020641D0020201C00201821002097
:10364000201D002010B50C0001002420FFF702FE11
:1036500021002520FFF7FEFD10BD80B569460870EA
:10366000000A487002222220FFF7A6FD01BD80B5A6
:10367000042201002E20FFF79FFD01BD80B501004F
:103680002620FFF7E7FD01BD80B5042201002820B8
:10369000FFF792FD01BD10B50400607800012178AC
:1036A0000143C9B23220FFF7D5FDE0780001A178CF
:1036B0000143C9B23320FFF7CDFD607900012179C4
:1036C0000143C9B23420FFF7C5FDE0790001A179BB
:1036D0000143C9B23520FFF7BDFD00207149225CCE
:1036E0000A54401C0828FADB10BD00000000A0416D
:1036F00080B500BF71A16B4A537A0A3B022B04D9F3
:10370000DB1E04D05B1F06D001BD127800E05278AA
:1037100092008958401A00F03DFB01BD000040C2F4
:10372000F1B5A0B00027002600255E48407A0A388F
:1037300007D0401E07D0401E012806D9801F06D0A2
:1037400006E0202404E0042402E0012400E0102428
:10375000A200D2B269468020FFF752FD0021E4208A
:10376000FFF778FD07E06846B900405836188542F3
:1037700000D205007F1CA742F5D120A800780028C0
:1037800004D030002100FDF7F0FC00E0280021B05B
:10379000F0BD444800697047000000009F330008F6
:1037A0004C220020D737000882B001A841A10A6846
:1037B0000260684640A10A7802703A48407A1228AE
:1037C00003DB69460818123802E001A908180A3814
:1037D000007802B07047F8B506000027314C00258C
:1037E000ED43002E05D1A561E772FFF7DDFF2073E1
:1037F000F1BDE07A0A282CD1E77260690A21FDF751
:10380000B4FC6761A169884200D90800A061207BEF
:10381000401E2073000625D1FFF7C6FF2073A06964
:1038200001F0EEF8012100F0B1FF01001E4801F0A7
:1038300083F80700FFF796FD01F0D6F80100380085
:10384000FFF750FA8021C905FFF714FA2061A5613E
:1038500008E00120FFF764FF616908186061E07A01
:10386000401CE072A07A002807D0322301220021F8
:1038700030000E4C24686468A047F1BD38B5094C8F
:10388000A0720A490D68002807D032230122084996
:10389000200030306C68A04731BD20003030A9686E
:1038A000884731BD000100200000A0414C220020CB
:1038B000D7370008140805050A000000905F0100D2
:1038C000E8FD0000409C0000983A000068C5FFFF3A
:1038D000C063FFFF1802FFFF70A0FEFF744800786E
:1038E000002800D0704780B5724800F06DF801BD27
:1038F00071480068406A010000D1704780B5804778
:1039000001BD10B5012301226C496D486D4C24683E
:103910006468A04710BD66480078002800D0704752
:1039200080B5012269463920FFF76AFC68460078B5
:10393000C00605D502213820FFF78CFCFFF7E1FF18
:1039400001BD38B505000C0059480078002803D0A7
:10395000280001F065F831BD200000F063F8153C47
:103960000DD0E41E0BD0A41E09D0A41E07D0A41EA7
:10397000032C04D9241F0ED0641E17D031BD00249F
:10398000295D20003C3080B2FFF764FC641C242CCD
:10399000F6D1132114E0295D20003C3080B2FFF7FE
:1039A00059FC641C242CF6D1932109E0295D2000E8
:1039B0003C3080B2FFF74EFC641C282CF6D1B321BA
:1039C0003820FFF747FC31BD70B5060000243519DB
:1039D00029782000643080B2FFF73CFC28783A490F
:1039E00009190871641C082CF1D170BD18380ED06B
:1039F000801E0FD0801E10D0C01E08D0401E09D0DF
:103A0000401E0AD0401E01280AD932207047C82023
:103A100040007047C82000017047C820C0017047AF
:103A200064207047DCB50400FFF7E0FF010A0006E0
:103A30006A4603C2684603C8244A002301F010F80E
:103A400006000F00684603C8214A002301F008F869
:103A5000002B01D8052A04D368460021761C4F416B
:103A600000E06846C0C0684601783920FFF7F2FBE5
:103A7000684641783A20FFF7EDFB684681783B20A5
:103A8000FFF7E8FB10480470D3BD000080B508497B
:103A90000978002909D10C490A78223A012A04D967
:103AA0000FA2097989005158401A00F073F901BD3D
:103AB000442200204801002048220020F13800085C
:103AC000142200204C2200204401002040420F001C
:103AD000A086010080B53920FFF7C2FBC00902BDF6
:103AE0001885FEFF58A4FEFFC8BBFEFF70A0FEFFB6
:103AF00068CBFEFFD8E2FEFF8819FFFF1802FFFF28
:103B0000F830FFFF6848FFFF786FFFFFC063FFFFDB
:103B1000B88EFFFFC8B5FFFF08D5FFFF68C5FFFFE0
:103B2000983A0000F82A0000384A00004871000066
:103B3000409C00008890000098B7000008CF00006B
:103B4000E8FD000078E60000281D0100983401001F
:103B5000905F010038440100A85B0100E87A010091
:103B600080B585480068806880470122012183482C
:103B7000FFF77EFB202000F059F857218048FFF71F
:103B800069FBDE217F48FFF765FBDA217E48FFF7FE
:103B900061FB17217D48FFF75DFB73217C48FFF730
:103BA00059FB7821A348FFF755FB8821A248FFF76E
:103BB00051FB4621A148FFF74DFB6621A048FFF7C6
:103BC00049FB18219F48FFF745FB64219E48FFF7FA
:103BD00041FB01219D48FFF73DFB6B219C48FFF70E
:103BE00039FB10219B48FFF735FBFB219A48FFF773
:103BF00031FBE0219948FFF72DFBAE2000F071F872
:103C000097480078002801D07B2000E07A2000F05F
:103C100077F8012000F07AF8182000F023F801BDB1
:103C200080B555480068C068804701BD80B5010077
:103C30008C48FFF70FFB012200218B48FFF718FB90
:103C400001BD38B50500894C2000FFF709FB87212D
:103C50000140E800782202408918C9B22000FFF72D
:103C6000F9FA31BD70B582B0312800DB3020032174
:103C7000FDF778FAC0B2092802DA0400002602E053
:103C8000082408380600794D012269462800FFF70C
:103C9000B7FA68460078F821014068460078C20704
:103CA000D20F8918891DC9B22800FFF7D3FA6D1CFD
:103CB0002800FFF7D5FAC32101401431C9B228000A
:103CC000FFF7C8FA604200017838811BC9B2684822
:103CD000FFF7C0FAF6B2A01941000818654908803C
:103CE00073BD10B5040021008020C001FFF7B2FAB7
:103CF000AE2C01D1012000E000205F49087010BD0A
:103D000080B501005D48FFF7A5FA01BD80B5012827
:103D100002D0022803D001E00F2000E00720FFF7C7
:103D200090FF01BD70B505004C4C2000FFF798FADC
:103D3000E02606400D35152068431C21FDF712FAD8
:103D4000C006C00E3118C9B22000FFF783FA70BD5B
:103D500010B5464C012805D12000FFF781FA410635
:103D6000490E04E02000FFF77BFA80210143200088
:103D7000FFF770FA10BD0000482200203940000013
:103D8000034000000440000005400000084000001F
:103D90000A40000070B53A49884202D2450001202D
:103DA00001E005000220FFF7D3FF364E2800310066
:103DB000FDF7DBF9040028003100FDF7D6F98B0A86
:103DC000880519003246002300F04AFE06002E48FE
:103DD00029490978002902D0A100891C00E0A1002E
:103DE000C9B2FFF737FAF1B22848FFF733FA3104C6
:103DF000090E2748FFF72EFAF00B7E210140491CDF
:103E0000C9B22448FFF726FA234C2000FFF728FA0E
:103E10000500DF2101402000FFF71CFA2021294383
:103E20002000FFF717FA042204211C48FFF720FAAC
:103E300070BD00000C4000000D4000000E4000006E
:103E40000F4000001040000011400000134000002F
:103E500016400000194000001F4000002D400000E7
:103E6000442200202F4000003B40000002400000A0
:103E700029400000621D00206E2200200640000044
:103E80000046C32380BA8C01234000002640000076
:103E9000274000002840000030400000344000006F
:103EA0000CB4012212060318DA4207D84B18DA4282
:103EB00004D802000A43921802D288420CBC704710
:103EC000FCD08142FAE7FEE7F7B58CB003A82021C9
:103ED000FFF704F90021002203A8CB00C0180290CC
:103EE000501E009083105B0F1818C3109010400FE5
:103EF0008018C41002980019019000BF2BA0CD01BA
:103F0000401985182878019E3678B4460C9FC6085B
:103F1000BF5D4007400F87400C984026AE5DF60815
:103F2000805D4026AD5D6D076D0FA8407840029D15
:103F3000ED5C009EDB00F31A9D404540802005406B
:103F4000E000101AC5406646354301980570521CC2
:103F5000402AC5DB491C0429BDDB00200EAB1B78C1
:103F6000002B02D15525AA2401E0AA25552403AB34
:103F70001B181E7835401E7A34402C430D9D2C545E
:103F80000EAC2478002C02D15525AA2401E0AA25E4
:103F900055241E7C35401B7E1C402C430D9B1B185A
:103FA0001C72401C0828D9DB0FB0F0BD00010203D1
:103FB0000405060708090A0B0C0D0E0F1011121349
:103FC0001415161718191A1B1C1D1E1F2021222339
:103FD0002425262728292A2B2C2D2E2F3031323329
:103FE0003435363738393A3B3C3D3E3F4041424319
:103FF0004445464748494A4B4C4D4E4F5051525309
:104000005455565758595A5B5C5D5E5F60616263F8
:104010006465666768696A6B6C6D6E6F70717273E8
:104020007475767778797A7B7C7D7E7F68342B60B7
:104030001F07474E3A255D197D552A6F065F487563
:104040001B333F545B23781A612D6E46011C567258
:1040500035430C7F2865495E733D147E032E5C74E6
:104060000938574D6D2C41366476022215294C0EC5
:10407000457C5A126730712400510D3E1826694460
:104080000F4B58327A1D536608106C17203163703D
:104090001337590B6B522F62161E3C5042790A3966
:1040A00011274F04407B213B6A4A05771A0A693081
:1040B00026544C39177D73036A214D6347711601ED
:1040C0002C57081F6F60022A46510D5D7A257258E1
:1040D0003F6B3228527444067F1033493D532E0003
:1040E0007E684E4329771C0B382F041534420F622B
:1040F00018071E5B7023377C40055F20310955414E
:104100002B125C240C56763C194835507B2D3A66B0
:104110006E785922114B5E1B643E14276C5A45750C
:10412000613B4F6D651379361D0E4A67005D68244B
:10413000577D17612C6B0B0346233C4D1D54065BCA
:104140007E0F4C38045973632B167A10693702714D
:104150004E333F0E78660813446F562F402079483F
:104160003B6C60501943760C3A7F145A0925673529
:104170003E45550A6E2264772749015330701E363A
:10418000412D057B651A58122E5F286D071B394299
:1041900074264B5C15343D1C6A725E21114F2A4710
:1041A0007C32520D1F29754A62511831F3B587B020
:1041B000140000210125002001AA5054002201A86A
:1041C00043180720871A1E780898405CF84028405A
:1041D00084460120B84067464743F0191870521CC6
:1041E000082AEEDB491C1429E5DB20212000FEF71C
:1041F00073FF002033A18210520F1218D2100B5CF3
:10420000DE08A6193778009701AFBF5CBC460727C8
:10421000D200821ABA1A6746D74001223A401700E4
:1042200007225B075B0FD21A9740009A174337703B
:10423000401CA028DFDB0020215C4B00AA221A4092
:104240004A409300CC21194051400A014A4022546F
:10425000401C2028F0DB032002E068460078401C68
:104260006946087068460078097F884227D2684608
:104270000078801E01218140019101206946097F5B
:10428000C91E88400199FCF770FF03900020019936
:10429000490802910CE063181E78029FCF19E75D70
:1042A00077401F70491C029BD3189942F3D3401CDE
:1042B00003998842D1D2019A42431100F3E709B031
:1042C000F0BD00001F2F37393A3B3C3D3E3F4E4F7B
:1042D00053555657595A5B5C5D5E5F636566676907
:1042E0006A6B6C6D6E6F70717273747576777879B6
:1042F0007A7B7C7D7E7F878B8D8E8F93959697982A
:10430000999A9B9C9D9E9FA2A3A4A5A6A7A8A9AA93
:10431000ABACADAEAFB0B1B2B3B4B5B6B7B8B9BA75
:10432000BBBCBDBEBFC1C2C3C4C5C6C7C8C9CACB5A
:10433000CCCDCECFD0D1D2D3D4D5D6D7D8D9DADB45
:10434000DCDDDEDFE0E1E2E3E4E5E6E7E8E9EAEB35
:10435000ECEDEEEFF0F1F2F3F4F5F6F7F8F9FAFB25
:10436000FCFDFEFF30B50023C45CCD5C6540D55438
:104370005B1C042BF8DB30BD30B50023C45CCD5C86
:104380006540D5545B1C082BF8DB30BDF1B581B01E
:104390000020002403256B464E5D019F7F5DF619CA
:1043A000240A3419A4B25C556D1EF5D519180C7881
:1043B000C4A54601AD192609AE5D36012407240FB8
:1043C0002C19247C34430C70401C0428EEDB187834
:1043D0000002597840180002997840180002D978F4
:1043E00040181521C841D070010A9170010C51701C
:1043F000000E1070F3BD70B584B005000E001400FF
:104400000422311D01A8FDF73BFC0422310002A863
:10441000FDF736FC6A4601A92800FFF7B7FF6A4698
:10442000694602A8FFF79EFF042201A92000FDF7BC
:1044300027FC042269461FE070B584B005000E0019
:1044400014000422311D01A8FDF71AFC04223100DA
:1044500002A8FDF715FC6A4601A92800FFF796FFA0
:104460006A46694602A8FFF77DFF042269462000DC
:10447000FDF706FC042201A9201DFDF701FC7FBD0C
:10448000F0B506000A003078002101230902040E6D
:10449000214304020D00F05C0021001969415B1CFE
:1044A000082BF3DB00F012FB04000D0000272000B6
:1044B00029003822FB00D21A00F01AFBF0557F1CAD
:1044C000082FF4DBF0BD7CB5040020221830FDF786
:1044D000D7FB68460021002206C06946200000F094
:1044E00039F8332680252078284207D00121200082
:1044F000FFF7C6FFE0797040E07103E00121200082
:10450000FFF7BEFF0822210020000830FDF7B8FBAE
:104510002078284207D001212000FFF7B1FFE07981
:104520004640E67103E001212000FFF7A9FF0822C1
:10453000210020001030FDF7A3FB73BD4A07520F86
:10454000182902DA9100401870475142890040183A
:104550001C30704738B50500A94202D00822FDF78B
:104560008FFB0024210028001830FFF7E7FF2A0006
:104570002900FFF740FF641C1F2CF3DB1F21FFE71E
:1045800028001830FFF7DAFF2A002900FFF754FF50
:1045900031BDF2B584B0060011001F0000250024D3
:1045A000082201A8FDF76CFB0A9884422AD2001B5E
:1045B000009001A93000FFF7CDFF009809281ED315
:1045C00000202118049A525C335C53407B54401CF9
:1045D0000828F6DB083480225200072001A90918B8
:1045E0000B78120A9A1892B20A70401EDCD4F5E7D2
:1045F00060190499095C725D4A403A546D1C009838
:104600008542F5D305B0F0BDF2B584B005001600C3
:1046100000247007400F039008212800FEF75CFD7E
:1046200009E02A0039002800FFF7A6FE290028002B
:10463000FFF790FF0834B44225D2301B0090049855
:10464000071900980928ECD20398002803D02A0003
:104650002900103102E02A00290008312800FFF764
:104660008BFE01A80021002206C0009A390001A893
:10467000FDF706FB2A0001A92800FFF77DFE2900AF
:104680002800FFF767FF05B0F0BD70B594B00500D6
:104690000C00160020210BA8FEF720FD3200082197
:1046A00001A8FEF7FBFC2020009003AB01AA0BA998
:1046B0002800FFF76EFF03A92000FFF704FF14B0E6
:1046C00070BD000001070E0D00050803040F0A0667
:1046D000090C0B02080E02050609010C0F040B0061
:1046E0000D0A0307050D0F0609020C0A0B07080146
:1046F00004030E00070F050A0801060D0009030E4A
:104700000B04020C0C0802010D040F0607000A0539
:10471000030E090B0B030508020F0A0D0E01070417
:104720000C09060006080203090A050C010E04071D
:104730000B0D000F0C0406020A050B090E080D07ED
:1047400000030F01C3788278417800781B021A4376
:1047500009021204084310437047FEE7BD220942D4
:1047600010D003D4521E00184941FBD5D2050128B0
:104770008041401C0143080A0906494100D3012930
:104780005041704708B500F03BF908BDF8B504008A
:104790000E006000050EFF2D06D10025600201D13C
:1047A000002C09D42000F2BD012D0DDB5148204022
:1047B000FC24A40504437E3D002C0BD500F0A8F991
:1047C000212101604C48F2BD00F0A2F922210160D4
:1047D0004A48F2BD20004A49FFF762FB06D280201A
:1047E000C005210000F0A8F804006D1E4548210016
:1047F000FEF740FA0700FE2080052100FEF73AFA96
:104800000100380000F08CF90090014600F094F8A7
:1048100004003D48210000F08FF801003B48FEF7FE
:1048200029FA210000F088F801003948FEF722FA41
:10483000210000F081F801003800FEF753FA0099DA
:1048400000F07AF8040028B200F0CEF80500002E3F
:1048500010D13048290000F06FF82100FEF742FA2D
:104860003900FEF707FA04002B48290000F064F82D
:1048700021003CE0012E23DB2848390000F05CF8E1
:1048800000902748390000F057F806002548290015
:1048900000F052F807002100234800F04DF8010015
:1048A0003800FEF71FFA3100FEF7E4F90099FEF731
:1048B000E1F904001D48290000F03EF8210016E04F
:1048C0001B4E3800310000F037F8009039001948CD
:1048D00000F032F807002000310000F02DF8010050
:1048E0003800FEF7FFF90099FEF7C4F92900FEF73A
:1048F000C1F9F2BDFFFF7F80FFFFFF7F000080FF57
:10490000F304353F000080BF1502993E11AECC3E46
:10491000C0AA2A3FE8E8FB331672313FD85BDE3E7F
:104920002837A932F43EA133D95BDE3E98209A3E67
:104930003BAAB83F6070A53230B405004D4001225B
:10494000D20715404B180418240E2ED01B0E32D05F
:10495000FF2C34D0FF2B3AD0E41800020902104398
:104960001143000A090A9446C2B24A43000AC3B27C
:104970004B43000A4843110A5B181A43D2B2190A82
:10498000091801D44918641E080A7F3C23DBFE2C59
:1049900008DAE4050906114363469941604128435A
:1049A00030BC7047FF20C005F9E728001B0EFF2B25
:1049B000F6D1D043F4E72800FF2CF1D1F9E740020B
:1049C000F7D1FF2B01D14902F3D1E005E7E7D80584
:1049D0004902E4D0EDE743020020641CDFD15B1202
:1049E0009B1CDCD9D805DAE79D2102000AD5F446E4
:1049F000524200F007F80122D2071043604700003E
:104A00009D2102000AD002D4491E9218FCD5C90586
:104A1000100A1206524100D3012A48417047FEE7AE
:104A200070B506000800152907D0182905D01A29E5
:104A300003D01C2901D0222901D1242500E02825FA
:104A4000064C2168C96A002907D0FEF7CFFF020093
:104A5000290030002368DB6A984770BD4822002097
:104A6000124224D0994228D970B500251B4202D0A9
:104A70000C00002109E000240126491864419442F9
:104A800000D3A41A7641F8D33100012601E0764123
:104A900009D2001864416D41A41A9D41F7D2A418AF
:104AA0005D41B619F5D3300022002B0070BD1B42CA
:104AB000D8D108B500F08AF808BD01D19042D3D210
:104AC00002000B00002100207047FEE7D2B2203A1E
:104AD00003D301009140002070475242D04152421E
:104AE000203291404140D040904041407047FEE725
:104AF000D2B2203A03D30800D040002170472032C0
:104B0000D141D04048409140D14048407047FEE7F5
:104B100080B50248FEF75BF902BD0000DC01002011
:104B200030B405004D400122D20715404B1804183F
:104B3000240E28D01B0E2FD0FF2C34D0FF2B37D0C3
:104B4000E41A000209021043114343084808D10D3A
:104B50001B1A02D2641EDB181B18DB18834200D319
:104B60001B1A4941F9D37F3426DDFE2C08DAE4050F
:104B70004808C907194391416041284330BC704738
:104B8000FF20C005F9E728001B0E03D0FF2BF5D14D
:104B90004902F3D0D043F1E7FF2C01D14002F9D113
:104BA000FF20C005E9E74002F4D1FF2BF8D1F1E77F
:104BB00028004902E2D0EDE70B0200202442DCD1BC
:104BC0005B129B1CD9D9D805D7E7FEE77047FEE7F3
:104BD000F8B50400B34D2078C0074FD58027BF0239
:104BE000E8680C210140082907D0E8680C21014041
:104BF0000C290AD1E868C00307D5286807403DD0D2
:104C0000606800283AD10120F2BD606879088842C6
:104C100001D1286809E0A021C9028842286806D18C
:104C20007900014329602868790801430AE0AA490C
:104C30000140296028687908084000900098286899
:104C4000A64901402960606800280BD000F0FEFAF8
:104C500006002868384011D100F0F8FA801B65285A
:104C6000F7D396E100F0F2FA06002868384005D044
:104C700000F0ECFA801B6528F7D38AE120788007E2
:104C800019D5AF4FE8680C210140042907D0E86826
:104C90000C2101400C2935D1E868C00332D42868C2
:104CA000400702D5E0680128ADD168680740206957
:104CB000000238436860AF0D2078C00668D5E86808
:104CC0000C2101407AD12868800502D5A06900280E
:104CD00099D0206A6968E02212020A40824235D2E5
:104CE00000F070FA00288ED16868AC490140206A53
:104CF0000843686068680002000AE1690906014328
:104D0000696034E0E068002810D0296809229143E6
:104D10000843286000F09AFA060028684007C4D4C7
:104D200000F094FA801B0328F7D332E128680121B0
:104D30008843286000F08AFA060028684007BAD540
:104D400000F084FA801B0328F7D322E16968934AB4
:104D50000A401043686068680002000AE1690906B9
:104D600001436960206A00F02DFA0028BBD10120C0
:104D7000216A490B491C8840C0038949EA68120628
:104D8000120F895CC84087490860012000F064FA6E
:104D90002078000750D560690028286D3DD001219A
:104DA0000143296500F052FA0600286D800743D4BC
:104DB00000F04CFA801B0328F7D3EAE0A069002832
:104DC00028681BD03843286000F040FA06002868A5
:104DD000800505D400F03AFA801B0328F7D3D8E009
:104DE00068686E490140206A08436860686800028C
:104DF000000AE169090601436960C9E76A4901409F
:104E0000296000F023FA060028688005C0D500F06C
:104E10001DFA801B0328F7D3BBE0012188432865D6
:104E200000F014FA0600286D800705D500F00EFA90
:104E3000801B0328F7D3ACE02078400763D500201F
:104E400000903805A96B014004D1A96B0843A86301
:104E50000120009055480068384011D1534800683F
:104E600038435249086000F0F1F906004F480068E5
:104E7000384005D100F0EAF9801B6528F6D388E0B8
:104E8000A168B9420AD0A24800290DD0A022D200C0
:104E9000914209D1286D290D01432965286D0743E9
:104EA0002F6508E000100240296D3F4A0A402A653C
:104EB000296D08402865974FA068002810D000F0A1
:104EC000C5F90600286D800516D400F0BFF9801BD7
:104ED000B842F7D35DE000BFFFFFFEFFFFFFFBFF1F
:104EE00000F0B4F90600286D800505D500F0AEF994
:104EF000801BB842F7D34CE00098002803D0A86B81
:104F000085490140A963606A002844D0E9680C2201
:104F10000A400C2A00D176E68027BF047F49022888
:104F2000286829D10140296000F090F9060028681E
:104F3000384007D000F08AF9801B0328F7D328E017
:104F4000FFE0FFFFE86896490140A06A0843E16A74
:104F50000143206B0843E860286879080143296011
:104F600000F074F906002868384014D100F06EF99A
:104F7000801B0328F7D30CE00140296000F066F99C
:104F800006002868384006D000F060F9801B03282E
:104F9000F7D30320F2BD0020F2BD0000FF1FFFFF8A
:104FA00034730008FC000020FFFEFFFF007000408B
:104FB000F2B582B004000127FF430125794800685B
:104FC000284088420AD27748006838400143754833
:104FD0000160006828400299884274D1724E20789E
:104FE000800705D5F068F0218843A1680143F1608E
:104FF0002068284055D06068022802D131688903B2
:1050000008E0032802D13168890103E001283168F2
:1050100002D1490702D456E0890554D5F16803222C
:1050200091430843F06000F011F900906068022895
:105030000CD1F0680C210140082932D000F006F9AB
:105040000099401A33498842F3D328E003280CD151
:10505000F0680C2101400C2923D000F0F7F80099EA
:10506000401A2C498842F3D319E001280CD1F0688A
:105070000C210140042914D000F0E8F80099401AEE
:1050800024498842F3D30AE0F0680C21014008D09B
:1050900000F0DCF80099401A1E498842F4D303203E
:1050A000FEBD02983F490968294088420DD23D481B
:1050B00000680740029838433A490860086805408C
:1050C0000298854201D00120FEBD2078400705D519
:1050D000F0683B490140E0680843F0602078000731
:1050E00006D5F0684F4901402069C0000843F060D0
:1050F00000F016F84C49F2681206120F895CC8409D
:105100004A490860012000F0A7F80020FEBD000019
:10511000FFFBFFFF89130000FFFFFFEFFFFFFFFE14
:10512000F0B5214DE968434A9308102654080C2035
:105130000840042804D0082809D00C2809D01DE014
:105140002868064001D01800F0BD1000F0BD200016
:10515000F0BD39488F023F0FC05D0902890F491C1D
:10516000EF68FF0301D5604305E02C68264001D0BD
:10517000584300E05043FBF7F8FFF0BD6868012199
:105180000004400F401C8140C803F0BD2748006860
:105190007047264800682949254A126852050BE0E5
:1051A000FFFF02FF00200240001002401F4800687D
:1051B00022491F4A12689204520F895CC840704706
:1051C000FFF8FFFFF0B500220121194B1C68F02504
:1051D000254018D1C02464011A4D0E07DF6A3740FC
:1051E00002D02D68254008E0DF6A3E43DE622D686C
:1051F0002540DE6A144F3740DF62A54203D1E30049
:10520000984200D101220E4803680124A3431343AE
:10521000036000680140914201D00120F0BD0020F0
:10522000F0BD0000FFC7FFFF34730008FC00002042
:105230000C1002400024F40044730008A07400081D
:105240000020024000700040FFFFFFEF01480068AF
:10525000704700BF6822002010B5040007480068AE
:10526000FA218900FBF781FF00F036F800222100C7
:105270000020C04300F01EF8002010BDFC000020FC
:1052800010B5C20018231340FF249C40E243890755
:10529000090E9940002804D5214B0007000F08385B
:1052A00000E0204B80088000181803681A40114362
:1052B000016010BD80B5FFF7E3FF01BD0121C0060D
:1052C000C00E81401848016070470121C006C00E21
:1052D000814016480160704710B5401E8021490486
:1052E000884201D3012010BD114C606003210020D1
:1052F000C043FFF7C5FF0020A0600721216010BD5B
:105300000B490428086803D1042202430A6070474D
:10531000042290430860704780B500F00BF801BD8F
:105320001CED00E000E400E000E100E080E100E0CE
:1053300010E000E07047000011B59FB0684600BF64
:105340001FA17A22FCF79CFC1C4C1FA80088218816
:1053500088420BD168461FA90988090A01701FA954
:10536000098841707A21FAF705FF206020B010BD4E
:1053700080B5C9B2FAF7FEFE01BD000080B500F0AD
:1053800061F800F06FF800F0B9F800F0DBF800F019
:1053900029F9072129A0FAF7EDFE0849086003E082
:1053A0000121012000F04CF9FBF752FFFBF7C5FF8C
:1053B0000028F5D1012100F02FF9F5E76022002047
:1053C00048656C6C6F2C2077652061726520746570
:1053D0007374696E672032353630306270732072B4
:1053E0006563656976696E672073746162696C696B
:1053F00074792E2054686973206875676520706120
:10540000636B65742069732073656E64696E6720D1
:10541000666F7220676976696E672061206E756DB0
:1054200065726F7573207175616E74697479206F20
:1054300066207061636B65747300000048656C6C76
:105440006F21000080B50648016840220A430260CF
:105450000120FFF701FF00F015F9002002BD000058
:105460000020024030B59BB0324C334801682140E7
:10547000C20C0A43026000F0CBF8304801680C40CF
:1054800004600E200D90F2300F90012412941094BD
:105490001020119000251695179580031890000193
:1054A00019900DA8FFF794FB002800D0FEE70F200D
:1054B0000090019402950395049501216846FFF739
:1054C00077FD002800D0FEE7A0200590200406907C
:1054D000C02000030C9005A800F022F9002800D09D
:1054E000FEE7FFF753FEFA218900FBF73EFEFFF7C8
:1054F000F3FE0420FFF704FF1BB030BD81B0042190
:105500000F4802680A430260026811400091009946
:10551000012102680A43026002681140009100996B
:10552000022102680A43026000680140009100986D
:1055300001B07047FFE7FFFF0070004050100240CD
:105540002C10024000B587B000F0FBFA0C4800F0C8
:10555000A0FC0C4800F0A0FC00F0ACFC684600BFCA
:105560001AA11822FCF7A0FB0748006800906946C2
:1055700006A000F09FFDFBF733FF07B000BD000061
:105580003F270008EB26000880FF0108021F0B01DF
:105590000182080000000000000000000000000080
:1055A00000000F001E00FF0000D6C833302DCE33A0
:1055B0000060081E0A000800041E0A0008100064AB
:1055C000640008100064640008100000000000007F
:1055D00084FF0108F30F8888030000000C0000001E
:1055E000008D270080B500F0EFFD01BD38B5040047
:1055F000002501E000F0B4FDADB2605D6D1C01005E
:10560000F8D10A2000F0ACFD0D2000F0A9FD31BD5D
:105610001A480168820D2DE010B5184A136803245A
:10562000A343184310601648026804239A4302609B
:10563000012901D130BF10BD40BF20BF20BF10BD28
:1056400010B50E4A13680324A343184310600C4896
:105650000268042313430360012901D130BF02E033
:1056600040BF20BF20BF016804229143016010BDEC
:10567000016810220A430260704700000070004079
:1056800010ED00E080B52248016801220A43026063
:105690004168802252050A43426000220221042010
:1056A000C043FFF707FE002202210120C043FFF79D
:1056B00001FE002202210020C043FFF7FBFD01BDD7
:1056C00000681449884205D11348016880221206F7
:1056D0000A430260704700681049884200D0704752
:1056E00000B585B00A480168820C0A430260E020D8
:1056F0000090022001900020029003210391049069
:105700006946A020C00500F0AFFD05B000BD000057
:1057100034100240007C004038100240003001404C
:10572000F8B504005D4DAE0D207880067DD50020D3
:1057300000903005A96B014004D1A96B0843A86310
:105740000120009056480068304011D1544800684C
:10575000304353490860FFF779FD0700504800685F
:10576000304005D1FFF772FDC01B6528F6D33CE041
:1057700029686068C02292030A40C0218903014061
:105780008A420BD0C02189020140C022920291427C
:1057900004D12968890301D50120F2BD2A6DC021F9
:1057A0008902114023D0C0229202024091421ED0B1
:1057B000207880061BD5286D83490140286DF202B0
:1057C00002432A65286D814A02402A6529653140D5
:1057D0000DD0FFF73BFD0700286D800507D4FFF7CC
:1057E00035FDC01B7A498842F6D30320F2BD6068BC
:1057F000C02189020140C0229202914207D129684A
:10580000744A0A40C0218903014011432960286D70
:105810006168C02292020A4002432A65009800286B
:1058200003D0A86B6C490140A9632078C00705D557
:10583000E86C03218843A1680143E964207880076C
:1058400005D5E86C0C218843E1680143E9642078C0
:10585000400705D5E86C6149014020690843E864C8
:105860002078000705D5E86C5D4901406069084370
:10587000E8642068064005D0E86C53490140A069FF
:105880000843E8642078000605D5E86C55490140D6
:10589000E0690843E8640020F2BD00000010024007
:1058A00000700040F8B5010000208022920004261C
:1058B0004D4B1402C025AD02491E33D0491E3ED0C7
:1058C000891E4AD0091F5AD0083966D0103902D033
:1058D000E03966D0F2BD1E6D196D2940D701B9427D
:1058E00001D1324037E0A14203D1B1076BD53F4827
:1058F000F2BDA94267D119680C4064D0186829012B
:105900000140D002814209D04000814204D02801E8
:10591000814205D13648F2BD3648F2BD3648F2BD67
:105920003648F2BDD96C8907890F02D1FFF73EFCDA
:10593000F2BD02292AD0012943D0032908E0DC6CFA
:105940000C21214030D0082920D0042939D00C293D
:1059500039D1196D0A400FD1F2BDAC09D96C214083
:1059600022D09500A94211D05500A94229D0A142C8
:1059700029D1196D0A4026D080200002F2BDDA6CD0
:105980002909114010D02209914203D119680E4013
:1059900012D1F2BD5208914212E0996B490212D520
:1059A00002E0D96C0D4002D1FFF7F3FBF2BDA54236
:1059B00004D119680E4006D01148F2BDD2019542BB
:1059C00001D1FFF7ADFBF2BDFFFFFCFFFFFFF7FFCB
:1059D00089130000FFFFCFFFFFFFFFEFFFF3FFFF83
:1059E000FFCFFFFFFFFFF3FF001002408890000091
:1059F00020A1070040420F0080841E0000093D00E6
:105A00000024F40080B566480168802212060A432B
:105A1000026064486449416000218160A022120153
:105A2000C260624A826141628162C162001D00F00F
:105A30000FFD002201210D20FFF73CFC0D20FFF798
:105A40003DFC01BD57484068012102680A4000D171
:105A5000704780B5416000F063FD01BD70B5202541
:105A60004F4E306828433060514C524820605248B5
:105A70000068FA21C900FBF778FB60600120E06054
:105A800000202061A060200000F078FD200000F0E0
:105A900084FD306805433560002202211220FFF7A3
:105AA00009FC1220FFF70AFC70BD41480068012183
:105AB00002690A4000D1704780B5C268114004D025
:105AC0000121C943016100F02FFD01BD62B670479D
:105AD00072B6704733484068816801220A43826089
